:020000040800F2
:10000000E0190020F1910008918900089389000807
:1000100000000000000000000000000000000000E0
:1000200000000000000000000000000097890008A8
:100030000000000000000000F74B0008774D0008AA
:100040007F5B0008EB5D00085B5F00088B630008C6
:100050000B650008E368000863690008BB8E0008B0
:100060004791000853910008A9920008AB9200083C
:10007000AD920008AF920008B1920008998900087B
:10008000A98B0008B392000800000000B592000898
:10009000B7920008B9920008BB920008BD92000810
:1000A000BF920008C1920008C3920008E78A0008C6
:1000B000458B000800000000C59200080000000009
:1000C00010B50020574908700020574908700020DB
:1000D000564908700020564908700020554908709C
:1000E00001205549087000205449087000205449E7
:1000F000087000205C49087000205C4908800020DE
:100100005B49087000205B49087000205A4908705C
:1001100000205A49087000205949087000205949A8
:1001200008700020584908700020584908800020B5
:100130005749087000205749086000206C49088022
:1001400000206C49087000206B49087000206B4942
:10015000087000206A49087000206A490870002071
:1001600069490870962189000022684C200002F03D
:100170003FF811210022664C200002F039F80020DF
:1001800064490870002064490870002063490880B1
:10019000634864490860002063490870002063498F
:1001A000088001206249087001206249087000201F
:1001B000614908700020614908700020604908709A
:1001C0000A20604908700120914908700120914976
:1001D000087008209049087000209049087000209D
:1001E0008F49087005208F4908708B480078E121FD
:1001F00009014843994908600020994908701E2068
:1002000098490870642098490880BE210022974CC4
:10021000200001F0EDFF14210022954C200001F098
:10022000E7FF10BDAF150020B0150020B11500206C
:10023000B2150020B3150020B4150020B51500201C
:10024000C515002000B5002106E0521C92B28023A3
:100250005B019A42F9DB491C89B280B2814201D22A
:100260000022F3E700BD0000B61500209E15002017
:10027000B7150020B8150020B9150020BA150020C8
:10028000BB150020BC150020BD150020A0150020C6
:10029000BE1500202815002010B596B00400684651
:1002A0009049582201F0E4FF1020E4B221006139A6
:1002B000062902D2E4B220005738E4B221004139C5
:1002C000062902D2E4B220003738E4B221003039E6
:1002D0000A2902D2E4B2303C20006946052250438C
:1002E0000918814801F0DEFF16B010BD00000000C3
:1002F000A8150020CB150020BF150020C015002038
:10030000C1150020C2150020C3150020C00D00201B
:10031000AC140020C4150020C6150020A215002032
:10032000F01300202C150020C7150020A415002074
:10033000C815002068020020C9150020D51500202E
:10034000D6150020CD15002080B50021022000F038
:10035000D9F802BD80B5654801F0B2FF102101F067
:10036000CBFF002909D1614801F0AAFF102101F05B
:10037000C3FF401E5E49086007E05C4801F0A0FF33
:10038000102101F0B9FF5A490860584801F098FF60
:10039000102101F0B1FF092806DA02205549086052
:1003A00002205549086032E0504801F089FF1021D1
:1003B00001F0A2FF11280BDA4D48006808384C49BB
:1003C000086003204B49086000204B4908601EE08C
:1003D000464801F075FF102101F08EFF19280BDA55
:1003E00043480068103842490860032041490860CA
:1003F0000120414908600AE03D48006818383C493E
:10040000086003203B49086002203B49086001BDA9
:10041000CE150020CF150020D0150020D1150020CA
:10042000D2150020D315002010B5040006222100AB
:10043000324801F0BBFF06220E342100304801F0A3
:10044000B5FF01F03DFF0400C74801F039FF8442C9
:1004500001DB012000E0002010BD00004815002055
:10046000D4150020D7150020AA150020E012002086
:100470009814002010B584B004221D490968042393
:100480005943411801A801F091FF11210022164C97
:10049000200001F0ADFE002404E001A8005DFFF79C
:1004A000FBFE641C042CF8DB104801F009FF04007B
:1004B0000E4801F005FF102101F01EFF10214843F6
:1004C000201A012208490918491E684601F06EFFEA
:1004D000684601F0F5FE002801D1012000E000206F
:1004E00004B010BDD08E0008C014002050020020BF
:1004F0004C02002054020020580200200815002061
:100500001015002030B593B004000D00974952201B
:1005100001F05EFFC0B2002800D01EE1944801F057
:1005200082FFC0B2002800D012E1914801F0BCFF68
:10053000C0B2002800D00BE12000AE4908708C4BFF
:10054000AD4806214C430219AA48017804204143D2
:10055000C9B2602001F0E4FFC0B2002800D0F7E08B
:10056000AE49A4480078042250434019C0B202F0BA
:100570000BF8C0B2002800D0EAE0A94804682000C7
:100580009C490870A7480568794B9B4806214C4355
:1005900002199848017804204143C9B2602001F053
:1005A000BFFFC0B2002800D0D2E001A99148007876
:1005B000042250434019C0B201F0E6FFC0B2002847
:1005C00000D0C5E000F01AF9962040009649088056
:1005D000142002F023FA20210022944C200001F084
:1005E00007FE00240FE0684600789049E4B202223A
:1005F00062438854684640788C49E4B202226243E0
:1006000089184870641CE4B2102C1CDA8348E4B2E8
:10061000025D87A1684602F09BFA68464078002890
:10062000E1D184A284A18148E4B202236343C018CB
:1006300002F08EFA684600787C49E4B202226243F6
:1006400089184870DEE77D4801F03AFE022814D090
:1006500005A87B49342201F00BFE05A9734800F080
:1006600089F8012809D100220821A34800F0F8FBED
:100670000420C1490860042073E06948006800282C
:100680005CD09E4801F01CFE0021C943884255D031
:100690006648FFF7C9FE012850D120210022634C93
:1006A000200001F0A5FD00240FE0684600785F49B6
:1006B000E4B2022262438854684640785B49E4B25F
:1006C0000222624389184870641CE4B2102C1CDAC0
:1006D00001A8E4B2025D56A1684602F039FA684604
:1006E00040780028E1D153A253A15048E4B202233C
:1006F0006343C01802F02CFA684600784B49E4B214
:100700000222624389184870DEE74848FFF7B2FECC
:10071000012809D100220221984800F0A1FB012004
:100720009549086001201CE000220021934800F058
:1007300097FB032090490860032012E0002200216B
:100740008E4800F08DFB03208B490860032008E0F1
:10075000002089490860002003E0002086490860E5
:10076000002013B030BD00002C020020AC1500208A
:100770006415002010B5002201E0491C521C0B78C2
:10078000002B05D00B78845CA342F6D0002000E05B
:10079000012010BD10B5FFF7D7FD7748006801288C
:1007A00001D1012020E074480068032801D1032012
:1007B0001AE073480068012815D18022520071495F
:1007C000714802F0E1F900280FD180214900002290
:1007D0006D4C200001F00CFD0020694908606B4958
:1007E00008606B490860002010BD02206249086063
:1007F0000220F9E7D8150020D801002065480088BC
:1008000010210143634801806248008802210143AE
:100810006048018032209C4908707047D414002041
:100820005402002058020020A61500203014002099
:1008300025780000300000002573000064020020CD
:10084000288F000880B53221B54A1180012818D1BF
:100850008E480090082380220021002002F045FAF3
:100860004C4800888021090201434A480180322017
:1008700001F0A6FC474800884004400C4549088028
:100880001FE0052808D1824800900823802200211B
:10089000002002F02AFA14E0082808D17D480090D0
:1008A000082380220021002002F01FFA09E000281E
:1008B00007D179480090082380220021002002F00F
:1008C00014FA00202C4908600620964908609448D4
:1008D00000880028FBD19448006801280AD1142020
:1008E0008F49088001220021002002F0D4F9002065
:1008F0008B49088001BD000048920008500200208A
:1009000080B5012001F05CFC00F0C2FE01BD10B515
:1009100085480068012807D114208149088002F029
:100920009AF900207E49088000207F4908607F48AE
:100930007F4908600024174800888021490001434E
:1009400014480180002402E0FFF7DAFF641CE4B2DF
:10095000C82CF9DB0F480088764901400D4801801A
:10096000002402E0FFF7CCFF641CE4B2642CF9DB46
:1009700000207149086010BD601500200815002096
:1009800044150020181100201810002040150020E8
:100990003C1500201400004810B586B004006749DB
:1009A000674802F0B3FA6749086067A1644802F03B
:1009B000ADFA6649086063480068002862D0634861
:1009C000006800285ED0200002F0A4FA30280ED083
:1009D000200002F09FFA332809D0200002F09AFA92
:1009E000382804D0200002F095FA35284AD120009A
:1009F00002F090FA332804D0200002F08BFA382855
:100A000005D1032221002E31514801F0CFFC1A22DA
:100A1000143421004F4801F0C9FC0A2201004E485D
:100A200001F0C4FC0A224D494D4801F0BFFC0622EA
:100A30004C494D4801F0BAFC00204C4908600020A8
:100A400004E04549095C03AA1154401C0A28F8DB5C
:100A500000200AE003A9464A04234343D2588918D8
:100A6000491E09786A461154401C0A28F2DB00200E
:100A700004E06946095C3F4A1154401C0628F8DB33
:100A800000F078FD06B010BDCC1500209081000864
:100A90009085000890790008907D000810B5A0B0FE
:100AA0000C001522801D0100334801F07FFC00205E
:100AB00004E03149095C06AA1154401C1528F8DBF2
:100AC00000200AE006A92D4A04234343D25889187E
:100AD000491E09786A461154401C1528F2DB002093
:100AE00004E06946095C264A1154401C1528F8D3D5
:100AF0000B222349234801F059FC012C08D10A227A
:100B00002149174801F052FC00201849086004E010
:100B10000A221D49BE4801F049FC20B010BD00006A
:100B2000A6150020480200205015002010270000C4
:100B30003C020020FFFE0000581500200092000833
:100B40003C0A002068150020227D00006C15002062
:100B50005002002050140020200200205A140020CF
:100B600014020020641400202C0200205C150020D8
:100B7000900100203402002068140020FC000020B6
:100B800080140020E41400208B14002030B585B0C0
:100B9000A049A14802F0BAF9A0490860A0A19E4866
:100BA00002F0B4F99F4908609F499B4802F0AEF9F2
:100BB0009E4908609E49984802F0A8F99D4908603E
:100BC0009DA1954802F0A2F99C4908609C49924871
:100BD00002F09CF99B4908609B498F4802F096F906
:100BE0009A49086091480068002804D1914800683B
:100BF000002800D1A7E089480068002800D1A2E0C1
:100C000088480068002800D19DE0834802F082F9FE
:100C10003338222101F073FB002909D07E4802F00D
:100C200079F93838222101F06AFB002900D08AE0E6
:100C3000794802F06FF93838222101F060FB002971
:100C40005ED17C48006800285AD00122804968465D
:100C500001F0ACFB684601F033FB022823D10221EE
:100C600000227C4C200001F0C3FA01226946794839
:100C700001F09CFB00F07EFC0521002000F0D8FC78
:100C800014207549088001F0E6FF002072490880B1
:100C9000002072490860AA48AA490860FA2080002A
:100CA000A9490860B2E0684601F00AFB032803D1B5
:100CB0000321002000F0BCFC574802F02BF9383823
:100CC000222101F01CFB05000024AC4200DB8AE07D
:100CD000022251481E2161434018042161434118FA
:100CE000563103A801F062FB03A801F0E9FA0421E0
:100CF000484396490818001F00210160641CE4E77E
:100D0000454802F007F93338222101F0F8FA0500CE
:100D10000024AC4267DA02223F481E21614340189A
:100D2000042161434118513102A801F03FFB02A8A0
:100D300001F0C6FA0421484384490818001F002125
:100D40000160641CE5E739480068002831D0334869
:100D5000006800282DD033480068002829D02E488C
:100D600002F0D8F8222101F0CAFA002921D12A483C
:100D700002F0D0F8222101F0C2FA05000024AC42B2
:100D800031DA022224481E216143401804216143C4
:100D900041181E3101A801F009FB01A801F090FAE9
:100DA0000421484369490818001F00210160641CA0
:100DB000E5E7194802F0AEF83D2814D11F48006855
:100DC000002810D03E2100228C4C200001F010FAA7
:100DD00011498A4801F0BCFE884800F0B9F80521A5
:100DE000002000F025FC0D48006800280ED00D48BA
:100DF000006800280AD00020524908608048524903
:100E000008600548FFF7C8FDFFF7A4FA05B030BD3C
:100E1000F0140020549100083C0A002068150020BE
:100E20007D0000006C150020509200087C15002009
:100E3000589200088C1500204143000088150020BE
:100E40000C920008941500206C9100089015002069
:100E5000710A002064020020A61500205015002011
:100E6000FEB504000D0016000020C043654908606F
:100E7000002000E0401C14280CDA344904224243CC
:100E800089580029F6D15F49086001212F4A0423BF
:100E9000584311505B4800680021C943884210D173
:100EA000594800685749086057480068132803DB11
:100EB00000205549086004E053480068401C52492E
:100EC0000860C8210022514F380001F091F9002E2E
:100ED00013D04F4801F0F4F905004E480068642132
:100EE00001F00AFA010028004018009023004A4A45
:100EF0004A49464801F02CFE15E0454801F0E0F96A
:100F0000060040480068401C029042480068642186
:100F100001F0F2F930180190009523003E4A404953
:100F20003A4801F015FE39493E48364A12686423B2
:100F30005A43801801F00CFE344801F0F3FFF7BD6E
:100F400050C30000581500203C020020A0130020D0
:100F500010B59CB001006846334A138803803B22D9
:100F6000891C0DA801F022FA694602F033F800242A
:100F70000CE001A9042262438A18183A2BA102F05E
:100F800051F86946002002F025F8641C0C2C09DA9F
:100F9000062CEEDA07A9042262438A1823A102F084
:100FA00041F8EEE718210022214C200001F020F941
:100FB00000200CE001AA04234B43D2581C4B06240A
:100FC00044431B195A54491C0629F3DB401C0428CE
:100FD00011DA00280DD100210629F7DA07AA042327
:100FE0004B43D258124B062444431B195A54491CF4
:100FF000F2E70021E8E71CB010BD0000500100201E
:10100000983A0000400200204C15002018120020E1
:10101000140200205C150020F0010020C48F00089D
:101020005C8F00086C020020D23500082578000093
:10103000D8010020F0B587B0FFF7E0FBB449B54810
:1010400001F064FFB4490860B449B24801F05EFFA2
:10105000B3490860B349AF4801F058FFB24908608E
:10106000B249AC4801F052FFB1490860B1A1A948AA
:1010700001F04CFFB0490860B049A64801F046FFB6
:10108000AF490860AF49A34801F040FFAE4908608E
:10109000AEA1A04801F03AFFAD490860AD499D48B6
:1010A00001F034FFAC4908609B480068002800D17B
:1010B00054E19B480068002800D14FE19A4800683D
:1010C000002800D14AE100219248FFF7E7FC002404
:1010D000904801F01FFF2638112101F010F9060099
:1010E000C248006801285FD1002500E06D1CB542B0
:1010F00015DA0B210022BE4F380001F079F80A22E0
:1011000084481121694341182231B94801F04EF950
:101110000100B84801F098FF0028E7D10124012C14
:1011200038D1B54801F0CCF80400B44801F0C8F853
:101130000500B3480068642101F0DEF8201896210C
:1011400049004018A84211DBAC4801F0B9F804008E
:10115000A94801F0B5F80500A9480068642101F02C
:10116000CBF82818CA494018844209DA0022002125
:10117000C848FFF775FE0020C74908600020C1E19C
:1011800000220121C348FFF76BFE0120C24908601D
:101190000120B7E100220021BE48FFF761FE0020D8
:1011A000BD4908600020ADE1002500E06D1CB5429E
:1011B00036DA0B2100228E4F380001F019F80A228E
:1011C00054481121694341182231894801F0EEF851
:1011D000002004E08649095C6A461154401C0A2834
:1011E000F8DB00200AE06946C74A04234343D2588B
:1011F0008918491E097803AA1154401C0A28F2DBF9
:10120000002004E003A9095CC04A1154401C0628D0
:10121000F8DBBE49BE4801F017FF0028C6D1012403
:10122000012C6AD1754801F04BF80400724801F0B6
:1012300047F8050072480068642101F05DF828183D
:1012400093494018844210DB6C4801F039F80400DF
:10125000694801F035F8241A69480068642101F0F2
:101260004BF8201ABF49884209DB00220021894837
:10127000FFF7F6FD002088490860002042E15F4842
:1012800001F01EF804005C4801F01AF8241A5C48CA
:101290000068642101F030F8201AFF212E318842C5
:1012A00021DB564801F00CF80400534801F008F81F
:1012B000241A53480068642101F01EF8201AA94935
:1012C000884210DA0B2100224B4C200000F090FFE6
:1012D0004A49494801F03CFC002049490860012185
:1012E0000C48FFF7DBFB002201216A48FFF7B8FD3D
:1012F000012069490860012004E1002200216548BD
:10130000FFF7AEFD0020644908600020FAE000BF4E
:1013100060920008181000206815002068920008EC
:101320006C1500207092000870150020789200085B
:1013300074150020227D000078150020946C0008B0
:1013400080150020189200088415002041430000F9
:1013500088150020809200089015002082480068BF
:10136000002803D08148006800281CD190480068FC
:10137000002804D07E4801F0CDFD1C2813D08D48F4
:101380000068002804D07A4801F0C4FD3E280AD045
:1013900089480068002800D19DE0754801F0BAFD39
:1013A000092800D097E08248006800280BD013215C
:1013B0000022824C200000F01BFF122280497F484F
:1013C00000F0F4FF80E07B48006800281AD03E213E
:1013D0000022A24C200000F00BFF3D2264499F48F0
:1013E00000F0E4FF6248FFF7B3FD6DE05015002008
:1013F000FC1400202002002014020020F014002021
:101400005C1500206C480068002825D0944800F046
:1014100057FF012858D002210022914C200000F0F3
:10142000E7FE90A18E4801F093FB14208E490880BE
:1014300001F011FC00208C49088000208B490860D5
:101440008B488C490860FA2080008B490860052190
:10145000002000F0EDF837E001214548FFF71EFBC2
:101460000A228649864800F0A1FF03228549864862
:1014700000F09CFFFEF76EFF002004E08049095C4D
:1014800003AA1154401C0A28F8DB002011E000BF19
:10149000D4FEFFFFE41400204802002003A91A4AEA
:1014A00004234343D2588918491E09786A461154C7
:1014B000401C0A28F2DB002004E06946095C144A5B
:1014C0001154401C0628F8DB00F054F805209D4913
:1014D0000860052016E06D48006800280ED06048BE
:1014E00000F0EEFE022809D0002201219648FFF705
:1014F000B7FC082093490860082003E000209149C8
:101500000860002007B0F0BD9001002018150020F1
:101510003402002038B504008C4801800DE0E12140
:10152000890000228A4D280000F062FE00208949CF
:101530000860894908608949086000F0A9F8834873
:101540000088002801D100200AE0824800680128B4
:10155000F3D121007E4801F0D9FC0028DFD0012022
:1015600032BD000081510100781500207415002063
:101570001810002000B5BFB0794806903848059093
:10158000364804904048039076480290764801908F
:10159000764800903A4B094A754907A801F0D8FAF5
:1015A000DC2207A9734801F0D3FC3FB000BD000066
:1015B000841500208815002090150020F0010020DF
:1015C0002110002038B56C48006800282FD124482D
:1015D00000F076FE02280ED1C8210022674C2000C0
:1015E00000F006FE664A6749644801F0B1FA6348B4
:1015F00001F098FC03E00121002000F019F8624896
:101600005D4908600024002500E06D1C142D0EDAF1
:101610005E480421694340580128F6D15C486421A2
:101620006943401801F07EFC641C0A2CEDD131BDE9
:1016300070B582B004000D00C82100224F4E30006A
:1016400000F0D6FD009523004D4A52494B4801F069
:101650007FFA4A4801F066FC73BD0000500100208B
:101660006402002031000000A61500205015002063
:1016700050C30000581500203C02002053100020E9
:10168000200200206410002050020020801500205D
:1016900010B5FFF77FF840480068002850D03E485A
:1016A0000068012803D10120FFF7CCF830E03A4868
:1016B0000068032803D10020FFF7C4F828E036486B
:1016C0000068042803D10820FFF7BCF820E0FFF7EA
:1016D000B1FC1C480068012803D10120FFF7B2F8D3
:1016E00016E018480068052803D10520FFF7AAF87E
:1016F0000EE014480068002803D10020FFF7A2F88C
:1017000006E010480068082802D10820FFF79AF880
:101710000020214908608021490000221F4C200040
:1017200000F066FD8021490000221D4C200000F0E1
:101730005FFD00201B4908601B4908601B490860C9
:1017400010BD00004802002018920008A4150020D7
:101750003C0A0020381500203415002030150020E8
:10176000660200202C020020140200203402002017
:101770000491000800F800085415002018120020F9
:10178000F001002090900008E02E0000A01300203F
:101790006C020020F08F0008601500201811002056
:1017A0001810002044150020401500203C15002092
:1017B00030B5B9B0FEF784FC00F0E2FA00F052FC5C
:1017C00000F00CFB00F0F1FB00F0D2FC00F094FC08
:1017D000302001F04FFC01F08DF9FFF70FF801F018
:1017E000EDFA01F038FAB64800888021490101433A
:1017F000B348018000F096FCDC2201A9B14801F059
:10180000D4FB6846B0490A880280012201A97B31D5
:10181000684600F0CBFD684600F052FD012836D145
:10182000122201A9A94800F0C1FD0A2201A9133121
:10183000A74800F0BBFD062201A91E31C94800F0EF
:10184000B5FD0A2201A92531C74800F0AFFD0622E7
:1018500001A93031C54800F0A9FD032201A93731A3
:10186000C34800F0A3FD3D2201A93B31C14800F06F
:101870009DFDFFF76DFB012201A97931BE4800F003
:1018800095FD012201A97B31BC4800F08FFDFEF7D8
:1018900061FDFFE7BA480078002800D162E23220FB
:1018A00000F08EFCFFF733F8002400E0641CE4B283
:1018B0000A2C17DAE12189000022B24D280000F03D
:1018C00097FC0020B0490860B0490860B049086042
:1018D000B04801F027FB96214900AFA0FFF71AFEA0
:1018E0000128E3D1E4B20A2CD4DA142000F068FC19
:1018F000002400E0641CE4B20A2C16DAE12189001D
:101900000022A04D280000F073FC00209E490860D2
:101910009E4908609E490860CF4801F003FBC8213A
:101920009DA0FFF7F7FD0128E4D1E4B20A2CB1DA5B
:10193000142000F045FC002400E0641CE4B20A2CF2
:1019400016DAE121890000228E4D280000F050FCBB
:1019500000208D4908608D4908608D490860BF48A6
:1019600001F0E0FAC821BE48FFF7D4FD0128E4D118
:10197000E4B20A2C8EDA142000F022FC54E08248F3
:10198000006801280FD1FFF701F9E1218900002249
:101990007C4C200000F02CFC00207B4908607B4937
:1019A00008607B490860FFF773FECE480068012895
:1019B00001D1FFF707FECC480068CC4988420EDB16
:1019C000694800F07DFC0400C7480068642100F00D
:1019D00093FC20180020C4490860FFF7CBFDC448E1
:1019E0000068C44909688842C9DB1420C2490880DC
:1019F00001F031F90020C04908800020B949086091
:101A0000BE48BC4908600020B9490860BCA001F08C
:101A100089FAFA20C000FEF715FCD44801F082FADA
:101A2000FA208000FEF70EFC002400E0641CE4B203
:101A30000A2C17DAE12189000022524D280000F01B
:101A4000D7FB0020504908605049086050490860A1
:101A5000C74801F067FAFA2149004FA0FFF75AFD85
:101A60000128E3D1E4B20A2C00DB13E7142000F0D4
:101A7000A7FB002400E0641CE4B20A2C16DAE12182
:101A8000890000223F4D280000F0B2FB00203E49B3
:101A900008603E4908603E490860B64801F042FAD5
:101AA000C8213DA0FFF736FD0128E4D1E4B20A2C9D
:101AB00000DBEFE6142000F083FB00240BE000BF06
:101AC0001404004800F80008FA380008F00100206B
:101AD00020020020641CE4B20A2C16DAE1218900FD
:101AE0000022284D280000F083FB002026490860D2
:101AF00026490860264908609F4801F013FAC8216A
:101B000025A0FFF707FD0128E4D1E4B20A2C00DB91
:101B1000C0E6142000F054FB002400E0641CE4B292
:101B20000A2C16DAE12189000022164D280000F067
:101B30005FFB0020144908601449086014490860DC
:101B40008E4801F0EFF9C82113A0FFF7E3FC01284C
:101B5000E4D1E4B20A2C00DB9CE60A2000F030FB62
:101B600000241CE034020020140200202C0200207B
:101B70005002002050010020640200206602002074
:101B8000690200203C0A002038150020341500208E
:101B900030150020889200084F4B0000641CE4B20E
:101BA0000A2C16DAE121890000227C4D280000F081
:101BB0001FFB00207A4908607A4908607A4908606A
:101BC0007A4801F0AFF9C82179A0FFF7A3FC0128FA
:101BD000E4D1E4B20A2C00DB5CE6142000F0F0FA59
:101BE000E121890000226D4C200000F001FB002063
:101BF0006B4908606B4908606B490860C82000F0B9
:101C0000DFFAC82000F0DCFA6A4800F059FB02282D
:101C100003D1694801F086F902E0684801F082F9D1
:101C20000024FA20C000664908800DE0E121890007
:101C300000225A4D280000F0DBFA002058490860C5
:101C40005849086058490860FFF722FD5C48008841
:101C5000002807D10A2462E024920008309200088C
:101C6000809100084E4800680128EDD155494B4845
:101C700001F04CF9544908605449484801F046F9CC
:101C8000534908605349454801F040F952490860FA
:101C90004D480068002805D04D480068002801D153
:101CA00009243CE04A480068002833D0E4B2032C01
:101CB00001D10A2433E0E12189000022374D2800B8
:101CC00000F096FA00203649086036490860364927
:101CD0000860384800F0F4FA022813D1364801F0C1
:101CE00021F912E0501500205C15002060EA000088
:101CF000581500203C020020A615002010270000E7
:101D00002B2B2B002D4801F00DF9FA20C0002C4997
:101D10000880641C30480068002887D00B24E1212B
:101D2000890000221D4D280000F062FA00201C49A5
:101D300008601C4908601C490860E4B20A2C02D102
:101D4000FEF7E5FDA6E51420C14908800122002127
:101D5000002000F0A0FF0020BD4908800120BD49FF
:101D6000086020E6002039B030BD00BFE0910008D7
:101D700090910008A0910008B0910008C09100085F
:101D800080B50121B44801F049FA0121B34801F0BE
:101D900055FA0121B24801F061FA01BD3C0A002068
:101DA000381500203415002030150020D09100088F
:101DB0004F4B000064020020908F0008189000082C
:101DC000A415002090920008681500209892000841
:101DD0006C150020A09200087015002000B583B09B
:101DE000012209219020C00501F0C1FA01220A2137
:101DF0009020C00501F0BBFAC020C0000090022076
:101E00006946087103206946487100206946887157
:101E100001206946C87169469020C00501F044FA66
:101E2000012202219020C00501F0A1FA0122032124
:101E30009020C00501F09BFA0C200090022069461A
:101E4000087100206946887101206946C871032025
:101E50006946487169469020C00501F025FA1220B4
:101E600000900320694648710120694608710020EE
:101E70006946887101206946C87169469020C0058D
:101E800001F012FA02219020C00501F06EFA102133
:101E90009020C00501F069FA1820009003206946DF
:101EA0004871012069460871002069468871012047
:101EB0006946C8716946AD4801F0F6F910209749A6
:101EC0000880082096490860802040000090032088
:101ED0006946487101206946087100206946887189
:101EE00001206946C87169469020C00501F0DCF9FF
:101EF000802149009020C00501F037FA2020009091
:101F0000032069464871012069460871002069462E
:101F1000887101206946C8716946944801F0C4F986
:101F20008020000200900320694648710120694624
:101F3000087100206946887101206946C8716946A8
:101F40009020C00501F0B0F9802000029B49088074
:101F50002021864801F009FA4020009003206946BC
:101F6000487100206946087101206946C8716946B8
:101F70009020C00501F098F98020400100900320D6
:101F800069464871012069460871012069468871D7
:101F900000206946C8716946744801F085F98021BE
:101FA0004901724801F0E1F907BD00B58BB0E120AD
:101FB0004002049000200590002006900020079029
:101FC000002009900C20089004A9814801F004FA2F
:101FD00000200090002001908020800002900020CE
:101FE000039069467A4801F054FA0121784801F0DB
:101FF00063FA01227749764801F080FA9620800141
:1020000004900020059000200690002007900020FA
:1020100009900C20089004A96F4801F0DDF9002018
:10202000009000200190802080000290002003900A
:102030006946694801F02DFA0121674801F03CFA30
:1020400001226449644801F059FA0BB000BD000058
:10205000A615002050150020150046000142400042
:102060000208020080B51B206946087001206946FD
:102070004870012069468870684601F0ABFA1C2060
:1020800069460870002069464870012069468870DA
:10209000684601F09FFA07206946087001206946EA
:1020A0004870012069468870684601F093FA102054
:1020B00069460870032069464870012069468870A7
:1020C000684601F087FA0F206946087001206946CA
:1020D0004870012069468870684601F07BFA092043
:1020E0006946087001206946487001206946887079
:1020F000684601F06FFA01BD80B5002001F0A8FA32
:10210000364801F0A1FAFA20000101F0A5FA01F029
:10211000A7FA01F0A9FA01BD000000002804004858
:1021200018040048E0B50121022001F097F82C487E
:1021300001902C48694608800020694608810020EB
:10214000694648806946284801F09CFAFF214031E1
:10215000254801F0CAFA01220121234801F0E8FADA
:102160000121214801F0C3FA07BD00000004004826
:10217000E0B50121012001F071F8EF20019019482C
:102180006946088000206946088100206946488029
:1021900069468020C00501F075FAEF218020C00556
:1021A00001F0A3FA012201218020C00501F0C0FA4C
:1021B00001218020C00501F09AFA07BD28000048DF
:1021C00000B50A490880094800880028FBD100BDF5
:1021D000003801400501050000440040555500004D
:1021E000BF5D0000CF07000000040040A4150020E0
:1021F0001206130A1A43130C1A4300BF094205D0F2
:10220000830705D00270401C491EF9D170470000B9
:10221000130030B414001500103902D310393CC03B
:10222000FCD2490700D30CC000D504C0890002D3FA
:102230000280801C002900D5027030BC704700006D
:102240000022DBE70022E3E7124207D08B0706D02B
:102250000B78491C0370401C521EF7D87047830747
:1022600006D00B78491C0370401C521EF9D17047F0
:1022700070B4103A03D378C9103A78C0FBD2530730
:1022800001D318C918C001D508C908C0D20704D3A2
:102290000B880380891C801C002A01D50B780370F1
:1022A00070BC7047020000E0521C1378002BFBD179
:1022B0000B781370002B02D0521C491CF8E77047B2
:1022C00080B50A22002101F0EAFA02BDF446002896
:1022D00004D4494200F013F84042604740420029CC
:1022E00005D45FD000F00BF84042494260474942B4
:1022F00000F005F84942604703460B43E6D400224C
:10230000030A8B420BD203098B4219D243088B423A
:102310002ED2411A00D20146524110467047FF2288
:1023200009023FD012068B4205D3121209028B42DA
:1023300001D31212090203098B4219D300E0090AE2
:10234000C3098B4201D3CB01C01A524183098B428E
:1023500001D38B01C01A524143098B4201D34B0177
:10236000C01A524103098B4201D30B01C01A5241DA
:10237000C3088B4201D3CB00C01A524183088B4261
:1023800001D38B00C01A524143088B4201D34B004A
:10239000C01A5241884200D3401A5241CFD201465E
:1023A0001046704708B501F0A7FA08BD10B5040043
:1023B0000B00110003E002705B1C401C491E002949
:1023C00004D01A78002AF6D1FFF73AFF200010BD9A
:1023D00030B587B005000C000821082000F05BFA3A
:1023E00007210D2000F0F1F90321142000F042FA3A
:1023F0006846057201A8009002AB012202A90C20D8
:1024000000F05AFAC0B2002809D10199102906D16A
:102410006946097A217002A94978617000E0FE20BE
:10242000C0B207B030BD70B588B0060000240821E6
:10243000082000F030FA00210D2000F0C6F98021BC
:102440000E2000F028FA932069460872202002A985
:10245000487001A8009002AB022202A90C2000F0F3
:102460002BFA0500EDB2002D16D100200AE002A9DA
:10247000C0B2095CC0B23154220002A9C0B20C5CE7
:102480005440401CC0B20428F1DB02A9C0B2085C71
:10249000E4B2844200D0FE2580210E2000F0EAF94B
:1024A0002800C0B208B070BD00B587B093216A465D
:1024B0001172702102AA5170002102AA91710021AB
:1024C0000DE0C9B2425C02ABC9B25B189A7002AAB5
:1024D0009279C9B2435C534002AA9371491CC9B2B4
:1024E0000429EEDB02AAD21D072102A800F077F82A
:1024F0000821082000F0CFF901A8009002AB0922C2
:1025000002A90C2000F0D8F9C0B2002804D101982B
:10251000182801D1002000E0FE20C0B207B000BDA5
:1025200010B588B06C46207202A84170002006E009
:10253000C0B2115C02ACC0B22418A170401CC0B281
:102540000628F5DB002006E0C0B2195C02AAC0B282
:1025500012181172401CC0B20628F5DB01A80090C9
:1025600002AB0C2202A90E2000F0A6F90400E4B28E
:10257000002C04D1082000F0DAF8000700D4FE2473
:102580002000C0B208B010BD10B588B00C003021DA
:102590006A46117202A9487002AA921C022102A87E
:1025A00000F01DF801A8009002AB042202A90C2043
:1025B00000F082F9C0B200280DD1019990290AD10A
:1025C0000021C9B2102907DA02AAC9B2525CC9B205
:1025D0006254491CF5E7FE20C0B208B010BDF8B542
:1025E00007000E0014000421052000F054F900211A
:1025F000012000F0EAF880210A2000F03BF90025D4
:1026000005E0EDB2795D092000F0DFF86D1CEDB258
:10261000F6B2B542F5D30321012000F0D6F8FF252C
:10262000052000F084F86D1EEDB2002D01D04007AA
:10263000F6D5222000F07BF82070212000F077F8FA
:102640006070F1BD80B580219020C00500F08AFE49
:10265000012000F0E3F980219020C00500F085FE04
:10266000012000F0DBF980219020C00500F07AFE07
:102670000A2000F0D3F9022000F059F880280BD18D
:102680000A2000F0CBF90A2000F0C8F90A2000F077
:10269000C5F90A2000F0C2F90F21012000F095F8D9
:1026A0003D21112000F091F81E212D2000F08DF821
:1026B00000212C2000F089F88D212A2000F085F8D7
:1026C0003E212B2000F081F84021152000F07DF8FC
:1026D000002002BD80B5C0B2412826D108210820C3
:1026E00000F0D9F83D21112000F06FF88621172065
:1026F00000F06BF87F21262000F067F81E212D20C6
:1027000000F063F800212C2000F05FF88D212A20D2
:1027100000F05BF83E212B2000F057F8012000F07C
:102720007DF900F06AF9002000E0FF2002BD70B5DD
:1027300005000024802109014D4800F016FE6800C4
:102740008026064308250AE00221494800F00DFED4
:102750008021C900464800F005FE76006D1EEDB2EE
:10276000002D0BD08021C900414800F0FEFD30064D
:10277000EAD502213E4800F0F5FDE9E7082514E01E
:102780008021C9003A4800F0F0FD64008021C900B2
:10279000374800F0E7FD0121354800F0D6FD01285B
:1027A00002D12000012404436D1EEDB2002DE7D1BB
:1027B000802109012E4800F0D5FD8021C9002C4858
:1027C00000F0D0FD2000C0B270BD70B505000C0057
:1027D0008021C900264800F0C8FD80210901244855
:1027E00000F0C3FD68007E26064008250FE00221A8
:1027F0001F4800F0BAFD8021C9001D4800F0B2FD5D
:1028000076008021C9001A4800F0AFFD6D1EEDB2C0
:10281000002D06D03006EAD50221154800F0A2FDB1
:10282000E9E708250FE00221114800F09EFD802114
:10283000C9000F4800F096FD64008021C9000C48D3
:1028400000F093FD6D1EEDB2002D06D02006EAD5F6
:102850000221074800F086FDE9E7802109010448CC
:1028600000F080FD8021C900014800F07BFD70BDB3
:102870000004004870B505000C0000262800C0B216
:10288000FFF755FF060034432100C9B22800C0B24B
:10289000FFF79BFF70BD70B505000E0000242800F7
:1028A000C0B2FFF744FF0400B4432100C9B22800BE
:1028B000C0B2FFF78AFF70BDFDB582B00D00FE27E4
:1028C00000260020694608706846007A0C2806D069
:1028D0000E2809D1122610206946087004E07726D8
:1028E000302069460870FFE780213143C9B20220D9
:1028F000FFF76BFF80210420FFF7CDFF00210120AF
:10290000FFF763FF80210A20FFF7B4FF002404E0F3
:10291000295D0920FFF759FF641C6846007B84424B
:10292000F6D36846017A0120FFF74FFF6846007A28
:102930000C2803D180210D20FFF79CFFFA24E4002E
:102940000420FFF7F4FE0500641E002C05D0E80704
:1029500003D4684600780542F2D080210D20FFF7AD
:102960009AFF002C3DD00620FFF7E1FE1B21084214
:1029700036D10027EDB2F6B22E40F00700D5FF2782
:102980006846007A0C282CD10A20FFF7D0FE0500FB
:102990000C20FFF7CCFE4107490F0A98C9B2002965
:1029A00007D0EDB26A1E08235A43C9B2511801601C
:1029B00003E0EDB2082169430160EDB2002D00D1C2
:1029C0000125EDB2132D00DB12250024EDB2AC423F
:1029D00007D20920FFF7ABFE04990855641CF5E700
:1029E000FE2780210C20FFF745FF00210120FFF783
:1029F000ECFE3800C0B205B0F0BD80B51420FFF782
:102A000096FE800703D103211420FFF733FF01BD99
:102A100080B503211420FFF73EFF01BD38B5040047
:102A2000002503E00A2000F03AFB6D1CA542F9D313
:102A300031BD00B583B08020009000206946487108
:102A400001206946087100206946887101206946A5
:102A5000C87169469020C00500F026FC0120009056
:102A600000206946487100206946087100206946C7
:102A7000C87169461E4800F017FC02200090002033
:102A800069464871012069460871002069468871CD
:102A900001206946C8716946154800F005FC802090
:102AA000C000009000206946487101206946087105
:102AB00000206946887101206946C87169460C4842
:102AC00000F0F2FB80200001009000206946487170
:102AD0000120694608710020694688710120694615
:102AE000C8716946024800F0DFFB07BD0000000026
:102AF0000004004880B5FFF79CFF0A20FFF78EFF17
:102B0000FFF7A0FDFFF784FFFFF777FF4120FFF7F6
:102B1000E1FD0A20FFF782FF0A20FFF77FFF0A206E
:102B2000FFF77CFF01BD30B4012100220368001DC6
:102B3000002B0BD00468001D0C4202D04D466D1EC8
:102B400064192260241D1B1FF0D0FAE730BC7047C7
:102B50000CB41CB5040004A80190009401AB0A0059
:102B60006946084878441C3000F0C8FE0021009AED
:102B70001170002801D40098001B02B0019910BC0C
:102B800003B00847E704000010B402E0401C491CF1
:102B9000521E002A09D00B7804789C42F6D002D24B
:102BA0000020C04302E0012000E0002010BC70477C
:102BB00038B50400C9B2002904D040217E4800F095
:102BC000D1FB03E040217C4800F0CFFB20217A4874
:102BD00000F0CBFB00250BE080214900764800F097
:102BE000C4FB80218900744800F0BCFB64006D1CAC
:102BF000EDB2082D0CDA802189006F4800F0B5FB9A
:102C00002006E9D5802149006B4800F0ABFBE8E7DE
:102C10002021694800F0A6FB4021674800F0A2FB94
:102C200031BD10B50400080000215038C0B2FFF7D4
:102C3000BFFF00212200D2B2120910201043C0B2FF
:102C4000FFF7B6FF00212207120F01201043C0B288
:102C5000FFF7AEFF10BD38B5002408E001210020C9
:102C6000FFF7A6FF6D1CEDB2802DF7DB641CE4B20C
:102C7000082C0FDA002120005038C0B2FFF798FF6F
:102C800000210020FFF794FF00211020FFF790FFA4
:102C90000025E8E731BD70B506000C002100C9B27F
:102CA0003000C0B2FFF7BDFF002506E001219448C7
:102CB000EDB2405DFFF77CFF6D1CEDB2102DF5DB32
:102CC000641C2100C9B23000C0B2FFF7AAFF002582
:102CD00007E001218A48EDB24019007CFFF768FF48
:102CE0006D1CEDB2102DF4DB70BDFDB50D0000269E
:102CF0006846007A0821FFF7FFFA002906D16846E6
:102D0000007A0821FFF7F8FA040006E06846007A26
:102D10000821FFF7F1FA0400641C2C00089F0BE067
:102D20000121B85DFFF744FF761C6D1C68460079F1
:102D3000EDB28542F4D3641C6846007AE4B2844262
:102D400008D22100C9B268460078FFF76AFF6846DA
:102D50000578EBE7F7BDF8B506000F000020032467
:102D600000E0641CE4B2062C24DA2100C9B2002081
:102D7000FFF757FF00250DE0EDB2F6B2A8190121CB
:102D8000604AE4B280235B006343D218105CFFF713
:102D90000FFF6D1CEDB2FFB2BD42E2D2EDB2F6B252
:102DA000A819FF28E8DDEDB2F6B2A819FF21C94342
:102DB0004018E4E7F1BD00000004004800B583B00E
:102DC000F820800000900320694648710120694680
:102DD000087100206946887101206946C8716946FA
:102DE000494800F061FA8021474800F0BBFA6420AE
:102DF00000F055F98021444800F0B7FAC82000F0EF
:102E00004EF98021404800F0ADFA0021AE20FFF7D6
:102E1000CFFE00210020FFF7CBFE00211020FFF79E
:102E2000C7FE00214020FFF7C3FE00218120FFF7ED
:102E3000BFFE0021CF20FFF7BBFE0021A120FFF73E
:102E4000B7FE0021C820FFF7B3FE0021A620FFF740
:102E5000AFFE0021A820FFF7ABFE00213F20FFF7C7
:102E6000A7FE0021D320FFF7A3FE00210020FFF7DB
:102E70009FFE0021D520FFF79BFE00218020FFF759
:102E800097FE0021D920FFF793FE0021F120FFF7E4
:102E90008FFE0021DA20FFF78BFE00211220FFF7C2
:102EA00087FE0021DB20FFF783FE00214020FFF793
:102EB0007FFE00212020FFF77BFE00210220FFF78C
:102EC00077FE00218D20FFF773FE00211420FFF70D
:102ED0006FFE0021A420FFF76BFE0021A620FFF764
:102EE00067FE0021AF20FFF763FE0021AF20FFF750
:102EF0005FFEFFF7B0FE00210020FFF792FE07BD46
:102F0000B8010020907100080004004880B501F06D
:102F100056FE02BD010000E0491C0A78002AFBD1E0
:102F2000081A704710B504000BE0217889B20748F1
:102F300000F0D2FA8021054800F002FB0028F9D009
:102F4000641C20780028F0D110BD0000003801403A
:102F500070B582B005000E001400A4B2641C2000FD
:102F60000221FFF7C9F9040001F046FE352001F007
:102F7000A9FE280001F053FE00E0AD1C2000441E15
:102F800080B200280DD03188280001F06FFE69461C
:102F90000870B61C684600780428EED00020C043B4
:102FA00002E001F035FE002076BD30B504000D00D2
:102FB000100080B2C01C0421FFF79EF903E02168D5
:102FC0002960241D2D1D0100481E89B20029F6D15B
:102FD000002030BD70B505000E00114801F0A6FEBE
:102FE0000400002D09D03100280001F0A0FE2D18AA
:102FF0002878002806D1206070BD2568002DF2D108
:10300000002070BD3100280001F0A3FE28180178CF
:10301000002902D000210170401C2060280070BDF2
:103020005C0200200DB400B582B004A800906B468D
:103030000A0003A9034878440A3001F0BFFE029950
:1030400006B008477160000001E0401C491C0A7886
:103050000378934203D1002BF7D10020704702D2AE
:103060000020C0437047012070470268531C036072
:103070001170704700B51749096804229143154A39
:103080001160C0B20821FFF737F9134908701248E0
:103090000078FA21890041431048018000BD00B545
:1030A00080B20E49098848430D49086000200D4947
:1030B0000860012007490860064800680A49014085
:1030C0000129F9D000200349086000200549086063
:1030D00000BD000010E000E0AE1500209C150020AF
:1030E00014E000E018E000E001000100F0B5040089
:1030F00000200025002200210023604E36680C27A6
:1031000037403800002804D0042805D0082806D00D
:1031100022E05D48206021E05B4820601EE05748C7
:103120000068F025AD030540544802688020400245
:103130000240AD0CAD1C002A03D152484543256026
:1031400009E0524800680107090F491C4E48FFF783
:10315000D6F86843206001E04B482060474801688A
:10316000F020084000094A490B5C2068D8406060A4
:1031700042480168E020C0000840000A44490B5C56
:103180006068D840A0603E480068C00502D441484D
:10319000E0600AE039480068400403D4A0684008B1
:1031A000E06002E0A0688008E06035480068400602
:1031B00002D43948206102E08020000220613048BA
:1031C0000068C00602D43048606101E02068606198
:1031D0002B4800688007800F002802D1A068A061FA
:1031E0001AE0274800688007800F012802D1206874
:1031F000A06111E0224800688007800F022803D1F7
:1032000080200002A06107E01D4800688007800F51
:10321000032801D11C48A061F0BD000000B5C9B26F
:10322000002905D01D49096808431C49086004E0CD
:103230001A49096881431948016000BD00B5C9B247
:10324000002905D01649096808431549086004E0BB
:103250001349096881431248016000BD00B5C9B235
:10326000002905D00F49096808430E49086004E0A9
:103270000C49096881430B48016000BD04100240FD
:103280003010024000093D0000127A002C1002406C
:1032900004020020809FD50012800000141002401C
:1032A000181002401C10024070B5002200230024B8
:1032B00000252A0046E0012393400C681C409C42F4
:1032C0003FD10B79012B02D00B79022B19D18368E6
:1032D0000324150002267543AC40A3438360836832
:1032E0004C79150002267543AC401C4384608388EA
:1032F00001249440A343838083888C7994401C43A9
:10330000848003680324150002267543AC40A34360
:10331000036003680C79150002267543AC401C431A
:103320000460C3680324150002267543AC40A34320
:10333000C360C368CC79150002267543AC401C43BA
:10334000C460521C102AB6D370BD00B50200002024
:10335000128A89B21140002901D0012000E000202A
:10336000C0B200BD89B28161704701857047F0B479
:10337000140000220023E4B20D006D076D0F042637
:103380007543AC40220089B20C00E41004256C4364
:10339000051989B20C00E410042674430419266A46
:1033A0000F27BC460C006407640F04277C43674664
:1033B000A740BE432E6289B20C00E41004256C4382
:1033C0000419246A2243130089B2C910042251430C
:1033D00040180362F0BC7047F0B587B005000F00DD
:1033E0000024002600212868012290432860686894
:1033F000010008003C4901400800B96801436960C8
:1034000029680800394901400B007868FA680243CE
:103410003969114319432960A968080034490140FA
:10342000080079690143A9606846FFF75FFE2948F3
:10343000854201D1069E00E0029E286800040CD55A
:10344000022070433968FEF75AFF04000220464309
:1034500030003968FEF753FF08E030003968FEF7A6
:103460004EFF040030003968FEF749FF3868400815
:10347000814200D3641C2868000407D5200040085E
:103480004107490F1B4820400C000443AC8107B0A2
:10349000F0BD30B4002243681A001300164A1A40E7
:1034A00015000A684B6813438C681C43CA682243A2
:1034B0002A43426030BC704700B5C9B2002904D02D
:1034C000016801220A43026003E00168012291437E
:1034D000016000BD00380140C905C90D0185704774
:1034E000808CC005C00D7047FFCFFFFFF3E9FFFFE1
:1034F000FFFCFFFFF0FF0000FFF0FFFF70B50023AF
:103500000024002500260600080080B2000A80B2D0
:103510000300C8B204000120A0400500022B01D125
:10352000361D02E0032B00D10836D2B2002A03D0A8
:1035300030680543356002E03068A843306070BDF4
:1035400000B502000020D2691140002901D00120FD
:1035500000E00020C0B200BD01627047F0B502007B
:1035600000240025002600200B009BB21B0A9BB202
:103570001E00CBB21D0001272B003D009D40012EF7
:1035800003D128001568054008E0022E03D1280069
:103590005568054002E02800956805400C00240CA1
:1035A000012120000C0084402000D4690440002D3B
:1035B00003D0002C01D0012000E00020C0B2F0BDFB
:1035C00000220023090C0A00012191400B00036234
:1035D00070472C0010B500218278002A26D01749A8
:1035E0000278921004235A438958FF2203789B07DC
:1035F0009B0F082463439A4091430C004178890152
:10360000C9B202789207920F08235A43914021438E
:103610000A4A03789B1004246343D15001210078A7
:10362000C006C00E81400648016006E00121007816
:10363000C006C00E81400348016010BD00E400E0F8
:1036400000E100E080E100E080B2094908607047D5
:10365000C0B208490860704780B2074908607047E7
:1036600006480349086070470548014908607047EB
:10367000003000400430004008300040AAAA00009A
:10368000CCCC000000B5002203881A001F4B9842E2
:1036900006D08023DB05984202D01D4B984205D10D
:1036A00013001F4A1A4013004A881A43194B9842C4
:1036B00005D013001B4A1A4013000A891A430280DE
:1036C0004A68C2620A880285104A904208D0124AAB
:1036D000904205D0114A904202D0134A904201D143
:1036E000897A01860121818200BDC162704700B5DF
:1036F000C9B2002904D0018801220A43028003E0F4
:1037000001880A4A0A40028000BD0000002C0140E6
:10371000000400400010004000400140004401400F
:103720008FFF0000FFFC000000480140FEFF00008A
:1037300000B5D2B2002A03D082891143818102E010
:1037400082898A43828100BD30B5020000200023B7
:103750000024158A0D402B00928911400C009BB269
:10376000002B04D0A4B2002C01D0012000E00020E6
:10377000C0B230BD89B2CA4302827047FAB585B083
:1037800007001600002B01D0002018603C0000E06C
:10379000641C207802F0B0F90028F9D120782D2897
:1037A00001D02B2803D169460870641C02E02B204D
:1037B00069460870002E41D4012E3FD0252E3DDAF7
:1037C000012E0ADB102E16D12078302813D1607814
:1037D0002021014378290ED10AE02078302801D039
:1037E0000A2608E0607820210143782902D11026BA
:1037F000A41C00E00826049400E0641C2078302813
:10380000FBD00025039400BF27A06946487008E05C
:10381000029569464978401AC0B2019075432D1847
:10382000641C207802F071F9010032001EA002F041
:1038300075F90028ECD10498A04205D1059800281C
:1038400000D00760002028E00398201A20A1895D9D
:10385000401A17D4012808DA0198281A05D3310034
:10386000FEF74DFD029988420CD002F063F9222147
:1038700001600698002802D0012006990860002502
:10388000ED4305E0684600782D2801D16842050027
:103890000598002800D00460280007B0F0BD80B56E
:1038A0000023FFF76BFF02BD30313233343536373A
:1038B00038396162636465666768696A6B6C6D6EEE
:1038C0006F707172737475767778797A0000000082
:1038D00000002115110E0D0C0B0B0A0A090909092C
:1038E000090808080808080807070707070707075F
:1038F000070707070700000070473100F1B5A4B0C3
:103900000E0014001D004A487844FF30253003C8DB
:1039100022AA03C2049600200D9001E00198241809
:1039200000206946488022AB0022D243210000A833
:10393000801C02F007F90190012805DA2078411E69
:103940008941C943C90F0191684640882528019ED5
:1039500000D1761E012E0EDB270039780498249AB8
:1039600090470490002800D1F4E20D98401C0D907F
:103970007F1C761EF1D168464088252807D100209B
:103980000790089009900A900B900C9008E0684608
:1039900040880028C2D10D98DEE2010001200843D2
:1039A000641C21782029F8D023290ED02B2904D09B
:1039B0002D2907D030290BD00DE00100022008434B
:1039C00080B2EDE701000420F9E701000820F6E7E6
:1039D00001001020F3E72A290FD1296829600A681D
:1039E000091D29600F92002A05D551420F9101004F
:1039F0000420084380B2641C12E000210F910AE009
:103A00000F9A7B4B9A4205D093009A185200511896
:103A100030390F91641C21780A00303A0A2AEFD31A
:103A200021782E2906D00021C9430E9121E000BF44
:103A300010560000641C21782A2907D129682960C2
:103A40000A68091D29600E92641C12E000210E9183
:103A50000AE00E9A664B9A4205D093009A185200DB
:103A6000511830390E91641C21780A00303A0A2A24
:103A7000EFD302A9088726783100044878440C3037
:103A800002F06EF8002803D0641C02E0BC55000070
:103A9000002602A83A30067002A83A30007868285A
:103AA00004D12178682901D1622005E06C2807D172
:103AB00020786C2804D1712002A93A310870641C66
:103AC00012A806902678641C300025382AD01C38AD
:103AD00000D1D6E0001F022800D8D2E0133800D170
:103AE000F6E0093800D1CCE0801E00D15EE1401E36
:103AF00000D132E1401E022800D8C2E0001F00D1F0
:103B00002BE1401F00D18DE0401E00D1E0E0401EBF
:103B10002FD0C01E0BD0801E00D1D9E0C01E00D116
:103B2000D6E066E101200790252012A99FE002A8B7
:103B30003A3000786C282868286016D00668001D86
:103B4000286005960E9F002F03D53000FFF7E2F99D
:103B500009E03A000021300001F0E0FF002801D028
:103B6000801B00E0380008904FE10268001D2860CB
:103B700038E1286828600268001D28600020C043E2
:103B80000021104002AA03C212A80590069B3C2601
:103B900002A803C8002904D1002802D10E9A002AE5
:103BA00014D0761E01960207120F3032D2B23A2A92
:103BB00000DB27329A5500090A071043090901D191
:103BC000002803D0059A9F19BA42EAD33C20801BF3
:103BD0000890991905910E9988420DDA081A0A90F1
:103BE00002A8008F0349014002A801870DE100BF30
:103BF000FFFFFF7FEFFF0000002900D405E102A9CD
:103C00003831097814220A40102A00D0FDE00F99BB
:103C1000079A891A0A9A891A0E1A012E00DAF4E014
:103C20000A96F2E002A83A300078622819D0682893
:103C300006D06A280CD06C281BD0712808D018E058
:103C4000286828600168001D28600D980880DCE065
:103C5000286828600268001D28600D98C11703C2FB
:103C6000D3E0286828600168001D28600D9808705E
:103C7000CBE0286828600168001D28600D98086066
:103C8000C3E02A68D21D072082432A6003CA2A6043
:103C900002AA03C2002903D5012007902D200CE0C1
:103CA00002A8008F810703D5012007902B2004E094
:103CB000C00704D501200790202012A9087012A87F
:103CC000079940180590310002A800F0AFFB9CE076
:103CD00002A83A3002786C2A0BD0712A01D06A2AE5
:103CE00007D12B68DB1D072083432B6003CB2B60A0
:103CF00005E0296829600868091D2960002102ABD8
:103D000003C3682A03D102A803C880B20BE0622A69
:103D100003D102A803C8C0B205E0742A01D07A2AF0
:103D200004D102A803C8002102AA03C202A83830A5
:103D30000078000731D502A803C8002901D1002866
:103D40002BD020203043782827D1302012A90870AA
:103D50000220079012A846701FE0290002A83A30FE
:103D6000007800F0FBF802AA03C202A8002904DAD6
:103D70000798411C07912D210DE0008F810704D584
:103D80000798411C07912B2105E0C00705D507982E
:103D9000411C0791202112AA115412A8079940181A
:103DA0000590310002A800F0A7FA2EE002A83A30F0
:103DB00000786C2809D001200790286828600168E5
:103DC000001D286012A801701FE0286828600168A3
:103DD000001D286068468180002001A94880C043FA
:103DE0000E9001AA02A9249800F0ECF800280CD546
:103DF000B0E001200790252012A90870002E04D001
:103E00000798411C079112A90E540F980799401A60
:103E10000A99401A0899401A0B99401A0999401AB0
:103E20000C99401A019002A838300078400711D44C
:103E3000202069460870002609E001236A4602A98D
:103E4000249800F0A4FE002800D083E0761C01989E
:103E50008642F2DB079F12AE0BE031780498249A79
:103E600090470490002875D00D98401C0D90761C4A
:103E70007F1E002FF1D13020694608700A9F00266E
:103E800008E001236A4602A9249800F080FE002879
:103E900060D1761CBE42F4DB089F059E0BE03178B2
:103EA0000498249A90470490002853D00D98401C01
:103EB0000D90761C7F1E002FF1D1302069460870CE
:103EC0000B9F002608E001236A4602A9249800F00F
:103ED0005EFE00283ED1761CBE42F4DB099F0598A9
:103EE000089946180BE031780498249A904704907A
:103EF00000282FD00D98401C0D90761C7F1E002F9F
:103F0000F1D13020694608700C9F002608E001239B
:103F10006A4602A9249800F03AFE00281AD1761CBD
:103F2000BE42F4DB02A838300078400700D4F7E442
:103F3000202069460870002600E0761C0198864221
:103F400000DBEDE401236A4602A9249800F01FFE7D
:103F50000028F2D00020C04325B0F0BD0A0062283E
:103F600022D0682819D06A2808D06C2823D071285C
:103F700004D074281FD07A2808D01CE01368DB1DF9
:103F800007208343136003CB1360704711681160EF
:103F90000868091D116000217047116811600868E8
:103FA000091D116000B20BE0116811600868091D5D
:103FB000116040B204E0116811600868091D1160C9
:103FC000C1177047F4B598B007000C00206B0028AB
:103FD00000D50E48029001F0CDFD616B08180490E9
:103FE00009487844223003C806AA03C23820205C5E
:103FF000400702D4049841280AD208A80390402020
:104000000490002613E000BF48500000FFFFFF7F30
:1040100001F0B6FD03900028F3D10020C04369E110
:104020001898801C189002980099401A02900298E3
:10403000012800DAD1E006AA1898018801A8401CDE
:1040400001F0FAFD0090002800D5DAE01898008809
:10405000002804D10098401E009000D5D1E00298BD
:104060000099884200DAB8E060690499009A8218E1
:10407000914200D3A0E066634142206A081AA16918
:10408000401A616A401AE169401AA16A401A059013
:104090003820205C400711D4202069460871002593
:1040A00009E0012301AA2100380000F070FD00287A
:1040B00000D0A6E06D1C05988542F2DB6669039D81
:1040C0000BE02978A068B847A060002800D198E0EC
:1040D000E06A401CE0626D1C761E002EF1D130209B
:1040E00069460871266A002509E0012301AA21001A
:1040F000380000F04CFD002800D082E06D1CB54275
:10410000F3DBA669E5680AE02978A068B847A060F3
:10411000002876D0E06A401CE0626D1C761E002EFE
:10412000F2D1302069460871666A002508E0012353
:1041300001AA2100380000F02AFD002861D16D1C81
:10414000B542F4DBE669E068A16945180AE0297820
:10415000A068B847A060002853D0E06A401CE06225
:104160006D1C761E002EF2D1302069460871A66AB9
:10417000002508E0012301AA2100380000F007FD16
:1041800000283ED16D1CB542F4DB3820205C40078E
:1041900010D5202069460871002508E0012301AAF6
:1041A0002100380000F0F3FC00282AD16D1C05988E
:1041B0008542F3DB00266661009A01A9491C039839
:1041C0006369C018FEF740F86069009940186061A3
:1041D00018980088002800D022E7606B6169401AB7
:1041E000216A401AA169401A616A401AE169401ABD
:1041F000A16A401A02903820205C400711D40025A3
:104200000CE00026F6436EE02021A068B847A060CD
:104210000028F6D0E06A401CE0626D1C02988542DE
:10422000F2DB6369039A2100380000F0B0FC00283B
:10423000E7D1206A0090002509E03021A068B84746
:10424000A0600028DDD0E06A401CE0626D1C009890
:104250008542F2DBA369E2682100380000F097FC98
:104260000028CED1606A0090002509E03021A068C6
:10427000B847A0600028C4D0E06A401CE0626D1C12
:1042800000988542F2DBE369E068A16942182100E9
:10429000380000F07CFC0028B3D1A06A0090002513
:1042A00009E03021A068B847A0600028A9D0E06AE2
:1042B000401CE0626D1C00988542F2DB3820205CD7
:1042C00040070ED5002509E02021A068B847A0606E
:1042D000002896D0E06A401CE0626D1C029885427E
:1042E000F2DB66616663039808A9884201D001F099
:1042F000AFFC300019B0F0BDF3B583B00069009099
:104300006846027C6F2A01D1082406E0202111436F
:10431000782901D00A2400E010243C25039803C822
:1043200006000F00642A01D0692A07D1002905DAA6
:1043300000200021801BB94106000F00002F12D180
:10434000002E10D10398006B00280CD1082C3CD112
:10435000039838300078000737D53B253020009986
:104360003B31087031E06D1E0195300039002200AC
:10437000E31701F0B1FC3032D2B23A2A03DB6846CF
:10438000007C513812180098425530003900220044
:10439000E31701F0A1FC06000F0001D1002E05D0AB
:1043A0000398C068009949198842DCD3082C0CD1C5
:1043B000039838300078000707D50098405D302812
:1043C00003D06D1E3020009948553C20401B0399B6
:1043D000886100994919039AD1600399096B884251
:1043E00009DA081A039908620398008F0E49014000
:1043F0000398018715E0002913D50399383109780E
:1044000014220A40102A0CD10399496B039A52696D
:10441000891A039A126A891A0D1A012D01DB039871
:10442000056205B0F0BD0000EFFF0000F3B591B0EC
:1044300006AD03C802AA03C212A8007820210143D6
:10444000009161290BD01198006B002801D506203E
:1044500003E004D1672902D1012011990863119862
:1044600041684800400DAA4A904225D1080310D166
:104470001198006800280CD103201199886112A8B6
:10448000007861381A2842D3234878448A30009053
:104490000BE003201199886112A8007861381A286E
:1044A00031D31E487844743000900322009911984B
:1044B000C068FDF7C9FEF1E1012817DA119801F093
:1044C00040FC012812DB002700260098612832D129
:1044D0001198C06830210170401C411C119AD160B4
:1044E00012A9097861291FD178211EE01199496824
:1044F000884A0A4088491143119A51608749461AEF
:104500000027FF43E1E7064878441430CCE705482C
:1045100078441030BBE700BF4C4B0000404B00001C
:10452000384B00003C4B0000582101701198406945
:10453000801C11994861002F03D1002468468780B0
:10454000A2E10098612800D09FE01198046B002C34
:1045500001D5212400E0641C24B2601C0090119855
:1045600003C804AA03C202A803C80022002301F062
:104570000AFC04A803C802D280221206514002AAF3
:1045800003C2301F6946888000270F7606AE761C6E
:1045900000E0F61D0098012830DB02A803C80022C5
:1045A000002301F009FC29D21C2102A801F01EFC05
:1045B00002A803C801F0A8FC05000098C01F0090E5
:1045C00001280ADB280001F0C9FC02000B0002A848
:1045D00003C801F040FD02AA03C2F61D072004E053
:1045E000761E2907090F31702D11012D01DB401EA8
:1045F000F6D5401ECDD4761E3770FAE706A8401CCB
:10460000311A06AD6D1CA14200DA0C0024B2200064
:1046100032D4884205DA06A909184978082900DB4E
:104620000F2706A9091801E0641E491E401E0A78DA
:10463000BA42F9D00F2F04D106A909184A78521CA2
:104640004A70002806D506AD641C019800B2001D12
:104650006946888024B2601E0ED429180A78303248
:10466000D2B23A2A03DB12AB1B783A3BD2180A705B
:10467000401E491E0028F1D51198006B002800D477
:1046800002E1601E11990863FEE002A803C800223F
:10469000002301F078FB06D202A803C8802212068C
:1046A000514002AA03C236B27D4870437D49FDF7EE
:1046B00023FE694688800720019909B2421A00202A
:1046C0007949012A20DB049202AA30CA00260F0091
:1046D0000498C00707D532003B002000290001F0F4
:1046E00031FD04000D0004984010049030003900A2
:1046F00032003B0001F026FD06000F000498002860
:10470000E6D102A830C028E054420026674F18E0E6
:10471000FF070000FFFF0F800000E03FFE030000E6
:10472000E00707D504A803C832003B0001F00AFDEA
:1047300006000F00641004A803C804AA0CCA01F004
:1047400001FD04AA03C2002CEAD102A803C832006A
:104750003B0001F0B9FD02AA03C20098662803D10C
:10476000019800B20A3000E006201199096B081880
:104770000490142801DB1320049030206946087649
:1047800006AC641C049801283ADB02A803C801F0B7
:10479000CDFB05000834042628000A21FDF7AFFDF3
:1047A0000F0028000A21FDF7AAFD0500641E30371E
:1047B00027700A21FDF7A3FD0F0028000A21FDF74D
:1047C0009EFD0500641E30372770761EE4D1083444
:1047D0000498083804900128D4DB02A803C801F02B
:1047E000A5FB01F0C5FB02000B0002A803C801F005
:1047F00032FC00222E4B01F0A5FC02AA03C2C4E742
:1048000006A8401C201A06AD6D1C6A4605E0401E35
:10481000019909B2491E91806D1C29783029F6D082
:104820000099662903D1019909B2491C04E0652960
:1048300001D1012100E00021119A126B541824B219
:10484000A04200DA040024B221001DD4814204DA1F
:10485000685C352801DB392000E030206A1800E070
:10486000641E521E491E13788342F9D0392802D1A2
:10487000685C401C6854002906D56D1E641C0198B4
:1048800000B2401C69468880019800B2009023B2B3
:104890002A0012A80178119800F00CF813B0F0BDAE
:1048A00097750000A0860100000024400000F03F42
:1048B00084D79741F3B589B015001C0001F07FFD46
:1048C0000190406A0078694608720998076B012CCC
:1048D00001DA0124ADA50AA8017820200843109E22
:1048E000662801D1761C18E0672800D09FE036B218
:1048F0000321C9438E4200DA9DE0BE4200DB9AE00C
:10490000761C099838300078000702D4BC4200DADF
:10491000270036B2BF1B00D500270998C068009059
:104920000998806900990918019136B2012E2CDA94
:10493000401C3021019A1170012F04DA0999383195
:104940000978090704D56946097A009A1154401C70
:10495000099988617042874200DA7E4236B270421D
:1049600009994862BF19A74200DA3C0024B20998AD
:10497000C461220029000098099B9B69C018FDF7BB
:1049800063FC381B09998862E1E0B44220DA220016
:1049900029000198FDF758FC099989690919099AB4
:1049A0009161301B099A5062012F04DA099838305E
:1049B0000078000709D56846007A099AD2685054F1
:1049C0000998C069401C0999C86109988762BEE0CE
:1049D000320029000198FDF737FC09988069801999
:1049E000A41B012F04DA099938310978090705D584
:1049F0006946097A099AD2681154401C099988615C
:104A000024B2A74200DA3C0024B22200A919099876
:104A1000C068099B9B69C018FDF716FC099880695E
:104A2000001909998861381B099948628FE061294A
:104A300014D1702015E0BC4205DA099938310978A3
:104A4000090700D427007F1E00D500270AA8007898
:104A5000672801D1652004E0452002E0412902D108
:104A600050200AA9087009988169481C099AD268DF
:104A700000922A78009B5A54691C012F07DA099A80
:104A800038321278120702D4099988611BE06A460D
:104A9000127A009B1A54401C099A9061012F12DB74
:104AA000641E24B2A74200DA3C0024B22200009B1C
:104AB0001818FDF7C9FB09988069001909998861E0
:104AC000381B099948620998C0680999896945188D
:104AD0000AA8007828706D1C36B2300003D42B2051
:104AE00028706D1C03E02D2129706D1C46420024A6
:104AF00005AF08E00A2203A801F07CFC0498387096
:104B0000039E641C7F1C31B20129F3DA022C08DAFF
:104B10000AA8007820210143652902D1302028709D
:104B20006D1C002C09D1302028706D1C07E0641E1C
:104B300005A8005D303028706D1C012CF7DA09984B
:104B4000C068099989694018281A0999C8610998A3
:104B50003830007814210140102914D10998406997
:104B60000999896940180999496A40180999C969D8
:104B700040180999896A40180999496B884202DAF4
:104B8000081A099908620BB0F0BD0000300079B531
:104B90000E0014001D00002005E0F06A401CF062C9
:104BA0000020641C6D1E002D08D02178B068009A8A
:104BB0009047B0600028F0D10020C04376BD70B4AB
:104BC0000A78002A08D114E05B1C1E78A6420AD09D
:104BD00001E0002C0CD0401C04789442F9D100284C
:104BE00006D003000D006D1C2C78002CECD100E0E9
:104BF000002070BC7047FEE700B52D480068000635
:104C000005D52C482C4908602C482B49086000BD6C
:104C1000274800688021014325480160704738B566
:104C200004000425B020000300F06AF80500EDB28E
:104C3000042D18D11E480068022101431C48016060
:104C40001F4804601A480068402101431848016069
:104C5000B020000300F054F8050015480068022158
:104C60008843134908602800C0B232BD70B5050002
:104C70000C000426B020000300F042F80600F6B253
:104C8000042E11D10A48006801210143084801603F
:104C90002C80B020000300F033F8060004480068C0
:104CA00001218843024908603000C0B270BD000095
:104CB000102002402301674504200240AB89EFCD5C
:104CC000142002400D490860704700B504200B49CC
:104CD0000968C90701D501200CE008480068C00632
:104CE00001D5022006E005480068400701D50320F1
:104CF00000E00420C0B200BD000000000C20024013
:104D000038B504000425FFF7E0FF050003E0FFF7D6
:104D1000DCFF0500641EEDB2012D01D1002CF6D19F
:104D2000002C00D105252800C0B232BD704730B438
:104D3000020002E0A34205D1521C1378002B05D0DB
:104D40000D0000E06D1C2C78002CF3D1101A30BC43
:104D5000704730B4020004E05B1C1C78002C05D1C5
:104D6000521C1578002D03D00B00F6E7A542F3D1B5
:104D7000101A30BC7047FEE780B5030008000169D7
:104D8000491E0161C268521C0029C26004D401227C
:104D900000210068984702BD0020C04302BD10B545
:104DA000030008001100C268521E0024E443A1421F
:104DB000C26002D000220068984710BDF0B58DB0E7
:104DC00007000C000025ED4375A003C80AAE03C61A
:104DD0000194186802900020049003920AE0002DCC
:104DE00000D5002501A8807F002800D06D1C039805
:104DF000401C03900020694608800AAB0022D24381
:104E00000399684600F09EFE0990012806DA03988F
:104E10000078411E8941C943C90F0991684600883D
:104E200001F0F8FA00F068FE00282AD00498401C2F
:104E30000490012200210198B847040000F05CFEB4
:104E40000028F3D10498401E0021C9438C420490ED
:104E500012D0002221000198B84703980999401800
:104E6000039069460988252929D101782A292ED15C
:104E7000411C039100782BE0002D00D48BE0084604
:104E80008AE0684600882528099C00D1641E039E9C
:104E900000E0761C641EE0D40498401C04900122BB
:104EA00000210198B84731788842F2D0020001A968
:104EB0003800FFF774FF002D6DDA00256BE06846BF
:104EC0000088002896D1002D65DA002563E00020D7
:104ED00001A90877002006900BE006992F4A91421D
:104EE00005D08A0051184900081830380690641C13
:104EF0000394039C2078010030390A29EDD3002067
:104F0000C0430790217800BF27A000F029FE0028A9
:104F100002D0601C0390207801A9487701A8417F46
:104F2000682905D103980278682A01D1622106E038
:104F30006C2908D1039801786C2904D1712101AA48
:104F40005177401C03900398017800BF18A000F02F
:104F500007FE002816D10498401C0490012200216D
:104F60000198B847040000F0C7FD0028F3D1049869
:104F7000401E0021C9438C42049003D0002221002E
:104F80000198B84701A9380000F016F8012800DBA5
:104F900025E7002D00D428000DB0F0BDFFFFFF7FF6
:104FA0000000000000000000686A6C747A4C000089
:104FB00063436E5B00000000F8B505000C0000279D
:104FC000A777A068007825385BD01C3823D0001F55
:104FD000022820D913381AD0C01E68D0801F1AD0DA
:104FE000801E12D0401E12D0401E022813D9001F6E
:104FF0000DD0401F13D0401E012808D9001F3ED0FD
:10500000801E04D0C01E02D057E0002251E02800CC
:1050100000F0C8F9F2BD280000F0CEFAF2BD207F02
:10502000002838D1607F622808D0682817D06A2805
:105030000CD06C281BD0712808D018E06068606024
:105040000168001D6060E068087024E060686060CE
:105050000268001D6060E068C11703C21BE0606861
:1050600060600168001D6060E068088013E06068AF
:1050700060600168001D6060E06808600BE001226C
:1050800017E0E068401CE060012200212068A8478A
:105090000600252E01D10120F2BD3200210028009A
:1050A000FFF77DFE0020C043864207D005E00022C6
:1050B000D243280000F004F8F2BD0020F2BD000049
:1050C000F5B58BB00E00002008900025707F6C288D
:1050D00002D10120069000E0069500BFAFA003C8F2
:1050E00009AA03C20C98002829D5B068401CB060FA
:1050F00001785E2904D1411CB1600078079000E07E
:105100000795B46820785D2801D1601C00E020007C
:105110005D2100F025FD002800D12FE1011B019148
:105120000294B0600198032809DB821E2D210298A9
:10513000401C00F0F3FC002801D0012008907069A9
:10514000012805DA0C98002801D0934800E00120DE
:105150003061307F00280CD106980028706870609C
:10516000016803D0001D7060039102E0001D7060B3
:105170000491002409E0049807700498401C0490EE
:10518000B577B069401EB06102253069401E3061BC
:10519000F06822D4401CF0600122002130680B9B93
:1051A000984707000020C04387421BD13A003100D6
:1051B0000B98FFF7F4FD0C99002902D0022D00D1C5
:1051C000D6E0022D00D1E4E0E80700D59BE0002006
:1051D000C043874200D0D1E095E0401CF06000273A
:1051E000FF43E3E70C98012803DB380000F084FC60
:1051F00013E0002853D50898002811D107980028FB
:10520000019A06D13900029800F088FC0028CDD020
:1052100045E03900029800F081FC0028C6D13EE04C
:10522000F8B20799002901991ED10590029806E06D
:10523000934202DB82789A4231DAC01CC91E0329EC
:1052400009D3027843782D2B059BF1D09A4226D0C2
:10525000401C491EF3E70029A8D00278059B9A421A
:105260001DD0401C491EF6E7029A06E0984202DB78
:10527000937883429ADAD21CC91E03290DD353783E
:105280002D2B1378F2D0834290D0521C491EF4E7A4
:10529000137883428AD0521C491E0029F8D10698FF
:1052A000002809D1307F002800D06DE70125B069C2
:1052B000002800D05FE779E768460755641C09AB12
:1052C00022006946801C00F03DFC07001ED0012131
:1052D000C943401A02D0401E06D01FE02800012515
:1052E0000543002C00D150E7012C0ADB641E684600
:1052F000015DF068401EF060002230680B9B98470B
:10530000F2E72D063AD10020C04343E068464088CA
:10531000002803D16846FDF7FDFD471C0220C0436D
:1053200087420BD1002709E0641E6846015DF068E2
:10533000401EF060002230680B9B9847A742F3DBC9
:10534000307F00280ED1B0690125002800D11CE76C
:1053500069464988039A11800399891C0391B5779E
:10536000401EB0617069401E7061022500240CE788
:10537000307F00280DD1B069002801D1002009E05C
:105380000698002803D000200399088001E00499C2
:10539000087001200DB0F0BDFFFFFF7F000000008E
:1053A00000000000F1B58AB00C006069012800DA45
:1053B0008048206101AF0A98FFF7DEFC05002B2D25
:1053C00001D02D2D07D1684605717F1C21000A9858
:1053D000FFF7D2FC05000026A0680078642801D001
:1053E000752801D10A200EE0692801D100960BE052
:1053F0006F2801D1082006E0702803D02021014346
:10540000782901D110200090302D1DD101262100D6
:105410000A98FFF7B1FC050020210143C9B27829A1
:1054200000980CD1002801D010281AD1102000902B
:1054300021000A98FFF7A0FC0500002611E00028D3
:105440000FD1082000900CE00098002824D10A20F9
:10545000009021E00122002120680A9B9847050066
:105460000126302D0BD12169491E2161E068401CC5
:105470000029E060EED50025ED43012601E0002E75
:105480000AD0302038707F1C06E0012200212068FD
:105490000A9B9847050001260020C043854225D07D
:1054A0000098E9B20A00612A01DB573909E0412A74
:1054B00001DB373905E0303A0A2A01D2303900E001
:1054C000FF21C9B2C0B2814210D201A81F30874269
:1054D00001D23D707F1C2169491E2161E068401C9A
:1054E0000029E060D1D50025ED4301262A002100E6
:1054F0000A98FFF754FC002E08D101A8874203D177
:105500000020C043854252D0002050E00020387077
:10551000207F00284AD1A0680078642801D069283B
:1055200007D1009A002101A800F0EAFF0122A2772A
:105530000AE0009A002101A801F0A2F80122A27756
:10554000A2681278702A2BD0627F622A0CD0682A57
:1055500018D06A2A0FD06C2A1BD0712A0BD0742A5B
:1055600017D07A2A15D01BE0626862601368121D9A
:10557000626018701AE0626862601368121D6260EF
:1055800003C313E0626862601368121D62601880D2
:105590000CE0626862601368121D6260186005E0CA
:1055A000626862601368121D6260186001200BB0AF
:1055B000F0BD0000FFFFFF7FF1B594B00F007869E8
:1055C000012800DA1348386105AC1498FFF7D4FBC2
:1055D0000500002001902B2D01D02D2D07D168460C
:1055E0000575641C39001498FFF7C6FB05000A20F6
:1055F000694608740026302D1CD139001498FFF735
:10560000BBFB050020210143C9B2782904D0012643
:10561000FCE000BFFFFFFF7F30202070782060702B
:10562000A41C39001498FFF7A7FB05001020694659
:105630000874EBE020202843C0B26E285ED10E74BF
:105640006E202070641C39001498FFF795FB05004C
:1056500020210143C9B2612900D009E261202070F4
:10566000641C39001498FFF787FB050020210143D3
:10567000C9B26E2900D0FBE139001498FFF77CFB1A
:105680000200282A19D039001498FFF788FB6E20F1
:105690002070641C00202070387F002800D01FE29A
:1056A0006846007C0B2800DBF3E1019A002105A885
:1056B00001F0B4F802AA03C2F7E13869401E38616C
:1056C000F968491C0028F96005D4012200213868D6
:1056D000149B984701E00020C0430090009D28469D
:1056E00000F001FA0028E8D1009830380A28E4D305
:1056F0005F2DE2D0292D00D0BAE1C8E7692800D09B
:1057000097E00E7469202070641C39001498FFF72C
:1057100033FB050020210143C9B26E2900D0A7E167
:105720006E202070641C39001498FFF725FB0500DB
:1057300020210143C9B2662900D099E139001498AB
:10574000FFF71AFB20220243D2B2692A06D00200D8
:1057500039001498FFF723FB662099E73900149865
:10576000FFF70AFB050020210143C9B26E2900D0D2
:105770007EE13869401E3861F968491C0028F960EB
:1057800006D4012200213868149B9847050001E0E7
:105790000025ED4320212943C9B2692900D067E1E2
:1057A0003869401E3861F968491C0028F96006D440
:1057B000012200213868149B9847050001E000256C
:1057C000ED4320212943C9B2742900D050E1386942
:1057D000401E3861F968491C0028F96006D401228E
:1057E00000213868149B9847050001E00025ED432F
:1057F00020212943C9B2792900D039E1662047E741
:10580000012200213868149B98470500302D0BD1E8
:105810003969491E3961F868401C01260029F86081
:10582000EED50025ED4301E0002E02D0302020709F
:10583000641C0020009005E0012200213868149BC0
:10584000984705000020C04385422BD0E8B20100F4
:10585000612901DB573809E0412901DB373805E0D0
:1058600030390A2901D2303800E0FF206946097C2E
:10587000C0B2884216D20098242805DA2570641C2C
:105880000098401C009002E00198401C019039698A
:10589000491E3961F868401C01260029F860CBD503
:1058A0000025ED4300F08BFD406A0078854212D15F
:1058B0002570641C3869401E3861F968491C00284D
:1058C000F96006D4012200213868149B984705002E
:1058D00001E00025ED430098002826D105E00122D3
:1058E00000213868149B98470500302D0DD1019890
:1058F000401E01903969491E3961F868401C012633
:105900000029F860EBD50025ED43019800280CD55F
:1059100030202070641C0198401C019005E0012299
:1059200000213868149B984705000020C043854239
:1059300028D0E8B20100612901DB573809E041298C
:1059400001DB373805E030390A2901D2303800E070
:10595000FF206946097CC0B2884213D200982428EF
:1059600004DA2570641C0098401C00903969491EB7
:105970003961F868401C01260029F860CFD5002560
:10598000ED4301E0002E73D06846007C0A2804D164
:1059900020222A43D2B2652A06D00A2868D02021C4
:1059A0002943C9B2702963D12570641C3869401E2F
:1059B000386112D4F868401CF86001220021386870
:1059C000149B984705002B2D01D02D2D14D1257047
:1059D000641C3869401E386105D5F868401CF860C1
:1059E0000025ED4308E0F868401CF8600122002122
:1059F0003868149B98470500002605E00122002125
:105A00003868149B98470500302D0BD13969491E21
:105A10003961F868401C01260029F860EED50025A0
:105A2000ED4301E0002E02D030202070641C0020E5
:105A3000009002E00025ED430126280030380A28B6
:105A400016D20098082804DA2570641C0098401CBF
:105A500000903969491E3961F868401C0029F860D6
:105A6000E8D4012200213868149B98470500E3E739
:105A70002A0039001498FFF792F9002E00D009E6A9
:105A800005A8844203D10020C043854229D00020CC
:105A900027E00022002105A800F0C0FE02AA03C2F0
:105AA0000198810002A800F0A1F90120B877787F61
:105AB0006C2802D17868786003E04C2878687860B8
:105AC00006D10268001D786002A803C803C207E07F
:105AD0000468001D786002A803C800F0A4FE2060DE
