:020000040800F2
:100000008810002029A700081D6800081F68000844
:1000100000000000000000000000000000000000E0
:10002000000000000000000000000000236800083D
:100030000000000000000000F75E0008C56C00082A
:10004000AB6500089F660008D76700087FA5000819
:100050008BA5000819A900081BA90008B99F000872
:100060001DA90008156A00081FA9000821A9000899
:1000700023A9000825A9000827A9000829A9000824
:10008000F98B00082BA90008000000002DA900082A
:100090002FA9000831A9000833A9000835A90008D4
:1000A00037A9000839A900083BA90008F58F000806
:1000B000E9920008000000003DA9000800000000CF
:1000C000F0B540B2002821D52F4B40B20207120FE5
:1000D000083A9208042462432B4C40B205072D0FC6
:1000E000083DAD08042675436459FF258607B60F01
:1000F00008277E43B540AC438901C9B28007800F11
:10010000082568438140214399501BE0754A40B25D
:1001100003009B0804246343D258FF238407A40FE1
:1001200008256C43A3409A438901C9B283079B0FFA
:1001300008246343994011436A4A40B2800804236B
:1001400058431150F0BD00B5BFF34F8F6648674963
:100150000860BFF34F8FFEE780B5411E8022520436
:10016000914201D301200EE0401E61490860032145
:100170000020C043FFF7A4FF00205E49086007206D
:100180005D490860002002BD1CED00E070B5002054
:100190005A49087000205A490870002059490870CF
:1001A000002059490870002058490870012058491A
:1001B0000870002057490870002057490870002037
:1001C000564908700020564908800020554908709B
:1001D00000205549087000205449087000205449F7
:1001E000087000205349087000205349087000200F
:1001F0005249087000205249088000205149087077
:1002000000205149086000205049088000205049D2
:10021000087000204F49087000204F4908700020E6
:100220004E49087000204E49087000204D49087062
:100230009621890000224C4C200005F073FA2522FB
:100240004A494B4E300005F097FA11210022494DE2
:10025000280005F067FA0020474908700020474948
:100260000870002046490880464847490860002039
:100270004649087000204649088001204549087019
:100280000120454908700020444908700020444975
:1002900008700020434908700A2043490870012073
:1002A00042490870012042490870082041490870FD
:1002B000002041490870002040490870052040494D
:1002C00008703C480078E121090148433D49086035
:1002D00000203D4908701E203C49087064203C49BC
:1002E000088070BD00E400E00400FA050CED00E0B9
:1002F00014E000E018E000E010E000E0340C002022
:10030000350C0020360C0020370C0020380C002063
:10031000390C00203A0C00204B0C00203B0C002034
:10032000080C00203C0C00203D0C00203F0C00205D
:10033000400C0020410C0020420C0020430C002007
:100340000E0C0020440C0020F00B00201C0C0020A0
:10035000600C0020450C0020460C0020470C0020BB
:10036000480C0020490C0020240400208CA4000824
:100370007C0B0020C40B00204A0C00204C0C0020F9
:10038000100C0020FC0A0020F80B00204F0C00206D
:10039000120C0020550C002042000020560C0020BA
:1003A0006D0C00206E0C0020650C0020660C0020F7
:1003B000670C0020680C0020690C00206A0C0020EB
:1003C0006B0C0020FC0B00206C0C00206F0C00203C
:1003D000200C002000B5002106E0521C92B28023C0
:1003E0005B019A42F9DB491C89B280B2814201D299
:1003F0000022F3E700BD000010B584B0FFF7C6FE91
:1004000000F074FC00F024FE00F0A4FC8948FFF723
:10041000A3FE00F0BDFED14800884004400CCF4947
:10042000088085480088854901408348018000F0A4
:100430004DFD00F06BFE00F055FE00F09DFD01212A
:10044000052000F0D7FEC5480088802149010143FE
:10045000C24801800A20D949087005F0D9F800F097
:100460007FFE14227649774805F00BFA0020744984
:100470000875734800783038512805D31522724921
:100480006F4C200005F078F9042201A96F4805F0AF
:10049000F8F9684680886E4908806D4800886D4983
:1004A000884203DA6A48008800280DD16A48694604
:1004B0008880694801A94880674865490880042206
:1004C00001A9624805F0B0F904226946634805F0C5
:1004D000D8F968460078624908700121062000F0CA
:1004E00089FEFA205F4908805D48007800286BD0BB
:1004F000042269465C4805F0C4F968460078002883
:100500004FD0AF20800004F067FF584805F062F933
:10051000642004F061FF564805F05CF9642004F0A3
:100520005BFF544805F056F9E120800004F054FFC9
:10053000012051490870642004F04EFF012004F0AE
:10054000C9F800204D490870C8204D4908804B4823
:100550000078002803D14A4800880028F7D10020FD
:1005600047490880454800780128E4D100204349E4
:1005700008703E20D84908800020694648706846C7
:1005800040786946087002226946374805F04CF900
:1005900002226946314805F047F9002030490870C9
:1005A00012E0254800881021014323480180C8201B
:1005B000800004F011FFC94805F00CF9142004F084
:1005C0000BFF00202C490870F8229200C449C5484E
:1005D00005F057F90021002000E0401CC0B21028AF
:1005E00009DABF4AC0B23E234343D25C002AF4D1A9
:1005F0000121BD4A107089B2002902D10F20BA49E9
:1006000008700020B949087015480078002803D107
:1006100001201949087002E00020E3490870002019
:10062000164908703E20AC4908806420DF490880E4
:100630002BE000BF0053070014040048EFFF000048
:100640000000002000F00008B8A5000800FC000829
:100650001A0C0020110E0000DC05000000F8000854
:100660004E0C0020100C002000EC0008BCA3000879
:1006700068A300080CA400084D0C0020470C0020C3
:10068000120C0020052004F025F8C9480078012844
:1006900000D074E10020494908700020C449087066
:1006A0002E4800888021490101432C480180012007
:1006B000D34908700020D34908800120D24908702E
:1006C0003220D24908703020D0494870D048007894
:1006D0000A2105F001F93030CC498870CC48007807
:1006E0000A2105F0F9F83031C848C170C9480078CE
:1006F0000A2105F0F1F83030C4490871C548007886
:100700000A2105F0E9F83031C0484171C24800784B
:100710000A2105F0E1F83030BC498871BE48007804
:100720000A2105F0D9F83031B848C171D4480078B1
:100730000A2105F0D1F83030D249D34A12783C234F
:100740005A4389180872CF48CF4909783C2251434F
:100750004018007AAD490872C94801E01400004809
:1007600000780A2105F0B8F83031C648C64A127838
:100770003C235A4380184172C248C34909783C223D
:1007800051434018407AA1494872C04800780A2174
:1007900005F0A2F83030BB49BB4A12783C235A43DB
:1007A00089188872B748B84909783C2251434018E3
:1007B000807A96498872B54802E000BF510C00204B
:1007C00000780A2105F088F83031AE48AE4A127838
:1007D0003C235A438018C172AA48AB4909783C228D
:1007E00051434018C07A8949C872A94800780A2143
:1007F00005F072F83030A349A34A12783C235A43DB
:10080000891808739F48A04909783C225143401831
:10081000007B7E4908739E4800780A2105F05CF849
:1008200030319848984A12783C235A4380184173D3
:100830009448954909783C2251434018407B7349BC
:10084000487300208F49904A12783C235A438918F4
:1008500088738C488C4909783C2251434018807B2E
:100860006A498873C3480068642105F038F8FA21A2
:10087000C9004843E121090105F031F88149824A64
:1008800012783C235A43891848877F480078401CD7
:100890007D4908707C4800780B2802DB09207A49E2
:1008A000087004F037FDB4480088B4490140B248EC
:1008B00001800020B24908701F20B2494870002111
:1008C000642000F097FC38480078002810D10520FB
:1008D00003F000FF53E000BF140C002000A5000847
:1008E0004400002000F40008610C00204F0C0020A0
:1008F0002D480078012842D10020A3490870032028
:1009000003F0E8FE0020A049087032209F490880CB
:100910009D480078002803D19C4800880028F7D122
:1009200000209A49088098480078012806D10020C4
:10093000954908703E209649088020E000209249A1
:100940000870032003F0C6FE00208F490870322093
:100950008E4908808C480078002803D18B48008895
:100960000028F7D1002089490880874800780128AD
:1009700005D10020844908703E208549088000F098
:1009800023FD84480078012866D10120B24908700F
:100990000548007800280DD100207E490870052008
:1009A00003F098FE58E000BF4D0C0020200C002002
:1009B000700C00207848007801284DD1002075493E
:1009C0000870032003F086FE00206F490870322073
:1009D0006E4908806C480078002803D16B48008875
:1009E0000028F7D10020694908806748007801286D
:1009F00014D10020644908703E20654908802BE02E
:100A0000500C0020160C0020520C00201800002072
:100A1000650C0020660C0020670C002000205A495D
:100A20000870032003F056FE3220584908805648CB
:100A30000078002803D1554800880028F7D100200D
:100A40005249088050480078012805D100204E49BD
:100A500008703E204E490880B748007801282ED102
:100A6000A1480088322815DA4B480078002811D1B7
:100A70000121022000F0BEFB01204749087018E068
:100A8000680C002024040020620C0020690C002067
:100A90006A0C0020944800883D280ADB3E48007814
:100AA000012806D10021022000F0A4FB00203A49D1
:100AB0000870A2480088002801D102F075FA344875
:100AC000008800280AD19C480078012806D100F04F
:100AD0001BF99B480088401C99490880964800787B
:100AE000022801DBFFF72FFB02F052FB00F0D0FCE5
:100AF00001F024FB9348007893490978884271D02B
:100B000090480078904908700020904908808D48EE
:100B10000078002866D18E480078012862D1002034
:100B20008B49087084480078002803D1052003F021
:100B3000D1FD51E0032003F0CDFD002012490870E3
:100B400032201249088010480078002803D10F484D
:100B500000880028F7D100200C4908800A48007856
:100B600001281BD10020084908703E200849088050
:100B700032E000BFF40B002014000048FFF7000033
:100B8000350C002038000020470C0020120C0020FB
:100B9000140C00204C0C0020710C00200020C449D3
:100BA0000870032003F096FD3220C2490880C04837
:100BB0000078002803D1BF4800880028F7D1002022
:100BC000BC490880BA480078012805D10020B849FE
:100BD00008703E20B84908802522B849B84C20004A
:100BE00004F0CAFD1C480078012820D100201A49D1
:100BF0000870042003F06EFD0020AD49087032201B
:100C0000AC490880AA480078002803D1A948008888
:100C10000028F7D10020A7490880A54800780128BE
:100C200005D10020A24908703E20A3490880A548AC
:100C30000078012800D028E50020A2490870A248C9
:100C40000078002800D020E5C9480078002800D0AE
:100C50001BE5394802E000BF5D0C00200078002849
:100C600000D10FE5032003F035FD00209049087006
:100C70003220904908808E480078002803D18D48A2
:100C800000880028F7D100208A4908808848007829
:100C9000012806D10020864908703E208649088038
:100CA000F3E4002082490870032003F013FD0020C4
:100CB0007F49087032207F4908807D4800780028ED
:100CC00003D17C4800880028F7D1002079490880AA
:100CD00077480078012800D0D7E4002074490870D4
:100CE0003E2075490880D0E44000002080B50121F5
:100CF000A04804F0F1FE0121D24804F0FDFE0121DC
:100D0000D24804F009FF01BD80B5CF48008880219A
:100D100009020143CC4801800A2004F05DFBCA4867
:100D200000884004400CC84908803E206249088081
:100D3000642004F051FB01BD4D0C0020100C00207C
:100D40001E0C0020450C0020460C0020220C002028
:100D5000520C002000B583B00320009003206946A8
:100D6000087100206946C87169469020C00504F0EA
:100D70001DFF012209219020C00504F075FF01220A
:100D80000A219020C00504F06FFFC020C000009031
:100D900002206946087103206946487100206946AF
:100DA000887101206946C87169469020C00504F029
:100DB000FDFE012202219020C00504F055FF012212
:100DC00003219020C00504F04FFF0C20009002206A
:100DD0006946087100206946887101206946C8711A
:100DE00003206946487169469020C00504F0DEFE84
:100DF000982000020090032069464871012069464E
:100E0000087100206946887101206946C8716946E9
:100E10009020C00504F0CAFEC0204001B9490880F6
:100E200080200002B849086018200090032069461D
:100E300048710120694608710020694688710120C7
:100E40006946C8716946C44804F0B0FE1020C04924
:100E500008800820BF4908602020009003206946D0
:100E6000487100206946087101206946C8716946C9
:100E7000B94804F09BFE01220621B74804F0F4FEB5
:100E800001220721B44804F0EFFEC02000900220A8
:100E90006946087100206946887100206946C8715A
:100EA0000320694648716946AB4804F07FFE07BDE0
:100EB000470C0020120C0020140C00208CA4000809
:100EC0007C0B00206C0C0020420C002000B58BB085
:100ED000E1204002049000200590002006900020B0
:100EE0000790002009900C20089004A99B4804F06A
:100EF00005FF0020009000200190802080000290DB
:100F0000002003906946954804F055FF012193485D
:100F100004F064FF0122B149904804F081FFE12010
:100F200040020490002005900020069000200790C9
:100F3000002009900C20089004A9A94804F0DEFEC6
:100F4000002000900020019080208000029000206E
:100F500003906946A24804F02EFF0121A04804F046
:100F60003DFF01229D499E4804F05AFF0BB000BD91
:100F7000430C00201500060000B591B0994804F01C
:100F8000BBFF9948009099480190002002904020B2
:100F9000039000200490802005908020400006905F
:100FA0008020C000079020200890802080010990B8
:100FB00000200A9069468B4804F0E0FF8C4805F059
:100FC0003BF80BA805F05FF800200B9000200BA960
:100FD000087100200D9000200F90002010900BA9A8
:100FE000834805F038F80121814805F075F807229B
:100FF00003217F4805F062F801217D4805F09CF847
:101000007B4805F078F80121794805F049F801217D
:10101000774805F0A7F80028F9D00221744805F0B8
:1010200099F8734805F083F8012202216D4804F015
:10103000D4FF022004F0EAFF01216A4804F0BFFF58
:1010400011B000BD01424000140000480208020037
:1010500080B51B2069460870012069464870012050
:1010600069468870684605F099F81C206946087042
:10107000002069464870012069468870684605F07E
:101080008DF80720694608700120694648700120E4
:1010900069468870684605F081F810206946087036
:1010A000002069464870012069468870684605F04E
:1010B00075F8FF20694608700120694648700120D4
:1010C00069468870684605F069F809206946087025
:1010D000012069464870012069468870684605F01D
:1010E0005DF801BD80B5002005F096F8AA4805F02E
:1010F0008FF8FA20000105F093F805F095F805F057
:1011000097F801BD2800004818000048E0B501210B
:10111000022004F001FDA1480190A1486946088021
:1011200000206946088100206946488069469D483C
:1011300005F08CF899499B4805F0BBF80122012184
:10114000984805F0D9F80121964805F0B4F807BD94
:1011500028040048180400480004004800380140F2
:1011600000B583B00521012005F0ECF8202005F042
:101170006AF9202000900020694608710C20694619
:101180004871012069468871684605F00BF907BD72
:1011900000B587B0102004F0F9FB01218020800306
:1011A00004F0BAFC804805F05DF9002003900020AF
:1011B0000690002001900020029000200490002062
:1011C00005907A4800906946774805F065F9012155
:1011D000754805F095F907B000BD00000501050050
:1011E0000044004008000240402401407C0A0020E6
:1011F0000024014010B56E4A1278002A00D0B9E0F0
:1012000001226B4B1A70C0B201284BD0022854D077
:1012100003285DD0042862D0052867D006286CD04A
:101220003C2808D0462811D050281AD05A2823D05C
:1012300064282CD068E0C9B2002903D0DF205D49C2
:10124000887002E01F205B4988705DE0C9B2002908
:1012500003D0DF205749C87002E01F205549C870ED
:1012600052E0C9B2002903D0DF205249087002E0E1
:101270001F205049087047E0C9B2002903D0DF2081
:101280004C49487102E01F204A4948713CE0C9B20C
:10129000002903D0DF204749087102E01F2045499B
:1012A000087131E0C9B2002903D0DF2041494870FC
:1012B00002E01F203F49487026E0C9B2002903D050
:1012C000DF203C49887102E01F203A4988711BE009
:1012D0000821DF22374C200004F024FA14E0082112
:1012E0001F22344C200004F01DFA0DE00621DF22FD
:1012F000304C200004F016FA06E006211F222D4C87
:10130000200004F00FFAFFE72B48006820218843F3
:101310002949086029480068202188432749086036
:101320001420FFF757F82021254804F090FC0128ED
:10133000F9D014241F4B08220C21C82004F006F910
:10134000002807D00121184805F0E8F8641EE4B22F
:10135000002CEFD118480068202101431648016095
:1013600016480068202101431448016000201049FC
:10137000087000E0002410BD00B512490978122958
:1013800007DAC0B2632802DA801EC0B202E0602031
:1013900000E0C0B200BD000055550000BF5D000078
:1013A000CF0700000004004000540040270C9510B7
:1013B0005C0C0020380000200004014004040140BF
:1013C000000400483D0C002080B5264800782649DE
:1013D0000978884203D125480078012841D1214865
:1013E0000078214908701F480078002839D120482A
:1013F0000078002805D11F4800881F4901401D487A
:1014000001801A480078012809D100201749087086
:10141000E120400003F0E0FF01201849087000209F
:101420001749087017480078002803D1052003F0F9
:1014300051F916E0032003F04DF90020124908701D
:1014400032201249088010480078002803D10F4844
:1014500000880028F7D100200C49088000200A49A4
:10146000087001BD480C0020490C0020550C0020DC
:101470007C0C002014000048FFEF00005D0C0020F1
:101480003D0C00204D0C0020470C0020120C0020C9
:1014900010B5D8480078012801D000F027FED648C2
:1014A0000078012801D000F021FED44800780128FE
:1014B00001D000F01BFED2480078012801D000F0D6
:1014C00015FE0020CE4908700020CA490870CD489A
:1014D0000078012800D005E20120DB490870DB48D4
:1014E0000078DB4909781539DA4A12788918884278
:1014F00003DBD748007864280AD1D74800888021C8
:1015000009010143D44801800120D449087035E025
:10151000D3480078401CD2490870D14800781F2871
:1015200002DB0020CE490870CA48007803214843F6
:10153000022104F0D1F9CA49097881420ADAC64881
:101540000088802109010143C34801800120C3496B
:10155000087013E0BF48007803214843022104F0DB
:10156000BBF9BF490978814208DBBB480088DB49E9
:101570000140B94801800020B8490870D848008867
:101580001F2803DBB2480078B0490870B0480078E3
:10159000FFF7F2FEAD490978814201D200F07BFDF0
:1015A000002098490870AC480088CC490140AA48FE
:1015B00001800020A94908700020D9490870D94845
:1015C0000078012805D1E1204001D749086000F0EA
:1015D00062FD9F4800789D4908709F4800888021DF
:1015E000490101439C4801800120D0490870002036
:1015F000CF490880CF480078002802D1042003F0AA
:1016000069F80020904908700020CB4908803220FA
:10161000E14908703020E0494870E04800780A212C
:1016200004F05AF93030DC498870DC4800780A212F
:1016300004F052F93031D848C170D94800780A21F5
:1016400004F04AF93030D4490871D54800780A21AD
:1016500004F042F93031D0484171D24800780A2173
:1016600004F03AF93030CC498871CE4800780A212C
:1016700004F032F93031C848C171E14800780A21DC
:1016800004F02AF93030DF49DF4A12783C235A430C
:1016900089180872DB48DC4909783C22514340181C
:1016A000007ABD490872D64800780A2104F014F97E
:1016B0003031D448D44A12783C235A4380184172BE
:1016C000D048D14909783C2251434018407AB24968
:1016D0004872CE4800780A2104F0FEF83030C9493B
:1016E000C94A12783C235A4389188872C548C649AA
:1016F00009783C2251434018807AA7498872C34830
:1017000000780A2104F0E8F83031BE48BE4A127869
:101710003C235A438018C172BA48BB4909783C221D
:1017200051434018C07A9C49C872CB4800780A21BE
:1017300004F0D2F83030B349B34A12783C235A430C
:1017400089180873AF48B04909783C2251434018C2
:10175000007B91490873C04800780A2104F0BCF866
:101760003031A848A84A12783C235A438018417364
:10177000A448A54909783C2251434018407B86493A
:10178000487300209F49A04A12783C235A43891885
:1017900088739C489C4909783C2251434018807BBF
:1017A0007D498873AD480068642104F098F8FA21F7
:1017B000C9004843E121090104F091F89149924A96
:1017C00012783C235A43891848878F480078401C78
:1017D0008D4908708C4800780B2802DB09208A4963
:1017E00008705448007800280ED1052002F072FFDE
:1017F00056E000BF380C0020480C0020430C0020AD
:10180000810C0020340C0020032002F063FF002034
:101810009349087032209349088091480078002845
:1018200003D1904800880028F7D100208D49088016
:101830008B480078012815D10020894908703E2086
:10184000894908802CE000BF450C00203C0C00209A
:10185000360C00203D0C002014000048530C0020E2
:10186000590C002000207E490870032002F032FF4E
:1018700032207C4908807A480078002803D17948D2
:1018800000880028F7D10020764908807448007845
:10189000012805D10020724908703E207249088055
:1018A0000020724908700121D6480078FFF7A2FC99
:1018B0000A206F4908800020D249087000206D4935
:1018C000087000206C490870002005490880252216
:1018D0006A496B4C200003F04FFFDCE3FFF7000088
:1018E000240C002067480078012827D10D48007893
:1018F000012823D104206449087064480A4908601B
:10190000C048007862490978884200D2C3E3BD48E4
:1019100000785F49087000205A490870BBE300BF97
:10192000370C0020350C0020F00B0020500C00205C
:10193000160C00204D0C0020220C0020E2480078FC
:10194000012800D03EE203204F490870514800783A
:1019500001285DD1DD480078401CDC490870DB4877
:1019600000781F2802DB0020D84908704A48007818
:1019700003214843022103F0AFFFD4490978814293
:1019800012DAE0480088802109010143DD48018026
:101990000120DD4908701BE018000020650C0020C4
:1019A000660C0020670C00203B4800780321484368
:1019B000022103F091FFC5490978814208DBD14833
:1019C0000088D2490140CF4801800020CE490870EC
:1019D0002F4800788B490978891E88422FDB002028
:1019E000BA490870C7480088C8490140C548018005
:1019F0000020C54908700020264908701FE000BF7C
:101A0000680C002024040020620C0020690C0020D7
:101A10001F4800787B490978C91E88420FDAB94807
:101A20000088802109010143B64801800120B649A0
:101A300008700120174908700020A4490870144854
:101A4000007870490978491E884227DA6D48007885
:101A5000401E0F4908702DE06A0C0020F40B002096
:101A6000470C0020120C0020140C0020430C002016
:101A70000E0C00203B0C0020410C00208CA4000820
:101A80007C0B00204B0C0020450C00200C1C00009F
:101A90003C0C0020370C00203D0C002059480078F9
:101AA000401CBD490978884204DA56480078401C39
:101AB000B9490870B9480078012800D0EBE2914894
:101AC00000888021490101438E4801800120B449EA
:101AD00008700020B349088000207C490870B24893
:101AE0000078002802D1042002F0F4FD03F012FC7B
:101AF000844800888549014082480180002072495D
:101B000008701F20D749487000210120FFF772FBA1
:101B10003220A64908703020A4494870E248007875
:101B20000A2103F0D9FE3030A0498870DE480078E1
:101B30000A2103F0D1FE30319C48C170DB480078A7
:101B40000A2103F0C9FE303098490871D74800785F
:101B50000A2103F0C1FE303194484171D448007825
:101B60000A2103F0B9FE303090498871D0480078DE
:101B70000A2103F0B1FE30318C48C1718C480078E5
:101B80000A2103F0A9FE30308A498B4A12783C239F
:101B90005A43891808728748874909783C2251437B
:101BA0004018007A81490872814800780A2103F0C0
:101BB00093FE30317F48804A12783C235A43801884
:101BC00041727C487C4909783C2251434018407A54
:101BD00076494872794800780A2103F07DFE30305A
:101BE0007449754A12783C235A438918887271489F
:101BF000714909783C2251434018807A6B498872B8
:101C00006E4801E0360C002000780A2103F064FEE3
:101C100030316848684A12783C235A438018C172B0
:101C20006448654909783C2251434018C07A5F49AD
:101C3000C872634800780A2103F04EFE30305D49D7
:101C40005D4A12783C235A438918087359485A4907
:101C500009783C2251434018007B54490873584886
:101C600000780A2103F038FE30315248524A127887
:101C70003C235A43801841734E484F4909783C220F
:101C800051434018407B49494873002049494A4A1A
:101C900012783C235A438918887346484649097884
:101CA0003C2251434018807B40498873D4480068E7
:101CB000642103F014FEFA21C9004843E12109011F
:101CC00003F00DFE3B4903E0350C0020590C0020C9
:101CD000394A12783C235A43891848873648007895
:101CE000401C35490870344800780B2802DB092075
:101CF000314908702C480078002809D1052002F0ED
:101D0000E9FC42E014000048530C0020FFF70000FB
:101D1000032002F0DFFC0020BA4908703220BA49E3
:101D20000880B8480078002803D1B7480088002808
:101D3000F7D10020B4490880B2480078012806D1C4
:101D40000020B04908703E20B04908801DE0002006
:101D5000AC490870032002F0BDFC3220AA4908807B
:101D6000A8480078002803D1A74800880028F7D1A8
:101D70000020A5490880A3480078012805D100204B
:101D8000A04908703E20A14908802522D849D94C95
:101D9000200003F0F1FC7EE13C0C0020440C00200C
:101DA000500C0020160C00204D0C002018000020C4
:101DB000680C002024040020620C0020690C002024
:101DC0006A0C0020CC480088802149010143CA48A0
:101DD00001800120C94908700020C949088003F02A
:101DE00099FAC5480088C7490140C34801800020CE
:101DF000C54908701F201B49487000210120FFF7CA
:101E0000F9F93220C14908703020C049487026488D
:101E100000780A2103F060FD3030BC498870224808
:101E200000780A2103F058FD3031B848C1701F48CE
:101E300000780A2103F050FD3030B44908711B4886
:101E400000780A2103F048FD3031B048417118484C
:101E500000780A2103F040FD3030AC498871144805
:101E600002E000BF3800002000780A2103F034FDB2
:101E70003031A648C171A64800780A2103F02CFD34
:101E80003030A449A44A12783C235A438918087276
:101E9000A048A14909783C2251434018007A9B4947
:101EA00008729B4806E000BF650C0020660C00200D
:101EB000670C002000780A2103F00EFD30319548B0
:101EC000954A12783C235A438018417291489249AE
:101ED00009783C2251434018407A8C4948728F4817
:101EE00000780A2103F0F8FC30308A498A4A1278D7
:101EF0003C235A43891888728648874909783C22CE
:101F000051434018807A81498872844800780A21B8
:101F100003F0E2FC30317F487F4A12783C235A4379
:101F20008018C1727B487C4909783C225143401893
:101F3000C07A7649C8727A4800780A2103F0CCFC4E
:101F400030307449744A12783C235A438918087314
:101F50007048714909783C2251434018007B6B4915
:101F600008736F4800780A2103F0B6FC30316948E5
:101F7000694A12783C235A43801841736548664980
:101F800009783C2251434018407B60494873002047
:101F90006049614A12783C235A43891888735D4826
:101FA0005D4909783C2251434018807B574988732A
:101FB00013480068642103F092FCFA21C9004843E9
:101FC000E121090103F08BFC5249534A12783C236A
:101FD0005A438918488750480078401C4E49087079
:101FE0004D4800780B2802DB09204B4908704D480A
:101FF000007800280CD1052002F06CFB45E000BF02
:10200000F40B0020470C0020120C0020140C0020C0
:10201000032002F05FFB002043490870322043494F
:10202000088041480078002803D1404800880028F3
:10203000F7D100203D4908803B480078012806D1AF
:102040000020394908703E20394908801DE00020F1
:1020500035490870032002F03DFB322033490880E7
:1020600031480078002803D1304800880028F7D193
:1020700000202E4908802C480078012805D1002036
:10208000294908703E202A49088025221849194C00
:10209000200003F071FB27480078401C2549087098
:1020A000244800780F2821DB2348007800281DD021
:1020B000002020490870032002F00CFB32201B494D
:1020C000088019480078002803D1184800880028A3
:1020D000F7D100201549088013480078012805D160
:1020E0000020114908703E201149088010BD00BF32
:1020F0008CA400087C0B002014000048500C002029
:10210000160C0020FFF70000350C002018000020FE
:10211000680C002024040020620C0020690C0020C0
:102120006A0C00204D0C0020470C0020120C0020EF
:10213000140C00205B0C0020430C002010B5B048AC
:102140000078012801D000F016FFAE480078012881
:1021500001D000F010FFAC480078012801D000F059
:102160000AFFAA480078012801D000F004FF0020EF
:10217000A64908700020A2490870A54800780128E7
:1021800000D0FBE2A3480078A34909781539A34A97
:1021900012788918884207DBA1480078002803D10B
:1021A000A048007800280AD0E24800888021090170
:1021B0000143E048018001209B49087035E09B48BD
:1021C0000078401C99490870984800781F2802DB65
:1021D0000020964908709148007803214843022165
:1021E00003F07AFB9149097881420ADAD1480088E4
:1021F000802109010143CF48018001208A490870EC
:1022000013E08648007803214843022103F064FB71
:1022100086490978814208DBC64800888449014024
:10222000C44801800020804908700120D949087005
:10223000804800881F280EDB7748007875490870B1
:1022400077480078002803D176480078002802D02B
:1022500060207049087072480078002852D06D489C
:102260000078602801DA00F05BFE6420694908709C
:102270000220C849087001206F4908706F48008823
:10228000002801D000F04CFE00206B490870A948DE
:10229000008867490140A748018000206249087012
:1022A00000205B49087000205D49087000205D49EE
:1022B0000870002062490870002062490870002000
:1022C000E549088060480078012812D15F4800780D
:1022D0003C21484314305E49086001205D49087084
:1022E00001205D49087001216420FEF783FF00F0A2
:1022F00017FE01216420FEF77DFF0120564908707A
:1023000000F00EFE47480078002843D0414800788E
:10231000602801DA00F004FE64203E490870854818
:102320000088434901408348018000203E490870ED
:1023300000203749087000203949087000203949C9
:10234000087000203E49087000203E4908700020B7
:10235000C14908803C480078012812D13B480078E8
:102360003C21484314303A4908600120394908703B
:1023700001203949087001216420FEF73BFF00F07D
:10238000CFFD01216420FEF735FF0120324908709E
:1023900000F0C6FD20480078FEF7EEFF1D490978E1
:1023A000814201D200F0BCFD00201949087061484B
:1023B00000881F4901405F48018000201A490870C9
:1023C0000120204908700020C14908701420C1492B
:1023D00008700120C04908700020194908701A4887
:1023E000007801283AD1194800783C21484314303C
:1023F0001749086001201749087000F091FD00BFDF
:10240000380C0020480C0020420C0020810C0020D9
:10241000340C00203C0C0020360C00203D0C002029
:102420005E0C00205F0C0020530C0020590C002093
:10243000FFF70000240C00205A0C00201C0C002088
:10244000370C00203B0C0020350C0020630C0020D2
:10245000F00B00203A0C00204B0C00200020B84963
:1024600008703448008880214901014331480180C7
:102470000120B44908700020B3490880B3480078AF
:10248000002802D1042002F025F9002041490870FB
:102490000020714908803220AD4908703020AC49D5
:1024A0004870AC4800780A2103F016FA3030A84989
:1024B0008870A84800780A2103F00EFA3031A44849
:1024C000C170A54800780A2103F006FA3030A0490F
:1024D0000871A14800780A2103F0FEF930319C48C8
:1024E00041719E4800780A2103F0F6F9303098498E
:1024F00088719A4800780A2103F0EEF93031944847
:10250000C171974800780A2103F0E6F93030954907
:10251000954A12783C235A43891808729148924987
:1025200009783C2251434018007A894908728C4846
:1025300002E000BF1400004800780A2103F0CCF943
:1025400030318848884A12783C235A4380184172B7
:102550008448854909783C2251434018407A7C4997
:102560004872824800780A2103F0B6F930307D497C
:102570007D4A12783C235A438918887279487A49EF
:1025800009783C2251434018807A71498872774813
:1025900002E000BF450C002000780A2103F09CF9FE
:1025A00030317048704A12783C235A438018C17207
:1025B0006C486D4909783C2251434018C07A6449FF
:1025C000C8726B4800780A2103F086F930306549FB
:1025D000654A12783C235A43891808736148624956
:1025E00009783C2251434018007B594908736048E0
:1025F00000780A2103F070F930315A485A4A1278AB
:102600003C235A43801841735648574909783C2265
:1026100051434018407B4E49487300205149524A6B
:1026200012783C235A43891888734E484E490978DA
:102630003C2251434018807B454988734D480068CF
:10264000642103F04CF9FA21C9004843E121090152
:1026500003F045F9434901E0220C0020424A127878
:102660003C235A43891848873F480078401C3E491C
:1026700008703D4800780B2802DB09203A490870B1
:1026800032480078002803D1052002F023F843E007
:10269000032002F01FF80020374908703220DF497C
:1026A000088035480078002803D1DC4800880028DD
:1026B000F7D10020D94908802F48007801280DD192
:1026C00000202D4908703E20D549088024E000BF35
:1026D0003F0C0020400C0020410C00200020264927
:1026E0000870032001F0F6FF3220CC490880224810
:1026F0000078002803D1C94800880028F7D10020BD
:10270000C64908801C480078012805D100201A49D4
:1027100008703E20C24908800020C249087001218B
:102720006420FEF767FD0A20DA4908800020DA49B4
:1027300008702522D949DA4C200003F01DF8EFE398
:102740003A0C0020500C0020160C00204D0C0020EC
:1027500018000020650C0020660C0020670C00208B
:10276000680C002024040020620C0020690C00206A
:102770006A0C0020F40B0020470C0020C9480078A8
:10278000012800D09AE10420C7490870C7480078A2
:10279000012805D1C64800783C214843C549086056
:1027A000BD480078C4490978884200D2B8E3BA48E5
:1027B0000078C14908700020BA490870BB48007809
:1027C000002800D0ACE3D7480088802149010143AC
:1027D000D44801800120D44908700020D3490880E2
:1027E000D3480078002802D1042001F073FF0020B4
:1027F000AD4908700020CF4908803220CE490870CA
:102800003020CD494870CD4800780A2103F064F8A3
:102810003030C9498870C94800780A2103F05CF853
:102820003031C548C170DC4800780A2103F054F803
:102830003030C1490871D84800780A2103F04CF8BB
:102840003031BD484171D54800780A2103F044F881
:102850003030B9498871D14800780A2103F03CF83A
:102860003031B548C171CE4800780A2103F034F800
:102870003030CC49CC4A12783C235A43891808722C
:10288000C848C94909783C2251434018007AAA49EE
:102890000872C34800780A2103F01EF83031C1489D
:1028A000C14A12783C235A4380184172BD48BE4940
:1028B00009783C2251434018407A9F494872CD48DC
:1028C00000780A2103F008F83030B649B64A127889
:1028D0003C235A4389188872B248B34909783C228C
:1028E00051434018807A94498872C24800780A217E
:1028F00002F0F2FF3031AB48AB4A12783C235A4326
:102900008018C172A748A84909783C225143401851
:10291000C07A8949C872B84800780A2102F0DCFF01
:102920003030A049A04A12783C235A4389180873D2
:102930009C489D4909783C2251434018007B7E49C0
:102940000873AD4800780A2102F0C6FF303195487F
:10295000954A12783C235A43801841739148924912
:1029600009783C2251434018407B7349487300204A
:102970008C498D4A12783C235A43891888738948B8
:10298000894909783C2251434018807B6A49887301
:102990009A480068642102F0A2FFFA21C900484366
:1029A000E121090102F09BFF7E497F4A12783C2316
:1029B0005A43891848877C480078401C7A49087037
:1029C000794800780B2802DB0920774908705848BD
:1029D0000078002803D1052001F07CFE42E00320AE
:1029E00001F078FE00208649087032200B490880EB
:1029F00083480078002803D1084800880028F7D1D0
:102A00000020064908807E48007801280CD100206B
:102A10007B4908703E200249088023E0120C002008
:102A2000140C0020420C002000207549087003207F
:102A300001F050FE32207349088071480078002868
:102A400003D1704800880028F7D100206D49088024
:102A50006B480078012805D10020694908703E20A4
:102A60006949088000200C490870002067490870F7
:102A700000206749087001216420FEF7BBFB0A2093
:102A80000449088025220549054C200002F074FE07
:102A900046E200BF0E0C0020360C00208CA400087B
:102AA0007C0B00204B0C0020450C0020350C002036
:102AB000630C0020F00B00203C0C0020E248007862
:102AC000012800D02CE251480078012800D027E2EC
:102AD00003205049087050480078012866D1E44826
:102AE0000078401CE2490870E14800781F2802DBAA
:102AF0000020DF490870494800780321484302213B
:102B000002F0EAFEDA490978814219DA05480088BC
:102B1000802109010143034801800120D549087043
:102B200022E000BF14000048500C0020160C0020CA
:102B30004D0C0020220C002018000020650C002005
:102B40003648007803214843022102F0C5FEC849F7
:102B50000978814208DBC8480088C8490140C64856
:102B600001800020C3490870C5480078C54909782C
:102B7000891E884231DB0020BD490870BE480088AC
:102B8000BE490140BC4801800020BA4908700020BD
:102B90002149087021E000BF660C0020670C00206E
:102BA000680C002024040020620C0020B448007847
:102BB000B4490978C91E88420FDAAF4800888021DD
:102BC00009010143AC4801800120AA490870012095
:102BD000114908700020A6490870A9480078A94941
:102BE0000978491E88421BDAA6480078401EA4498D
:102BF000087021E0690C00206A0C0020F40B002012
:102C0000470C0020120C0020140C00203A0C00206D
:102C1000420C0020450C0020370C00203D0C002009
:102C200098480078401C96490978884204DA95480B
:102C30000078401C92490870CF480078012800D0E5
:102C40006EE100208A4908708B4800888021490184
:102C50000143894801800120C84908700020C84903
:102C60000880C8480078002802D1042001F032FD15
:102C700002F050FB80480088804901407E48018076
:102C80000020714908701F20BF49487000210120B1
:102C9000FEF7B0FA3220BD4908703020BB494870B9
:102CA000BB4800780A2102F017FE3030B74988701F
:102CB000B74800780A2102F00FFE3031B348C170E6
:102CC000B44800780A2102F007FE3030AF4908719D
:102CD000B04800780A2102F0FFFD3031AB48417165
:102CE000AD4800780A2102F0F7FD3030A74988711D
:102CF000A94800780A2102F0EFFD3031A348C171E4
:102D0000A64800780A2102F0E7FD3030A449A54A20
:102D100012783C235A4389180872A148A1490978BE
:102D20003C2251434018007A984908729B48007829
:102D30000A2102F0D1FD303199489A4A12783C2399
:102D40005A43801841729648964909783C2251436B
:102D50004018407A8D494872B54800780A2102F03F
:102D6000BBFD30308E498F4A12783C235A43891874
:102D700088728B488B4909783C2251434018807AED
:102D800082498872AA4800780A2102F0A5FD3031F4
:102D90008348844A12783C235A438018C172804881
:102DA000804909783C2251434018C07A7749C8725B
:102DB000A04800780A2102F08FFD30307849794A26
:102DC00012783C235A438918087375487549097865
:102DD0003C2251434018007B6C49087395480078A9
:102DE0000A2102F079FD30316D486E4A12783C2399
:102DF0005A43801841736A486A4909783C22514312
:102E00004018407B6149487300206549654A127843
:102E10003C235A43891888736148624909783C22E7
:102E200051434018807B5949887383480068642166
:102E300002F055FDFA21C9004843E121090102F0E1
:102E40004EFD574902E000BF350C0020554A12786C
:102E50003C235A438918488752480078401C5149FE
:102E60000870504800780B280FDB09204D490BE013
:102E7000590C0020530C002014000048FFF70000FC
:102E80003C0C0020360C002008703E4800780028DA
:102E900003D1052001F01EFC3CE0032001F01AFCE8
:102EA0000020664908703220654908806348007830
:102EB000002803D1624800880028F7D1002060492B
:102EC00008805E480078012806D100205B49087020
:102ED0003E205C4908801DE000205849087003200E
:102EE00001F0F8FB32205649088054480078002849
:102EF00003D1534800880028F7D1002050490880AA
:102F00004E480078012805D100204C4908703E2029
:102F10004C49088025224C494C4C200002F02CFCE6
:102F20004B480078401C4A490870494800780F28EF
:102F300021DB4848007800281DD000204449087053
:102F4000032001F0C7FB32203D4908803B48007850
:102F5000002803D13A4800880028F7D100203849DA
:102F6000088036480078012805D1002033490870D0
:102F70003E203449088010BD440C0020500C002035
:102F8000160C00204D0C00203800002018000020F6
:102F9000650C0020660C0020670C0020680C0020E7
:102FA00024040020620C002038B52B48007800284B
:102FB0003CD0642002F010FA802189000022274CC6
:102FC000200002F0AFFB022001F084FB00201B492F
:102FD0000870C8201A49088018480078002803D1D2
:102FE000174800880028F7D10020154908801348A9
:102FF000007801281AD13E201249088087229200C9
:103000001749184C200003F0D1FA3C210022164D3C
:10301000280002F087FB10480078401E0E49087017
:103020003E2008490880002004490870002032BD75
:10303000690C00206A0C0020F40B0020470C0020D3
:10304000120C0020140C00208CA400087C0B002023
:103050005B0C0020420C0020620C00207C0600204B
:10306000600400202404002040060020FBB5070077
:103070001400002500E0641C207800283CD0601E6D
:1030800000786946097A884203D0601E00783F289C
:10309000F1D1019803F09DFA02000199200003F09C
:1030A000A0FA002826D1019803F093FA205C3D286D
:1030B00020D1019803F08DFA2618761C019803F0B0
:1030C00088FA2418641C01E06D1C641C2078694691
:1030D000097A884205D02078002802D020780D286F
:1030E000F2D12A003100380002F046FB002078556A
:1030F000002003E0641CBFE70020C043FEBDFBB519
:1031000007001400002500E0641C207800283BD054
:10311000601E00786946097A884203D0601E0078F4
:103120003F28F1D1019803F054FA020001992000E0
:1031300003F057FA002825D1019803F04AFA205CE1
:1031400022281FD1019803F044FA2618F61C019892
:1031500003F03FFA2418E41C20786946097A884273
:1031600007D06D1C641C20780028F5D10020C043D6
:103170000CE02A003100380002F0FEFA00207855F9
:10318000002003E0641CC0E70020C043FEBD000037
:10319000F0B5A9B0002452480078012801D000F011
:1031A00084FD50480078002801D000F07EFD4E4894
:1031B000C0793038012810D001D200F072FD032808
:1031C00000D1DFE300D22BE3052801D100F044FD5C
:1031D00001D200F0F1FC00F064FD2623424A43498D
:1031E00003A8FFF743FF03A803F0F3F9C0B20428D4
:1031F0000DD16846007B6421484303A949780A221F
:103200005143401803A989784618303611E0C0B2FE
:10321000032808D16846007B0A21484303A949785E
:103220004618103E05E0C0B2022802D16846067B6F
:10323000303E26232C4A2E4903A8FFF717FF684685
:103240006946097B303941702623274A294903A85A
:10325000FFF70CFF03A803F0BCF9C0B202280AD1A3
:1032600068466946097B0A22514303AA52788918A5
:103270001039017007E0C0B2012804D168466946E0
:10328000097B303901702623174A1B4903A8FFF731
:10329000EDFE03A803F09DF9C0B2022808D16846EC
:1032A000007B0A21484303A949784718103F05E0ED
:1032B000C0B2012802D16846077B303F26230A4A64
:1032C000D04903A8FFF7D2FE03A803F082F9C0B2E9
:1032D000012813D16946097B30290FD101242EE042
:1032E000470C00204D0C00207C06002058A8000848
:1032F00060A8000868A8000838A70008C0B206281F
:103300001DD168466946097B0A22514303AA5278B7
:1033100089181039417203A880780A21484303A90B
:10332000C978401810386946087203A800790A2144
:10333000484303A94979401810386946C8702623C4
:10334000B14AB24903A8FFF791FE0025290068465B
:10335000057B303D0D4303A84078303840002843BA
:10336000050003A88078303880002843050003A8B2
:10337000C0783038C0002843050003A80079000158
:103380002843050003A8407940012843050003A80D
:10339000807980012843050026239B4A9C4903A885
:1033A000FFF764FE68466946097B30398170262341
:1033B000954A984903A8FFF759FE1121002214A845
:1033C0000190019802F0AEF90198139003A914A896
:1033D00003F01BF926238C4A8FA103A8FFF746FEB2
:1033E0004021002219A80190019802F09BF9019850
:1033F000139003A919A803F008F9E4B2012C00D036
:10340000F1E0002485480078401F0D2800D3F9E141
:1034100083480078012800D0F4E101F07BFF814867
:103420000088814901407F48018000207F49087061
:103430001F207F49487001207E49087000207E4986
:10344000086001207D490870684640787C49087012
:10345000684600787B4908707A4800783C214143EF
:1034600079480180794807707948067001207949C8
:10347000794A12783C235A438854E34800780A2159
:1034800002F02AFA30307349734A12783C235A43C7
:1034900089184870DC4800780A2102F01DFA3031A2
:1034A0006C486D4A12783C235A4380188170D74883
:1034B00000780A2102F010FA30306649664A127824
:1034C0003C235A438918C870D04800780A2102F07A
:1034D00003FA30315F48604A12783C235A4380181F
:1034E0000171CB4800780A2102F0F6F930305949D1
:1034F000594A12783C235A4389184871C4480078C5
:103500000A2102F0E9F930315248534A12783C233B
:103510005A438018817100204E494F4A12783C234B
:103520005A438918C8713D4800784A494A4A127876
:103530003C235A438918C8734648474909783C22B6
:10354000514340180674684640784249424A12780E
:103550003C235A4389184874684600783D493E4ADE
:1035600012783C235A43891888743A483A490978B2
:103570003C2251434018C774252100223548364B60
:103580001B783C246343C5181435280002F0CAF8A0
:1035900019A93048304A12783C235A438018143015
:1035A00003F033F825210022CC4C200002F0BAF8B9
:1035B00019A9CA4803F029F8FFB2002F05D001204D
:1035C0001A490870DF201A49487001216420FDF76C
:1035D00011FE00208F49088001208F4908700320C8
:1035E00001F078F80EE168468078012800D0BFE04D
:1035F0008A480078112802DB0020884908700024DE
:103600002DE000BF44A700087C06002070A8000839
:1036100078A8000880A80008494400003D0C00205C
:10362000480C002014000048FFF70000350C002073
:1036300038000020420C0020F40B0020340C002045
:103640005F0C00205E0C00201C0C0020630C00208E
:10365000360C002024040020620C0020641CE4B21C
:10366000102C0BDA102214A9C148E4B23E236343A4
:10367000C018083002F0D7FF0028EFD1E4B2102CB8
:1036800072DBBB48654909783E225143465468467F
:103690004078B749614A12783E235A4389184870E6
:1036A00068460078B2495D4A12783E235A43891829
:1036B0008870AF48594909783E2251434018C77075
:1036C0006846407AAA49554A12783E235A438918D7
:1036D00008716846007AA649504A12783E235A4338
:1036E000891848716846C078A1494C4A12783E232F
:1036F0005A43891888719E48484909783E225143A7
:103700004018C57114A99A48444A12783E235A4376
:103710008018083002F079FF19A995483F4A1278BD
:103720003E235A438018193002F06FFF3B4800785F
:10373000401C3A4908703948007811280EDB0F20E8
:10374000364908708B4A8C49894C200002F02EFFC4
:103750003E210022894D280001F0E4FFF82292006A
:103760008349874802F060F8012000F0B3FF49E088
:1037700068468078002845D1002400E0641CE4B24B
:10378000102C3CDA14A97A48E4B23E226243801835
:10379000083002F05EFF0028F0D13E21002274487C
:1037A000E4B23E236343C518280001F0BBFF0F209D
:1037B000E4B2021B3E2042436D48E4B23E21614325
:1037C00041183E316A48E4B23E235C4304192000AC
:1037D00002F0ECFE3E210022684E300001F0A2FF14
:1037E0000E480078002804D00C480078401E0B4991
:1037F0000870F82292005E49614802F015F8022034
:1038000000F068FF4DE200BF680C0020690C00204A
:103810006A0C0020220C0020450C0020610C0020C6
:103820002623E24AE24903A8FFF720FC40210022B8
:1038300019AF380001F076FF03A919A802F0E5FEE0
:103840004021002203AE300001F06CFF234903A8A1
:1038500002F0DBFE25210022204C200001F062FF57
:1038600019A91E4802F0D1FE052000F033FF1420F4
:1038700001F0B2FD052000F02DFF142001F0ACFD99
:10388000052000F027FF25210022144D280001F01B
:1038900049FF03A9114802F0B8FEC6480078002885
:1038A00064D04021002203AC200001F03BFF022243
:1038B00003A9E54801F0B8FF002802D10020BD4966
:1038C0000870E2480088E2490140E0480180012197
:1038D0000220FDF78FFC0120DE4901E07C0B002077
:1038E00008703E20E5490880FA20400001F074FD90
:1038F000002400E0641CE4B20F2C37DA0020E04919
:103900000870012000F0E6FE6420DE490880DC48F3
:103910000078002803D1DB4800880028F7D1002078
:10392000D8490880D64800780128E3D10020D4493E
:103930000870642001F050FD032000F0CBFE002051
:10394000CF4908706420CF490880CD48007800280E
:1039500003D1CC4800880028F7D10020C94908804D
:103960000020C74908703E20C449088099E100BF83
:1039700044000020A203000082000020E603002093
:1039800000F40008DD480088802149010143DB483C
:1039900001800120DA4908700020DA4908803220CD
:1039A000D94908703020D8494870D84800780A2191
:1039B00001F092FF3030D4498870D44800780A2151
:1039C00001F08AFF3031D048C170D14800780A2117
:1039D00001F082FF3030CC490871CD4800780A21CF
:1039E00001F07AFF3031C8484171CA4800780A2195
:1039F00001F072FF3030C4498871C64800780A214E
:103A000001F06AFF3031C048C171C34800780A2113
:103A100001F062FF3030C149C14A12783C235A4359
:103A200089180872BD48BE4909783C2251434018A4
:103A3000007AB5490872B84800780A2101F04CFFB5
:103A40003031B648B64A12783C235A438018417246
:103A5000B248B34909783C2251434018407AAA49F8
:103A60004872B04800780A2101F036FF3030AB4987
:103A7000AB4A12783C235A4389188872A748A84950
:103A800009783C2251434018807A9F498872A548A2
:103A900000780A2101F020FF3031A048A04A1278B6
:103AA0003C235A438018C1729C489D4909783C22A6
:103AB00051434018C07A9449C8729B4800780A2143
:103AC00001F00AFF30309549954A12783C235A4359
:103AD000891808739148924909783C22514340184B
:103AE000007B89490873904800780A2101F0F4FEB0
:103AF00030318A488A4A12783C235A4380184173ED
:103B00008648874909783C2251434018407B7E49CA
:103B1000487300208149824A12783C235A4389180D
:103B200088737E487E4909783C2251434018807B47
:103B3000754988737D480068642101F0D0FEFA2140
:103B4000C9004843E121090101F0C9FE7349744AE3
:103B500012783C235A438918488771480078401CE2
:103B60006F4908706E4800780B2802DB09206C4909
:103B70000870062000F0AEFD01F0CCFB5F48008825
:103B80006B4901405D48018000206A4908701F2090
:103B90006949487000210120FDF72CFB042000F04A
:103BA00099FD052000F096FD7BE000BF7C0600201B
:103BB000D0A500084E0C00202623DA4A5F4903A84E
:103BC000FFF754FA03A8407830385D49087003A81D
:103BD00080780A21484303A9C978401810384B4916
:103BE000087003A800790A21484303A949794018BD
:103BF00010384749087003A880790A21484303A96F
:103C0000C979401810384349087003A8007A0A217E
:103C1000484303A9497A401810383F49087003A85F
:103C2000807A0A21484303A9C97A401810383D49CF
:103C3000087003A8007B0A21484303A9497B401868
:103C40001038394908702CE000F8000814040048C6
:103C5000EFFF00004D0C00202623B24A394903A88B
:103C6000FFF704FA6846007B30280DD1082000F0E9
:103C700031FD35483549088013E000BF140C0020A1
:103C8000470C0020120C00206846007B312808D128
:103C9000082000F01FFD3E202D49088001202D49FD
:103CA000087000202C49087026E02B480078012875
:103CB00022D12848007801281ED13E2024490880BE
:103CC0002223984A25A103A8FFF719FA244903A83B
:103CD00002F0BFFC002805D100201F490870012018
:103CE00000F040F88021890000228E4C200001F075
:103CF00019FD00201849087029B0F0BD14000048D3
:103D0000500C0020160C002018000020650C00202C
:103D1000660C0020670C0020680C002024040020A2
:103D2000620C0020690C00206A0C0020F40B0020BB
:103D3000FFF70000350C00203800002050A70008D5
:103D40006B0C002088A80008D4170000180C002075
:103D5000140C00204D0C0020470C002075726C00E4
:103D6000E4A50008F0B59BB00021C0B2012801D045
:103D700000F08EFC22236B4A5DA101A8FFF7BFF97A
:103D800068460079694608702223664A594901A8A5
:103D9000FFF7B5F91121002215AF380001F0C2FC80
:103DA00001A802F016FC102802D0012000F070FCDF
:103DB000102201A915A802F05DFC112100224E4F2E
:103DC000380001F0AFFC102215A94B4802F052FC5C
:103DD0002223544A494901A8FFF791F901A802F0AA
:103DE000F8FB242807D001A802F0F3FB102802D02A
:103DF000012000F04DFC252100220BAF380001F01E
:103E000091FC242201A90BA802F034FC684600783A
:103E1000312800D058E22223424A394901A8FFF74D
:103E20006EF901A802F0D5FBC0B204282CD1684677
:103E300000796421484301A949780A225143401876
:103E400001A98978441830342223364A2D4901A823
:103E5000FFF755F9684669460979303941702223E0
:103E6000304A294901A8FFF74AF901A802F0B1FB3D
:103E7000C0B2022820D1684600790A21484301A92E
:103E800049784618103E1DE0C0B2032808D16846A4
:103E900000790A21484301A949784418103CD3E726
:103EA000C0B2022803D168460479303CCCE7C0B2E6
:103EB0000028C9D10120EBE3C0B2012802D1684635
:103EC0000679303E2223174A104901A8FFF717F957
:103ED00001A802F07EFBC0B2022819D16846007921
:103EE0000A21484301A949784518103D16E000BF52
:103EF00072756E0090A80008C40B002098A80008F6
:103F0000A0A80008A8A80008B0A800085CA700089E
:103F1000C0B2012802D168460579303D2223014A0A
:103F2000CB4901E07C06002001A8FFF7E8F86846CD
:103F30006946097930398170C9480078401F0D28D9
:103F400000D34AE1C7480078012800D045E1C648BF
:103F50000078002800D040E1C4480078002800D054
:103F60003BE101F0D7F9C2480088C2490140C0488E
:103F700001800020C04908701F20C04948700120FE
:103F8000BA4908700020BE4908600120BD49087088
:103F900068464078BC490870BC480670F6B23C20C0
:103FA0007043BB490880BB480570BB48047025219D
:103FB0000022BA4F380001F0B5FB24220BA9B74804
:103FC00002F058FBEDB2002D05D00120AA4908707F
:103FD000DF20AA49487001216420FDF70BF96846EB
:103FE0008078AF49AF4A12783C235A438854AE4890
:103FF00000780A2101F070FC3030A949A94A1278F2
:104000003C235A4389184870A74800780A2101F0D8
:1040100063FC3031A248A34A12783C235A438018EB
:104020008170A24800780A2101F056FC30309C498A
:104030009C4A12783C235A438918C8709B480078E0
:104040000A2101F049FC30319548964A12783C2308
:104050005A4380180171964800780A2101F03CFC0F
:1040600030308F498F4A12783C235A43891848715F
:104070008F4800780A2101F02FFC30318848894AA6
:1040800012783C235A438018817100208449854A64
:1040900012783C235A438918C871714800788049C6
:1040A000804A12783C235A438918C8737C487D495A
:1040B00009783C2251434018047468464078784996
:1040C000784A12783C235A438918487474487549D1
:1040D00009783C2251434018867471487149097827
:1040E0003C2251434018C574252100226C486D4B79
:1040F0001B783C246343C4181434200001F012FBE5
:104100000BA96748674A12783C235A438018143039
:1041100002F07BFA00206749088001206649087098
:10412000002066490870032000F0D4FA3220644968
:10413000088062480078002803D161480088002880
:10414000F7D100205E4908805C480078012805D13D
:104150003E205C49088000205849087000205749DB
:104160000870052000F0B6FA3220554908805348FF
:104170000078002803D1524800880028F7D1002099
:104180004F4908804D480078012806D13E204D490E
:10419000088000204949087079E2002047490870EA
:1041A000052000F097FA32204549088043480078FE
:1041B000002803D1424800880028F7D10020404958
:1041C00008803E480078012800D060E23E203D494A
:1041D000088000203949087059E2002037490870EA
:1041E000052000F077FA32203549088033480078FE
:1041F000002803D1324800880028F7D10020304938
:1042000008802E480078012806D13E202D490880DC
:1042100000202A4908703AE2002028490870052049
:1042200000F058FA322026490880244800780028F7
:1042300003D1234800880028F7D1002020490880B6
:104240001E480078012800D021E23E201D4901E0EF
:1042500068A70008088000201849087017E200BF0E
:104260003D0C0020480C0020430C0020420C002094
:1042700014000048FFF70000350C00203800002033
:10428000F40B0020340C00205F0C00205E0C00209A
:104290001C0C0020630C0020360C00207C0B00203E
:1042A00024040020620C0020680C0020690C00200F
:1042B0006A0C0020220C0020450C0020470C002036
:1042C000120C0020140C002068460078302800D022
:1042D000DDE198480078012804D09748007801284B
:1042E00000D097E195480088802149010143934817
:1042F00001800120924908700020924908803220F4
:1043000091490870302090494870904800780A21FF
:1043100001F0E2FA30308C4988708C4800780A212C
:1043200001F0DAFA30318848C170DA4800780A21A1
:1043300001F0D2FA303084490871D64800780A2159
:1043400001F0CAFA303180484171D34800780A211F
:1043500001F0C2FA30307C498871CF4800780A21D8
:1043600001F0BAFA30317848C171CC4800780A219E
:1043700001F0B2FA3030CA49CA4A12783C235A4393
:1043800089180872C648C74909783C225143401829
:10439000007A6D490872C14800780A2101F09CFA40
:1043A0003031BF48BF4A12783C235A4380184172CB
:1043B000BB48BC4909783C2251434018407A6249C5
:1043C0004872B94800780A2101F086FA3030B449C1
:1043D000B44A12783C235A4389188872B048B149CC
:1043E00009783C2251434018807A57498872AE4878
:1043F00000780A2101F070FA3031A948A94A1278F0
:104400003C235A438018C172A548A64909783C222A
:1044100051434018C07A4C49C872A44800780A2118
:1044200001F05AFA30309E499E4A12783C235A4392
:10443000891808739A489B4909783C2251434018CF
:10444000007B41490873994800780A2101F044FA39
:1044500030319348934A12783C235A438018417371
:104460008F48904909783C2251434018407B364997
:10447000487300208A498B4A12783C235A43891892
:1044800088738748874909783C2251434018807BCC
:104490002D49887386480068642101F020FAFA21CA
:1044A000C9004843E121090101F019FA7C497D4A1C
:1044B00012783C235A43891848877A480078401C70
:1044C00078490870774800780B2802DB0920754985
:1044D000087000F01FFF194800887649014017480E
:1044E00001800020744908701F2074494870002121
:1044F0000120FCF77FFE002071490870032000F0C6
:10450000E9F832206F4908806D480078002803D10F
:104510006C4800880028F7D100206A490880684864
:104520000078012814D10020654908703E206649B2
:1045300008802BE0420C0020430C002014000048AF
:10454000500C0020160C002018000020650C0020E4
:1045500000205B490870032000F0BCF83220594964
:10456000088057480078002803D156480088002862
:10457000F7D100205349088051480078012805D11F
:1045800000204F4908703E204F49088025224F499E
:104590004F4C200001F0F0F8002049490870062037
:1045A00000F098F8322047490880454800780028F4
:1045B00003D1444800880028F7D1002041490880F1
:1045C0003F480078012806D13E203F49088000205E
:1045D0003B4908705BE0002039490870062000F074
:1045E00079F832203749088035480078002803D10F
:1045F000344800880028F7D100203249088030482C
:104600000078012843D13E202F49088000202C4902
:1046100008703CE000202A490870062000F05AF893
:1046200032202849088026480078002803D12548F0
:1046300000880028F7D1002022490880204800780F
:10464000012806D13E202049088000201C4908701E
:104650001DE000201A490870062000F03BF83220C7
:104660001849088016480078002803D115480088AA
:104670000028F7D10020134908801148007801284C
:1046800005D13E201049088000200D490870FFE741
:104690001BB0F0BD660C0020670C0020680C0020E9
:1046A00024040020620C0020690C00206A0C002009
:1046B000F40B0020FFF70000350C0020380000202C
:1046C000470C0020120C0020140C00208CA40008C1
:1046D0007C0B002070B5CEB0C0490978002900D00D
:1046E00017E2C0B2012812D000D2FCE1032826D084
:1046F00019D3052800D109E100D2F2E0072800D142
:10470000D9E100D2CBE1082800D1E0E1EBE1802142
:1047100089000022B24C200001F004F8B149B048F1
:1047200001F073FFDFE1802189000022AC4C200002
:1047300000F0F8FFAC49AA4801F067FFD3E18021FF
:1047400089000022A64D280000F0ECFFA749A448EC
:1047500001F05BFF0A2100226C46200000F0E2FF1E
:10476000A34800780A2101F0B7F830306946087094
:104770002E20694648709E4800780A2101F0ACF866
:104780003031684681706946954801F03EFF99498D
:10479000934801F03AFF0A2100226E46300000F0F3
:1047A000C1FF9548007864281CDB93480078642199
:1047B00001F092F83030694608708F480078642123
:1047C00001F08AF808000A2101F086F830306946C5
:1047D0004870894800780A2101F07EF83031684637
:1047E00081701CE0844800780A2810DB8248007839
:1047F0000A2101F071F83030694608707E4800786F
:104800000A2101F069F830316846417007E07A48C2
:1048100000780A2101F060F830316846017069467D
:104820006F4801F0F2FED3496D4801F0EEFE0A2117
:1048300000226D46280000F075FFCF480078303028
:10484000694608706946664801F0DFFECB49644856
:1048500001F0DBFE0A2100226C46200000F062FF1E
:10486000C7480088FA21890001F036F830306946DF
:104870000870C3480088FA21890001F02DF808006B
:10488000642101F029F8303069464870BC4800883E
:10489000FA21890001F020F80800642101F01CF8D9
:1048A00008000A2101F018F8303069468870B448D1
:1048B00000880A2101F010F830316846C17069465D
:1048C000474801F0A2FEAF49454801F09EFE242270
:1048D000AD49434801F0CEFEACA1414801F095FE40
:1048E00001E18021890000223D4C200000F01AFFE8
:1048F000A7493B4801F089FE2422A349384801F02A
:10490000B9FEA2A1364801F080FEECE080218900CA
:104910000022334D280000F005FFDA49304801F04D
:1049200074FE0A2100226C46200000F0FBFE304895
:1049300000780A2100F0D0FF3030694608702E2040
:10494000694648702A4800780A2100F0C5FF3031D6
:10495000684681706946224801F057FE2549204883
:1049600001F053FE0A2100226E46300000F0DAFE0C
:104970002148007864281CDB1F480078642100F07F
:10498000ABFF3030694608701B480078642100F0A6
:10499000A3FF08000A2100F09FFF303069464870ED
:1049A000154800780A2100F097FF30316846817081
:1049B0002CE0114800780A2820DB0F4800780A21F3
:1049C00000F08AFF3030694608700B4800780A21F1
:1049D00000F082FF30316846417017E04D0C002036
:1049E0007C080020F8A5000820A5000898A600086B
:1049F0003D0C0020B8A800083C0C0020C4480078FA
:104A00000A2100F069FF3031684601706946D348D9
:104A100001F0FBFDD249D14801F0F7FD0A21002247
:104A20006D46280000F07EFECE48007830306946A2
:104A300008706946C94801F0E8FDCB49C74801F054
:104A4000E4FD0A2100226C46200000F06BFE4A487B
:104A500000783030694608706946C04801F0D5FDDD
:104A6000C249BE4801F0D1FDC149BC4801F0CDFDAD
:104A7000C049BA4801F0C9FD24224349B74801F0B2
:104A8000F9FDBD49B54801F0C0FD1422BB49B3484A
:104A900001F0F0FD3DA1B14801F0B7FD23E0802118
:104AA00089000022AD4C200000F03CFEB449AB4828
:104AB00001F0ABFD17E0802189000022A74C200007
:104AC00000F030FEAF49A54801F09FFD0BE08021CA
:104AD00089000022A14C200000F024FEAA499F4832
:104AE00001F093FDFFE700249C48A4B2005D00287C
:104AF00000D1B5E39948A4B2015D89B2A34801F0A1
:104B00007DF9641C8021A14801F0ACF90028EBD1AB
:104B1000F8E79F490978012900D0A1E3C0B2012834
:104B200010D000D29CE3032834D000D2F2E0052854
:104B300000D101E300D2DAE2072800D156E300D227
:104B400027E38DE396214900002203AC200000F00A
:104B5000E9FD904903A801F058FD884903A801F038
:104B600054FD8DA103A801F050FD8C4903A800F06D
:104B700083FB75E374A70008450C002080A700089C
:104B8000220C0020C0A800087C0B00200D0A0000A9
:104B90003CA5000896214900002203AD280000F042
:104BA000C1FD7C4903A801F030FD744903A801F060
:104BB0002CFDDF4903A801F028FDDE4903A801F020
:104BC00024FD0A2100226C46200000F0ABFD744851
:104BD00000780A2100F080FE3030694608702E20EF
:104BE000694648706E4800780A2100F075FE303141
:104BF00068468170694603A801F007FDE54903A8EE
:104C000001F003FDE44903A801F0FFFC0A210022A2
:104C10006E46300000F086FD3D48007864281CDBBD
:104C20003B480078642100F057FE30306946087038
:104C300037480078642100F04FFE08000A2100F098
:104C40004BFE303069464870314800780A2100F048
:104C500043FE3031684681701EE02D4800780A28F6
:104C600012DB2B4800780A2100F036FE303069460E
:104C70000870274800780A2100F02EFE303168467F
:104C8000417009E0A8A60008214800780A2100F038
:104C900023FE303168460170694603A801F0B5FC77
:104CA000CD4903A801F0B1FCCC4903A801F0ADFC4B
:104CB0000A2100226C46200000F034FD29480078CB
:104CC000303069460870694603A801F09EFC984997
:104CD00003A801F09AFCC24903A801F096FC0A213E
:104CE00000226D46280000F01DFDBE4800783030DF
:104CF00069460870694603A801F087FC26A103A84D
:104D000001F083FCB84903A800F0B6FAA8E200BF9E
:104D10003C0C002096214900002203AC200000F04A
:104D200001FD1C4903A801F070FC1422134903A8DB
:104D300001F0A0FC7E4903A801F067FCAB4903A881
:104D400001F063FCAA4801F044FC00282AD1242287
:104D5000A84903A801F08EFC29E000BF7C080020D0
:104D6000C8A80008480C0020D0A800088CA700089C
:104D700018000020D8A8000898A70008000000200C
:104D80000CA6000820A60008B8A6000800440040B1
:104D90004D0C0020C8A60008220D0A00D8A6000865
:104DA0003D0C00202422924903A801F063FC6049D5
:104DB00003A801F02AFCDA4903A801F026FC0A2125
:104DC00000226D46280000F0ADFCD6480078303057
:104DD00069460870694603A801F017FC544903A806
:104DE00001F013FCD04903A801F00FFCCF4903A840
:104DF00001F00BFC4E4903A801F007FCCC4903A8C5
:104E000001F003FCCB4903A801F0FFFB484903A8CC
:104E100001F0FBFB474903A801F0F7FB0A21002240
:104E20006C46200000F07EFCBE48C07B0A2100F0EA
:104E300053FD3030694608702E2069464870B948E5
:104E4000C07B0A2100F048FD303168468170694618
:104E500003A801F0DAFB4F4903A801F0D6FB4E4945
:104E600003A801F0D2FB0A2100226E46300000F0B8
:104E700059FCAC48007C64281CDBAA48007C6421F7
:104E800000F02AFD303069460870A648007C642195
:104E900000F022FD08000A2100F01EFD30306946B6
:104EA0004870A048007C0A2100F016FD30316846A9
:104EB00081701CE09B48007C0A2810DB9948007C2C
:104EC0000A2100F009FD3030694608709548007CE1
:104ED0000A2100F001FD30316846417007E0914839
:104EE000007C0A2100F0F8FC303168460170694608
:104EF00003A801F08AFB384903A801F086FBD949D1
:104F000003A801F082FB0A2100226C46200000F079
:104F100009FC8448407C303069460870694603A823
:104F200001F073FB024903A801F06FFBCE4903E0D7
:104F3000E0A80008A4A7000803A801F066FB0A2166
:104F400000226D46280000F0EDFB7648807C0A28A0
:104F500010DB7448807C0A2100F0BEFC30306946CA
:104F600008707048807C0A2100F0B6FC3031684639
:104F7000417004E06B48807C3030694608706946B7
:104F800003A801F042FBDC4903A801F03EFBB7494E
:104F900004E000BFE8A80008B0A7000803A801F0DB
:104FA00034FB0A2100226C46200000F0BBFB5D4868
:104FB000C07C0A2820DB5B48C07C0A2100F08CFC06
:104FC0003030694608705748C07C0A2100F084FCE4
:104FD00030316846417014E0F0A80008F8A80008D5
:104FE000BCA70008450C002034A60008C8A700088C
:104FF000380400207C0B00204A48C07C30306946D1
:105000000870694603A801F000FBBB4903A801F042
:10501000FCFA974903A801F0F8FA0A2100226D462C
:10502000280000F07FFB00243E48408F914900F0AB
:1050300053FC012809DB3B48408F8E4900F04CFCB3
:1050400030306946A4B20855641C3648408F8949FF
:1050500000F042FC0800FA21890000F03DFC3030ED
:105060006946A4B20855641C2E206946A4B20855AE
:10507000641C2C48408FFA21890000F02DFC0800A8
:10508000642100F029FC30306946A4B20855641C44
:105090002448408F642100F01FFC08000A2100F022
:1050A0001BFC30306946A4B20855641C1D48408F73
:1050B0000A2100F011FC30316846A4B20155641C8D
:1050C0004B206946A4B20855641C57206946A4B217
:1050D0000855641C694603A801F097FA87A103A844
:1050E00001F093FA864903A800F0C6F8B8E09621CB
:1050F0004900002203AC200000F014FB814903A802
:1051000001F083FA804903A801F07FFA7BA103A88C
:1051100001F07BFA7D4903A800F0AEF8A0E000BFE3
:10512000E8A6000824040020F8A6000825040020B2
:10513000D4A700082C04002096214900002203ACCB
:10514000200000F0EFFA6F4903A801F05EFA6E4903
:1051500003A801F05AFA684903A801F056FA6C490D
:1051600003A801F052FA1022904903A801F082FA34
:10517000614903A801F049FA8D4903A801F045FAF5
:105180008C4903A801F041FA8B4903A800F074F898
:1051900066E096214900002203AC200000F0C2FA2C
:1051A000584903A801F031FA574903A801F02DFA34
:1051B000514903A801F029FA554903A801F025FA3D
:1051C00010227A4903A801F055FA4B4903A801F0CF
:1051D0001CFA774903A801F018FA784903A801F0EE
:1051E00014FA754903A800F047F839E09621490000
:1051F000002203AC200000F095FA714903A801F0E9
:1052000004FA1422404903A801F034FA6D4903A8B6
:1052100001F0FBF924226C4903A801F02BFA6B4939
:1052200003A801F0F2F91022604903A801F022FA64
:10523000674903A801F0E9F90A2100226D46280018
:1052400000F070FA634800783030694608706946AB
:1052500003A801F0DAF96B4903A800F00DF8FFE7A5
:105260004EB070BDE0A70008ECA7000808A7000832
:10527000F8A700081027000070B505000C00802179
:1052800089000022594E300000F04CFA58A15748CE
:1052900001F0BBF95749554801F0B7F921005348CF
:1052A00001F0B3F91449514801F0AFF952494F48A0
:1052B00001F0ABF951494D4801F0A7F929004B48DD
:1052C00001F0A3F94EA1494801F09FF90024474895
:1052D000A4B2005D00280ED04448A4B2015D89B29A
:1052E000494800F08BFD641C8021474800F0BAFD5E
:1052F0000028ECD1F8E770BDE0A80008220D0A00F4
:1053000048A60008C8A60008000000205CA6000807
:1053100004A8000800203D49087000203C4908709E
:1053200000203C49087000203B49087000203B49A0
:10533000087000203A4908700020364908700020A3
:105340003849087000203849087000203749087033
:10535000002037490860002036490870002036498F
:105360000870002035490870002035490870002079
:10537000344908701F203449487133490871324953
:10538000C870314988703049087000202F49088062
:1053900000201049087000202D49087000202D4978
:1053A000087000206849088070470000C40B002086
:1053B00010A800081CA80008A0A5000870A60008F6
:1053C00028A8000800A900087C0B002034A80008C9
:1053D00008A90008640C002000B58C4908808B489F
:1053E00000880028FBD100BD000000007C080020E0
:1053F0007B0D0A0010A9000884A6000840A8000838
:105400007D7D000018A7000800440040530C0020D8
:10541000340C00203B0C00205E0C00205F0C0020B0
:10542000370C00204B0C0020360C00203A0C0020DA
:10543000F00B0020450C0020400C0020440C002004
:10544000420C0020430C002038000020220C0020D9
:105450007B0C00207C0C0020F8B582B004000E000C
:105460001700C82580210902AC4801F08FF80028F8
:1054700006D02800451EC0B20028F3D1012062E00A
:1054800080208001009000230122E4B2210089B233
:10549000A24801F057F8C8250221A04801F076F88B
:1054A000002806D12800451EC0B20028F4D10120F2
:1054B00049E03100C9B2994801F062F8C82540219D
:1054C000964801F063F8002806D12800451EC0B2B6
:1054D0000028F4D1012036E0902080010090802344
:1054E0009B043A00D2B2E4B2210089B28B4801F0A9
:1054F00029F8002406E0894801F045F80299E4B251
:105500000855641CE4B2FFB2BC420DD2C825042188
:10551000824801F03BF80028EDD12800451EC0B2BA
:105520000028F4D101200EE0C82520217B4801F09D
:105530002DF80028F9D02800451EC0B2002801D15E
:10554000012000E00020FEBD240C0020F8B582B050
:1055500007000D001600C824802109026F4801F0E1
:1055600015F8002806D02000441EC0B20028F3D150
:1055700001204AE080208001009080239B043200BB
:10558000521CD2B2FFB2390089B2644800F0DAFF8F
:10559000C8240221614800F0F9FF002806D120004C
:1055A000441EC0B20028F4D101202EE02900C9B267
:1055B0005A4800F0E5FF002506E00298EDB2415D93
:1055C000564800F0DDFF6D1CEDB2F6B2B5420DD2CB
:1055D000C8240221514800F0D9FF0028EDD1200055
:1055E000441EC0B20028F4D101200EE0C8242021BE
:1055F0004A4800F0CBFF002806D12000441EC0B26C
:105600000028F4D1012000E00020FEBD120C002093
:1056100000B585B03220FAF7DDFE2021404800F0C9
:1056200016FB0128F9D06B4602220021C820FFF7A3
:1056300013FF0028F7D13220FAF7CCFE102069467C
:1056400008701020694648700B2069468870102049
:105650006946C8701220694608711320694648716E
:1056600012206946887120212D4800F0F0FA0128A7
:10567000F9D06B4607220921C820FFF767FF0028F1
:10568000F7D11E20FAF7A6FE7F2069460870002099
:10569000694648702021224800F0D9FA0128F9D043
:1056A0006B4602220E21C820FFF750FF0028F7D1D9
:1056B0001E20FAF78FFE16206946087020206946E2
:1056C000487048206946887080206946C87020214B
:1056D000134800F0BCFA0128F9D06B4604220821D7
:1056E000C820FFF733FF0028F7D11E20FAF772FE1B
:1056F0001E20FAF76FFE2021094800F0A8FA0128C1
:10570000F9D06B4601220121C820FFF7A5FE6846AB
:1057100000784007ECD405B000BD00000054004004
:10572000000400481206130A1A43130C1A4300BF60
:10573000094205D0830705D00270401C491EF9D1EB
:1057400070470000130030B414001500103902D364
:1057500010393CC0FCD2490700D30CC000D504C0AE
:10576000890002D30280801C002900D5027030BC61
:10577000704700000022E5E7124207D08B0706D0F1
:105780000B78491C0370401C521EF7D870478307E2
:1057900006D00B78491C0370401C521EF9D170478B
:1057A00070B4103A03D378C9103A78C0FBD25307CB
:1057B00001D318C918C001D508C908C0D20704D33D
:1057C0000B880380891C801C002A01D50B7803708C
:1057D00070BC704710B504000BE0217889B2114805
:1057E00000F00CFB80210F4800F03CFB0028F9D0B2
:1057F000641C20780028F0D10D210A4800F0FEFA40
:105800008021084800F02EFB0028F9D00A21054825
:1058100000F0F4FA8021034800F024FB0028F9D0BE
:1058200010BD00000044004070B582B005000E00BD
:105830001400A4B2641C2000022100F04DF8040002
:1058400000F02EFF352000F091FF280000F03BFF14
:1058500000E0AD1C2000441E80B200280DD031882D
:10586000280000F057FF69460870B61C68460078AB
:105870000428EED00020C04302E000F01DFF00200D
:1058800076BD30B504000D00100080B2C01C0421AC
:1058900000F022F803E021682960241D2D1D01007D
:1058A000481E89B20029F6D1002030BDF4460028F8
:1058B00004D4494200F013F84042604740420029B6
:1058C00005D45FD000F00BF840424942604749429E
:1058D00000F005F84942604703460B43E6D4002236
:1058E000030A8B420BD203098B4219D243088B4225
:1058F0002ED2411A00D20146524110467047FF2273
:1059000009023FD012068B4205D3121209028B42C4
:1059100001D31212090203098B4219D300E0090ACC
:10592000C3098B4201D3CB01C01A524183098B4278
:1059300001D38B01C01A524143098B4201D34B0161
:10594000C01A524103098B4201D30B01C01A5241C4
:10595000C3088B4201D3CB00C01A524183088B424B
:1059600001D38B00C01A524143088B4201D34B0034
:10597000C01A5241884200D3401A5241CFD2014648
:105980001046704708B500F025FF08BD05490968B5
:1059900010229143034A11600249096808430149F2
:1059A0000860704730100240F0B504000020002568
:1059B000002200210023604E36680C273740380053
:1059C000002804D0042805D0082806D022E06D481D
:1059D000206021E06B4820601EE057480068F025F9
:1059E000AD03054054480268802040020240AD0CDF
:1059F000AD1C002A03D162484543256009E0624896
:105A000000680107090F491C5E48FFF768FF6843FB
:105A1000206001E05B48206047480168F0200840B2
:105A200000095A490B5C2068D84060604248016810
:105A3000E020C0000840000A54490B5C6068D84070
:105A4000A0604E480068C00502D45148E0600AE0FA
:105A500039480068400403D4A0684008E06002E0D0
:105A6000A0688008E06045480068400602D44948C4
:105A7000206102E080200002206140480068C006EA
:105A800002D44048606101E0206860613B480068E2
:105A90008007800F002802D1A068A0611AE0374873
:105AA00000688007800F012802D12068A06111E002
:105AB000324800688007800F022803D1802000024E
:105AC000A06107E02D4800688007800F032801D1FE
:105AD0002C48A061F0BD000000B5C9B2002905D076
