:020000040800F2
:10000000B81000201DAD00083373000835730008D8
:1000100000000000000000000000000000000000E0
:10002000000000000000000000000000397300081C
:1000300000000000000000002B6C00083B7300086B
:10004000FF700008FF72000843AB00084FAB0008C8
:10005000E9AE0008EBAE0008EDAE00087D8A0008AE
:10006000EFAE0008F1AE0008F3AE0008F5AE0008F0
:10007000F7AE0008F9AE0008FBAE0008FDAE0008C0
:1000800035760008FFAE00080000000001AF000850
:1000900003AF000805AF000807AF000809AF00086C
:1000A0000BAF00080DAF00080FAF00088178000803
:1000B000757B00080000000011AF00080000000080
:1000C000F0B540B2002821D52F4B40B20207120FE5
:1000D000083A9208042462432B4C40B205072D0FC6
:1000E000083DAD08042675436459FF258607B60F01
:1000F00008277E43B540AC438901C9B28007800F11
:10010000082568438140214399501BE07E4A40B254
:1001100003009B0804246343D258FF238407A40FE1
:1001200008256C43A3409A438901C9B283079B0FFA
:100130000824634399401143734A40B28008042362
:1001400058431150F0BD00B5BFF34F8F0F486F49B2
:100150000860BFF34F8FFEE780B5411E8022520436
:10016000914201D301200EE0401E0949086003219D
:100170000020C043FFF7A4FF002065490860072066
:1001800064490860002002BD1CED00E00400FA058F
:1001900014E000E070B500205F49087000205F495E
:1001A000087000205E49087000205E490870002039
:1001B0005D49087001205D49087000205C490870A5
:1001C00000205C49087000205B49087000205B49F2
:1001D000088000205A49087000205A490870002001
:1001E0005949087000205949088000205849087072
:1001F00000205849087000205749087000205749CE
:1002000008800020564908700020564908600020E8
:10021000554908800020554908700020544908704D
:1002200000205449087000205349087000205349A9
:100230000870002052490870962189000022514D13
:10024000280006F01BF925224F49504C200006F0EB
:100250003FF9112100224E4E300006F00FF9002028
:100260004C49087000204C49087000204B49088018
:100270004B484C49086000204B49087000204B490E
:10028000088001204A49087001204A49087000206E
:100290004949087000204949087000204849087001
:1002A0000A20484908700120474908700120474941
:1002B0000870082046490870002046490870002050
:1002C0004549087005204549087041480078E121FA
:1002D00009014843424908600020424908701E2035
:1002E00041490870002004E00021404AC0B2115486
:1002F000401CC0B24028F7DB3C483D4908603C4800
:1003000000683C49086070BD00E400E00CED00E0CE
:1003100018E000E010E000E06C0C00206D0C002004
:100320006E0C00206F0C0020700C0020710C00205F
:10033000720C0020820C0020730C0020480C00205E
:10034000740C0020750C0020770C00204C0C002051
:10035000780C0020790C00207A0C00204E0C002034
:100360007B0C0020300C00205E0C0020960C00203E
:100370007C0C00207D0C00207E0C00207F0C0020D7
:10038000800C00202404002034AA0008BC0B0020AC
:10039000040C0020810C0020830C0020500C002055
:1003A000FC0A0020380C0020860C0020520C002093
:1003B000910C002042000020920C0020A30C002091
:1003C000A40C00209B0C00209C0C00209D0C002005
:1003D0009E0C00209F0C0020A00C0020A10C0020EF
:1003E000440C0020A20C0020A60C00203C0B002096
:1003F000400C00203C0C002000B5002106E0521CFF
:1004000092B280235B019A42F9DB491C89B280B227
:10041000814201D20022F3E700BD000010B586B092
:10042000FFF7B8FE00F0C4FC00F054FF00F04EFDF2
:1004300000F0D2FFA64800884004400CA449088080
:10044000A4480088A4490140A2480180A348A449C7
:10045000088000F0F3FD00F083FFA248FFF77CFE68
:1004600000F06AFF00F040FE9948008880214901B1
:100470000143974801800A20D9490870642005F09B
:1004800063FE05F075FF00F08FFF0121042000F0EE
:10049000D5FF052005F058FE14229349934806F035
:1004A0009CF80020904908758F480078812803DA6D
:1004B0008D480078002805D115228D498A4C2000EE
:1004C00006F006F8042201A98A4806F086F8684674
:1004D000808889490880884800888849884203DAEA
:1004E0008548008800280DD1854869468880844861
:1004F00001A94880824880490880042201A97D48DA
:1005000006F03EF8042269467E4806F066F8684622
:1005100000787D4908707C480078002800D19CE074
:1005200004226946794806F058F8684600780028A1
:1005300060D0AF20800005F007FE754800780128E4
:1005400000D102E1734805F0F1FF642005F0FCFDE5
:100550006F480078012800D1F7E06F4805F0E6FF0A
:10056000642005F0F1FD6A480078012800D1ECE034
:100570006A4805F0DBFFE120800005F0E5FD6448F6
:100580000078012800D1E0E00120654908700120D1
:1005900004F07EFF0020DF490870C8206149088010
:1005A000DC480078002803D15E4800880028F7D195
:1005B00000205C490880D74800780128E7D1002056
:1005C000D4490870D44858490880002069464870CA
:1005D0006846407869460870022269464B4805F033
:1005E000CFFF02226946474805F0CAFF002046496E
:1005F000087032E0374800881021014335480180F7
:10060000AF20800005F0A0FD41480078012800D10E
:100610009BE0404805F08AFF642005F095FD3C48CA
:100620000078012800D190E0404805F07FFFE120EC
:10063000800005F089FD36480078012800D184E06B
:100640003B4805F073FF142005F07EFD304800782C
:1006500001287AD0002032490870F82292003549EA
:10066000354805F0BAFF0021002000E0401CC0B270
:10067000102809DA2F4AC0B23E234343D25C002A35
:10068000F4D101212D4A107089B2002902D10F2026
:100690002A4908701C480078002803D1FA2040003D
:1006A00005F052FD00202649087017480078002800
:1006B00003D101201A49087002E00020184908708F
:1006C0000020944908709448174908803DE000BF15
:1006D0001400004814040048EFFF0000B80B0000AD
:1006E0004E0C0020005307000000002000F000081E
:1006F000ACAB000800FC00085C0C0020AD0D000055
:10070000E204000000F80008850C002000EC00085E
:10071000810C0020E0A8000830A9000880A900088A
:10072000840C0020520C0020540C002088A80008E3
:10073000A8AA00084400002000F40008970C00203C
:10074000860C0020052004F0A3FED4480078012880
:1007500000D06DE10020224908700020CF490870C8
:10076000CF480088802149010143CD480180012004
:10077000CC4908700020CC4908800120CB49087082
:10078000CB48007800281BD00220C94908703220CD
:1007900005F0DAFC00205F490870072004F078FEBD
:1007A00000205C490870322005F0CEFC59480078E2
:1007B000012805D10020574908705748D6490880BC
:1007C0003220D64908703020D4494870D448007887
:1007D0000A2105F02DFF3030D0498870D04801E063
:1007E0008A0C002000780A2105F022FF3031CB4826
:1007F000C170CC4800780A2105F01AFF3030C74993
:100800000871C84800780A2105F012FF3031C3484A
:100810004171C54800780A2105F00AFF3030BF4910
:100820008871C14800780A2105F002FF3031BB48C9
:10083000C171BE4800780A2105F0FAFE3030BC498B
:10084000BC4A12783C235A4389180872B848B949FF
:1008500009783C2251434018007AB0490872B348E5
:1008600000780A2105F0E4FE3031B148B14A12782F
:100870003C235A4380184172AD48AE4909783C2266
:1008800051434018407AA5494872AB4800780A2184
:1008900005F0CEFE3030A649A64A12783C235A43D2
:1008A00089188872A248A34909783C22514340180C
:1008B000807A9A498872A04800780A2105F0B8FE2B
:1008C00030319B489B4A12783C235A438018C172AE
:1008D0009748984909783C2251434018C07A8F497B
:1008E000C872964800780A2105F0A2FE303090497F
:1008F000904A12783C235A43891808738C488D49D2
:1009000009783C2251434018007B844908738B4886
:1009100004E000BF7E0C00203818000000780A2197
:1009200005F086FE30318248824A12783C235A43D1
:10093000801841737E487F4909783C225143401812
:10094000407B76494873002079497A4A12783C23E3
:100950005A43891888737648764909783C2251436E
:100960004018807B6D498873B0480068642105F0A9
:1009700062FEFA21C9004843E121090105F05BFE4E
:100980006B496C4A12783C235A4389184887694856
:100990000078401C67490870664800780B2802DB25
:1009A00009206449087005F073FB1F20B94948709D
:1009B0000021642000F042FDB7480078002803D1F0
:1009C000052004F065FD33E0B348007801282FD1FD
:1009D000322005F0B9FB0020B0490870032004F074
:1009E00057FD0020AD490870322005F0ADFBAB4843
:1009F0000078012806D10020A8490870A848464977
:100A0000088015E00020A5490870032004F040FD8F
:100A10000020A2490870322005F096FB9F4800781C
:100A2000012805D100209D4908709D483A49088059
:100A300000F0B8FB00F030FF9A480078012857D149
:100A400000209849087098480078984908709248A2
:100A50000078002803D1052004F01AFD48E00320A7
:100A600004F016FD00208D490870C82090490880C8
:100A70008A480078002803D18D4800880028F7D1E3
:100A800000208B49088085480078012812D1002079
:100A90008249087082482049088029E0A70C00207C
:100AA00014000048890C0020580C00208D0C0020F8
:100AB0009A0C0020002079490870032004F0E8FC1B
:100AC000C8207B49088075480078002803D1784801
:100AD00000880028F7D10020754908806F48007809
:100AE000012805D100206D4908706D480A49088029
:100AF00069480078012838D1AC4800881E281FDAE0
:100B0000B248007800281BD10121022000F096FC99
:100B10000120AE49087022E0540C0020180000208B
:100B20009B0C00209C0C00209D0C00209E0C0020A3
:100B300024040020980C00209F0C0020A00C002012
:100B40009A4800883D280ADBA0480078012806D191
:100B50000021022000F072FC00209C4908709C4893
:100B60000088002801D102F0C3FCD1480088002889
:100B700005D149480078012801D100F039F94648EB
:100B80000078022801DBFFF7DEFA9248007801289E
:100B900003D091480078012802D101208F490870C4
:100BA00000F04EFF01F082FD8D4800788D490978F4
:100BB000884261D08A4800788A49087000208A49B2
:100BC000088087480078002856D188480078012896
:100BD00052D10020854908702F480078002803D1A1
:100BE000052004F055FC41E0142005F0ADFA032087
:100BF00004F04EFC002029490870C8202C490880C8
:100C000026480078002803D1294800880028F7D119
:100C100000202749088021480078012808D10020B9
:100C20001E4908701E48A24908801FE0340C0020AD
:100C300000201A490870032004F02AFCC8201C492F
:100C4000088016480078002803D119480088002839
:100C5000F7D100201649088010480078012805D1F6
:100C600000200E4908700E489149088025229149BC
:100C7000914C200005F02CFC03F048FE03F04CFBE7
:100C80008E480078012834D100208C49087000205B
:100C900015E000BF38000020840C00207E0C0020EE
:100CA00038180000830C0020760C0020750C002002
:100CB000520C0020012103AAC0B21154401CC0B242
:100CC0000828F7DB042203A97D4805F059FCD64823
:100CD0000088802149010143D3480180962005F016
:100CE00033FAD148008877490140CF480180FFF7A7
:100CF0002AFA75480078012800D026E500207249BC
:100D0000087034480078002800D01EE5324800788A
:100D1000002800D019E5C5480078002800D111E569
:100D2000142005F011FA032004F0B2FB0020C049A2
:100D30000870C820BF490880BD480078002803D14A
:100D4000BC4800880028F7D10020BA490880B8487C
:100D50000078012806D10020B5490870B6485449EA
:100D60000880F2E40020B2490870032004F090FBF0
:100D70000020AF490870C820AE490880AC48007810
:100D8000002803D1AB4800880028F7D10020A949EA
:100D90000880A7480078012800D0D6E40020A449A4
:100DA0000870A54842490880CFE4000040000020B8
:100DB00080B50121CA4805F03BFD0121C94805F075
:100DC00047FD0121DB4805F053FD01BDA80C0020C3
:100DD000500C0020790C00207A0C002042000020EA
:100DE0007C0C00207D0C0020600C00208D0C00206D
:100DF00000B583B08C4800888021090201438A48ED
:100E000001801020CC4908800C2000900120694608
:100E100048710120694608710120694688710020E7
:100E20006946C87169469020C00505F059FD0C203F
:100E3000CF4908800820C04908807B48008880216D
:100E400049010143784801800A20CA4908701420EA
:100E500005F07AF9744800888021490101437248FD
:100E600001800A20C3490870642005F06DF90C2048
:100E700000900220694608710020694688710120AF
:100E80006946C87103206946487169469020C005CB
:100E900005F026FD0820B849086063480088400432
:100EA000400C6149088064480149088007BD000082
:100EB000540C002034AA0008BC0B0020810C002038
:100EC00000F80008FFEF0000A20C002000B583B07E
:100ED0000320009003206946087100206946C8710C
:100EE00069469020C00505F0FBFC012209219020F5
:100EF000C00505F053FD01220A219020C00505F030
:100F00004DFDC020C00000900220694608710320FA
:100F10006946487100206946887101206946C87198
:100F200069469020C00505F0DBFC012202219020DB
:100F3000C00505F033FD012203219020C00505F016
:100F40002DFD0C20009002206946087100206946A2
:100F5000887101206946C871032069464871694655
:100F60009020C00505F0BCFC9820000200900320F2
:100F700069464871012069460871002069468871F8
:100F800001206946C87169469020C00505F0A8FC9B
:100F9000C02040017649088080200002774908601F
:100FA00018200090032069464871012069460871A5
:100FB00000206946887101206946C8716946C448A5
:100FC00005F08EFC10205C49088008206A49086002
:100FD000202000900320694648710020694608716E
:100FE00001206946C8716946B94805F079FC0122BB
:100FF0000621B74805F0D2FC01220721B44805F0CC
:10100000CDFCC0200090022069460871002069468E
:10101000887100206946C871032069464871694695
:10102000AB4805F05DFC07BD14000048840C0020AF
:101030007E0C0020520C00203818000000B58BB048
:10104000E12040020490002005900020069000203E
:101050000790002009900C20089004A9BE4805F0D4
:10106000E7FC00200090002001908020800002908A
:10107000002003906946B84805F037FD0121B648C5
:1010800005F046FD0122B549B34805F063FDE120B6
:101090004002049000200590002006900020079058
:1010A000002009900C20089004A9BE4805F0C0FC5F
:1010B00000200090002001908020800002900020FD
:1010C00003906946B74805F010FD0121B54805F0C9
:1010D0001FFD0122A149B34805F03CFD0BB000BD46
:1010E000140006000142400000B587B0CB4805F06F
:1010F0009DFD684605F0C1FD002000900020694676
:10110000087100200290002004900020059069469C
:10111000C24805F09AFDC14805F0D8FD0121BF483D
:1011200005F0B8FD0121BD4805F0F4FD0028F9D017
:1011300007B000BD020802002804004880B505225F
:10114000C0B20100B54805F0B3FD0421B34805F075
:10115000FBFDB24805F0D6FD0421B04805F0DAFDEC
:101160000028F9D0AD4805F0D2FD80B202BD0000E4
:10117000280000488A0C0020180400481800004885
:1011800010B5002107E05B1C521C92B28024640160
:10119000A242F8DB491C89B280B2814201D200220E
:1011A000F3E710BD10B582B00520FFF7E9FF9C48BA
:1011B00004782000401C9A4908700120FFF7BEFF08
:1011C0009849E4B20222544308530120FFF7D8FFA4
:1011D000934804782000401C914908700220FFF7D2
:1011E000ADFF9049E4B20222544308538C48007882
:1011F00040286BDB00208A49087000210024002071
:101200000DE0884AC0B202234343D25A8918854A66
:10121000C0B202234343D2185288A418801CC0B223
:101220004028EEDB08004009002804D008004009EF
:101230007D49088002E000207B4908807B480078D7
:1012400001282FD10020794908707948408A401E32
:1012500021004909884208D2200040097449898A3E
:10126000401A401E7349088002E00020714908803E
:1012700070480088694608806E4800886946488042
:10128000042269466C4805F07BF900206649088015
:10129000B7480088802149010143B5480180642096
:1012A000B44908706348008821004909884207D280
:1012B000200040095F490988401AAF49088002E0D0
:1012C0000020AD4908800120AC49087013BD000022
:1012D0000004004880B51B2069460870012069465B
:1012E0004870012069468870684605F02FFD1C2073
:1012F0006946087000206946487001206946887078
:10130000684605F023FD07206946087001206946FC
:101310004870012069468870684605F017FD102066
:101320006946087000206946487001206946887047
:10133000684605F00BFD01BD80B5002005F044FDB9
:10134000BC4805F03DFDFA20000105F041FD05F027
:1013500043FD05F045FD01BD0038014005010500D4
:10136000E0B50121022005F083FAB3480190B348AB
:101370006946088000206946088100206946488047
:101380006946AF4805F03AFDAB49AD4805F069FD47
:1013900001220121AA4805F087FD0121A84805F096
:1013A00062FD07BD0044004000B583B00521012067
:1013B00005F0A0FD202005F01EFE2020009000205A
:1013C000694608710C206946487101206946887198
:1013D000684605F0BFFD07BD00B587B0102005F0D9
:1013E00081F901218020800305F042FA002003905A
:1013F0000020069000200190002002900020049020
:10140000002005908F48009069468F4805F002FE45
:1014100001218D4805F032FE07B000BD00240140D7
:10142000A90C00207C0A0020480C0020920C00200F
:1014300024A800085C0C002000FC000810B5C0B215
:10144000012847D0022850D0032859D004285ED064
:101450003C2808D0462811D050281AD05A2823D02A
:1014600064282CD05AE0C9B2002903D0DF20774984
:10147000887002E01F20754988704FE0C9B20029CA
:1014800003D0DF207149C87002E01F206F49C87087
:1014900044E0C9B2002903D0DF206C49087002E0A3
:1014A0001F206A49087039E0C9B2002903D0DF2043
:1014B0006649487102E01F20644948712EE0C9B2B4
:1014C000002903D0DF206149087102E01F205F4935
:1014D000087123E0C9B2002903D0DF205B494870BE
:1014E00002E01F205949487018E0C9B2002903D012
:1014F000DF205649887102E01F20544988710DE0B1
:101500000821DF22514C200004F0B8FF06E008213A
:101510001F224E4C200004F0B1FFFFE71420FEF71D
:101520006BFF4B48006820218843494908604948BF
:10153000006820218843474908602021464805F07B
:1015400020FA0128F9D0414B08220C21C82004F0D0
:10155000ADFE0028F7D13E480068202101433C48F9
:1015600001603C480068202101433A48016010BDF9
:10157000140000488A0C00204A0C0020960C002021
:1015800010B5040035480078401F0B283DD2E4B266
:101590003D2C0EDA78202100C9B2401A0A2105F04C
:1015A00047F8201A2E492D4A1278895C4018C0B29B
:1015B0003EE0E4B2472C0EDA82202100C9B2401A84
:1015C0000A2105F035F8201A2549244A1278895C49
:1015D0004018C0B22CE0E4B25B2C0EDA8C20210063
:1015E000C9B2401A0A2105F023F8201A1C491B4AE7
:1015F0001278895C4018C0B21AE0E4B2622C02DAB8
:10160000601EC0B214E0622012E014480078102876
:101610000DDBE4B25B2C02DAA01EC0B208E0E4B23B
:10162000622C02DA601EC0B202E0622000E00020FC
:1016300010BD000055550000BF5D0000CF07000041
:1016400000040040270C9510005400403800002092
:10165000000401400404014000040048750C00200F
:101660000CAD000870B504000025002600207D495F
:101670000978012904D07B480078022800D0ECE0EA
:101680007948067802204643F6B23000022104F081
:10169000CFFF76490988814201DA2500DEE07348F0
:1016A00000883100C9B289B2884200D381E0E4B237
:1016B0001E2C01DA002021E0E4B25A2C0FDAF6B237
:1016C0006A480088301A6A49674A1278895C484338
:1016D00002214843F6B2310004F0AAFF0EE0F6B250
:1016E00062480088301A63495F4A1278895C48432F
:1016F00002214843F6B2310004F09AFF5A490978B2
:10170000052913D053D307291AD014D3092921D07E
:101710001BD30B2928D022D30D292FD029D30F2951
:1017200036D030D311293DD037D340E05249E4B20E
:10173000095D0D1A92E05149E4B2095D0D1A8DE080
:101740004F49E4B2095D0D1A88E04E49E4B2095DE3
:101750000D1A83E04C49E4B2095D0D1A7EE04B4955
:10176000E4B2095D0D1A79E04849E4B2095D0D1A49
:1017700074E04749E4B2095D0D1A6FE04449E4B2F0
:10178000095D0D1A6AE04349E4B2095D0D1A65E08E
:101790004049E4B2095D0D1A60E09549E4B2095D83
:1017A0000D1A5BE09249E4B2095D0D1A56E025007E
:1017B00054E02E480088F6B2B6B2B0424ED32A4862
:1017C0000078052813D046D3072818D013D309284A
:1017D0001DD018D30B2822D01DD30D2827D022D3FB
:1017E0000F282CD027D3112831D02CD333E0224816
:1017F000E4B2055D32E02148E4B2055D2EE0204808
:10180000E4B2055D2AE01F48E4B2055D26E01E480B
:10181000E4B2055D22E01D48E4B2055D1EE01B4810
:10182000E4B2055D1AE01A48E4B2055D16E0184816
:10183000E4B2055D12E01748E4B2055D0EE015481C
:10184000E4B2055D0AE06A48E4B2055D06E0684876
:10185000E4B2055D02E0250000E025002800C0B2EA
:1018600070BD00007C0C0020750C0020600C002076
:1018700064AC000878AC00087CA40008E4A400086C
:101880004CA50008B4A500081CA6000884A6000802
:10189000ECA6000854A7000880B556480078012837
:1018A00000D0A4E0002053490870002000E0401C54
:1018B000C0B27E2812DA50490988504AC0B20223C9
:1018C0004343D25A9142F2D2C0B2002803D0401E04
:1018D0004B49087002E000204949087049480078E7
:1018E00001280ED14848007845490978884210D22D
:1018F00043480078444908704148007843490870DB
:1019000007E03F480078414908703D4800783E496B
:101910000870002000E0401CC0B232280ADA3C49BE
:1019200009883C4AC0B202234343D25A9142F2D2C0
:101930003949087030480088652803DB01203749A1
:1019400008700BE000203549087004F0A1FB1F204F
:101950003349487000210120FFF770FD2F480078BF
:1019600030490978884203D12F48007801283ED1B8
:101970002A4800782B49087028480078002830D180
:1019800029480078012806D1002027490870AF2097
:10199000400004F0D9FB0020244908702448007856
:1019A000002803D1052003F073FD20E0782004F027
:1019B000CBFB032003F06CFD00201E490870C820FB
:1019C0001D4908801B480078002803D11A48008868
:1019D0000028F7D100201849088000201549087018
:1019E00005E0002010490870FA201449088001BD64
:1019F000BCA70008960C0020480C002080A300081B
:101A0000A30C00206C0C0020A40C0020740C0020FF
:101A10004A0C002024A80008760C00207F0C00202F
:101A200038000020800C0020910C0020750C002054
:101A3000840C00207E0C0020520C0020500C002052
:101A400010B5CA480078012801D000F0FCFDC84854
:101A50000078012801D000F0F6FDC6480078012882
:101A600001D000F0F0FD0020C0490870C2480078A5
:101A7000012800D004E2C148008840210143BF484A
:101A800001800120BE4908700120BE490870BE488F
:101A90000078FFF7E7FDBD490870BC480078BC49F5
:101AA0000870BC480078FFF76BFDB849097881429F
:101AB00001D200F0B5FD0020AF490870AF480088A2
:101AC000B5490140AD4801800020AD4908700120B2
:101AD000B24908700020B2490870FA20C000B1492C
:101AE00008800120CE4908700020AF490870CD4819
:101AF0000078012806D1CC48CC4908600120CC49A7
:101B0000087002E00020CA490870A24800786428E2
:101B100001D000F085FDC7480088802149010143BC
:101B2000C44801800120C44908700020C3490880CE
:101B3000C3480078002802D1042003F0A9FC00204B
:101B4000904908700020BF4908803220BE490870C3
:101B50003020BD494870BD4800780A2104F068FD76
:101B60003030B9498870B94800780A2104F060FD26
:101B70003031B548C170B64800780A2104F058FDEC
:101B80003030B1490871B24800780A2104F050FDA4
:101B90003031AD484171AF4800780A2104F048FD6A
:101BA0003030A9498871AB4800780A2104F040FD23
:101BB0003031A548C171A84800780A2104F038FDE9
:101BC0003030A649A64A12783C235A438918087235
:101BD000A248A34909783C2251434018007A9A4907
:101BE00008729D4800780A2104F022FD30319B489C
:101BF0009B4A12783C235A4380184172974898496F
:101C000009783C2251434018407A8F4948729548E0
:101C100000780A2104F00CFD30309049904A127887
:101C20003C235A43891888728C488D4909783C2294
:101C300051434018807A844988728A4800780A2182
:101C400004F0F6FC30318548854A12783C235A432B
:101C50008018C1728148824909783C22514340185A
:101C6000C07A7949C872804800780A2104F0E0FC03
:101C700030307A497A4A12783C235A4389180873DB
:101C80007648774909783C2251434018007B6E49D9
:101C90000873754800780A2104F0CAFC30316F4897
:101CA0006F4A12783C235A43801841736B486C4941
:101CB00009783C2251434018407B63494873002017
:101CC0006649674A12783C235A43891888736348E7
:101CD000634909783C2251434018807B5A498873F4
:101CE00062480068642104F0A6FCFA21C900484358
:101CF000E121090104F09FFC5849594A12783C231C
:101D00005A438918488756480078401C544908703F
:101D1000534800780B2802DB0920514908704848D5
:101D20000078002803D1052003F0B2FB5CE003201B
:101D300003F0AEFB00204E490870C8204D490880D2
:101D40004B480078002803D14A4800880028F7D182
:101D500000204849088046480078012826D1002004
:101D6000434908704448454908803DE0700C002014
:101D70007F0C00207A0C00206C0C0020140400481A
:101D80008E0C00207C0C0020A40C0020740C002081
:101D9000A50C00206E0C0020BFFF0000730C00207B
:101DA000770C00204C0C00206F0C002000203049E4
:101DB0000870032003F06CFBC8202E4908802C48D3
:101DC0000078002803D12B4800880028F7D1002094
:101DD0002849088026480078012805D10020244998
:101DE00008702548254908800020CB49087001214A
:101DF000CA480078FFF722FBC948CA49088000207A
:101E0000C64908700020D8490870002004490870AD
:101E10002522D649D64C200004F05AFB00F000FCE5
:101E2000780C00206D0C0020F0C60200300C002061
:101E3000720C002014000048890C0020580C00206F
:101E4000840C0020600C0020180000209B0C002057
:101E50009C0C00209D0C00209E0C002024040020DF
:101E6000980C00209F0C0020A00C0020340C0020B7
:101E70007E0C0020520C002038180000540C00206A
:101E8000B9480078012800D0DBE1BA480078012881
:101E900000D0B8E1B8480078A0490978C91E884246
:101EA00008DAB648008840210143B4480180012087
:101EB000B3490870B048007898490978C91E88422B
:101EC00000DA9DE1AD480088AE490140AB48018091
:101ED0000020AB4908700020A64908700020A249E4
:101EE00008708E480078A449087001218B4800785A
:101EF000FFF7A4FAA4480078002800D080E1A348A6
:101F00000088802149010143A04801800120A049A7
:101F1000087000209F4908809F480078002802D15F
:101F2000042003F0B5FA0020DD4908700020DD49E7
:101F300008803220DC4908703020DB494870DB48DB
:101F400000780A2104F074FB3030D7498870D748F4
:101F500000780A2104F06CFB3031D348C170D448BA
:101F600000780A2104F064FB3030CF490871D04872
:101F700000780A2104F05CFB3031CB484171CD4838
:101F800000780A2104F054FB3030C7498871C948F1
:101F900000780A2104F04CFB3031C348C171C648B7
:101FA00000780A2104F044FB3030C449C44A127856
:101FB0003C235A4389180872C048C14909783C2219
:101FC00051434018007AB8490872BB4800780A218A
:101FD00004F02EFB3031B948B94A12783C235A43F9
:101FE00080184172B548B64909783C2251434018DF
:101FF000407AAD494872C34800780A2104F018FBC2
:102000003030AE49AE4A12783C235A438918887260
:10201000AA48AB4909783C2251434018807AA2492A
:102020008872B84800780A2104F002FB3031A348D6
:10203000A34A12783C235A438018C1729F48A04992
:1020400009783C2251434018C07A9749C872AE487B
:1020500000780A2104F0ECFA30309849984A127856
:102060003C235A43891808739448954909783C22BF
:1020700051434018007B8C490873A34800780A211B
:1020800004F0D6FA30318D488D4A12783C235A43F9
:102090008018417389488A4909783C225143401885
:1020A000407B8149487300208449854A12783C234B
:1020B0005A43891888738148814909783C225143E1
:1020C0004018807B7849887390480068642104F048
:1020D000B2FAFA21C9004843E121090104F0ABFA40
:1020E0007649774A12783C235A43891848877448BE
:1020F0000078401C72490870714800780B2802DB98
:1021000009206F4908702448007800280CD1052068
:1021100003F0BEF960E000BF7A0C00206E0C0020D6
:10212000B80B00004E0C0020032003F0B1F9002092
:1021300077490870C82077490880754800780028DA
:1021400003D1744800880028F7D100207149088025
:102150006F480078012821D100206D4908706E4831
:102160006E49088038E000BF730C002034AA0008D4
:10217000BC0B0020770C0020740C002014040048D5
:102180008E0C0020BFFF00006D0C002014000048E2
:10219000890C0020580C0020840C002000205C4991
:1021A0000870032003F074F9C8205A490880584881
:1021B0000078002803D1574800880028F7D1002074
:1021C0005449088052480078012805D10020504920
:1021D0000870514851490880002051490870012178
:1021E000E2480078FFF72AF94E484F49088000205E
:1021F000DE49087025224D494D4C200004F068F955
:1022000000204C4908704C480078D8490978884229
:1022100004D3D64800784849087001E2D3480078D2
:1022200045490978401A032805DBD0480078801E0C
:1022300041490870F4E1CD480078401E3E490870DD
:10224000EEE1DF480078012800D0E9E1DD480078C0
:10225000012800D0E4E1032011490870DA48007831
:1022600001282FD1D948008840210143D748018057
:102270000120D749087030480078BC490978891E88
:10228000884232DBD1480088D2490140CF480180E2
:102290000020CF4908700020CB49087025E000BF1E
:1022A0007C0C0020600C0020180000209B0C0020FB
:1022B0009C0C00209D0C00209E0C0020240400207B
:1022C000980C00201C480078A8490978C91E88424B
:1022D0000BDABE48008840210143BC480180012040
:1022E000BB4908700120B8490870134800789F491D
:1022F0000978491E884221DA9C480078401E0E4920
:10230000087027E09F0C0020A00C0020340C002057
:102310007E0C0020520C002038180000540C0020C5
:102320007A0C0020B80B00004E0C002034AA0008E4
:10233000BC0B0020780C0020740C00208B48007827
:10234000401CC1490978884204DA88480078401C5A
:10235000BD490870BD480078012800D060E1BC4844
:102360000088802149010143B94801800120B94911
:1023700008700020B8490880B8480078002802D1C9
:10238000042003F085F803F083FE1F20B449487051
:1023900000210120FFF752F83220B24908703020A6
:1023A000B0494870B04800780A2104F041F9303053
:1023B000AC498870AC4800780A2104F039F9303112
:1023C000A848C170A94800780A2104F031F93030DA
:1023D000A4490871A54800780A2104F029F9303190
:1023E000A0484171A24800780A2104F021F9303058
:1023F0009C4988719E4800780A2104F019F930310F
:102400009848C1719B4800780A2104F011F93030D6
:1024100099499A4A12783C235A4389180872964877
:10242000964909783C2251434018007A8D49087238
:10243000904800780A2104F0FBF830318E488F4A2A
:1024400012783C235A43801841728B488B49097893
:102450003C2251434018407A8249487288480078AB
:102460000A2104F0E5F830308349844A12783C238D
:102470005A43891888728048804909783C22514320
:102480004018807A774988727D4800780A2104F0E4
:10249000CFF830317848794A12783C235A43801873
:1024A000C1727548754909783C2251434018C07A79
:1024B0006C49C872734800780A2104F0B9F83030CA
:1024C0006D496E4A12783C235A43891808736A484A
:1024D0006A4909783C2251434018007B61490873DE
:1024E000684800780A2104F0A3F830316248634A52
:1024F00012783C235A43801841735F485F4909783A
:102500003C2251434018407B5649487300205A49A9
:102510005A4A12783C235A438918887356485749B7
:1025200009783C2251434018807B4E4988735648B5
:102530000068642104F07FF8FA21C9004843E121D2
:10254000090104F078F84C494C4A12783C235A436C
:102550008918488749480078401C4849087047480E
:1025600000780B2805DB0920444901E06E0C0020AF
:1025700008703A480078002803D1052002F088FF4F
:1025800048E0032002F084FF002040490870C82082
:102590003F4908803D480078002803D13C48008826
:1025A0000028F7D100203A490880384800780128EF
:1025B00012D100203549087036483749088029E093
:1025C0006D0C0020720C00206F0C002014040048D9
:1025D0008E0C0020BFFF000000202C490870032053
:1025E00002F056FFC8202A490880284800780028B1
:1025F00003D1274800880028F7D10020244908800B
:1026000022480078012805D100202049087021487F
:102610002149088025222149214C200003F058FF40
:1026200020480078401C1F4908701E480078142874
:1026300009DB1D480078002805D0002019490870E2
:10264000032002F025FF10BD740C00207B0C00203D
:1026500014000048890C0020580C0020840C002035
:1026600038000020180000209B0C00209C0C00204B
:102670009D0C00209E0C002024040020980C0020BB
:102680009F0C0020A00C0020340C00207E0C0020A9
:10269000520C002038180000540C002034AA000806
:1026A000BC0B0020930C00207A0C002010B58D4844
:1026B0000078012801D000F0E7FE8B48007801285F
:1026C00001D000F0E1FE89480078012801D000F037
:1026D000DBFE00208349087085480078012800D07F
:1026E0001AE1E548008840210143E34801800120C8
:1026F000E249087001207F4908707F48007800286F
:1027000059D07E480078FEF7ADFFDD490870DC48FF
:102710000078622801DA00F09DFE6420D849087034
:1027200002207449087076480088401E7449088069
:1027300073480088002801D000F08CFECE48008845
:10274000E7490140CC4801800020CC4908700020B6
:1027500067490870002068490870002069490870BE
:102760000020694908700020DE4908700020674990
:102770000880DD480078012814D1DC480078DC4965
:102780004843FA21C9004018DA490860012060492D
:10279000087001205F49087001216420FEF74EFE99
:1027A00000F058FE01216420FEF748FE012059493F
:1027B000087000F04FFE5348007800284BD04F4877
:1027C0000078FEF74FFFAE490870AD4800786228E8
:1027D00001DA00F03FFE6420A9490870A64800888D
:1027E000BF490140A44801800020A449087000208E
:1027F0003F49087000204049087000204149087096
:102800000020414908700020B649087000203F4967
:102810000880B5480078012814D1B4480078B4493C
:102820004843FA21C9004018B249086001203849DC
:10283000087001203749087001216420FEF7FEFD71
:1028400000F008FE01216420FEF7F8FD0120314967
:10285000087000F0FFFD29480078FEF703FF884963
:102860000870E2480078FEF78BFE854909788142BE
:1028700001D200F0EFFD00201D4908707E4800885D
:10288000974901407C48018000207C490870012064
:10289000944908700020D6490870FA20C000D54934
:1028A00008800120D44908700020174908708E481C
:1028B000007801280DD18D4800788D494843FA21D0
:1028C000C90040188B49086001201149087000F0C8
:1028D000C1FD00200E49087000200C49088000F05E
:1028E000B9FD00BF700C00207F0C0020790C002087
:1028F0006C0C00207C0C0020940C0020A40C002008
:102900005E0C0020950C00206F0C0020600C002055
:10291000720C0020820C002072480078012800D040
:1029200006E2B3480078012800D0BDE154480078A1
:10293000AE490978C91E884208DA4F48008840210C
:1029400001434D48018001204C4908704C480078F3
:10295000A6490978C91E884200DAA2E146480088E3
:102960005F4901404448018000204449087000202C
:102970009F49087000205B4908705C4800785C49FA
:1029800048435C490860994800783D490870002038
:10299000AA49088001216420FEF750FD52480078C2
:1029A000002800D07DE1CF48008880214901014303
:1029B000CC4801800120CC4908700020CB49088018
:1029C000CB480078002802D1042002F061FD0020ED
:1029D000C84908700020994908803220C64908700B
:1029E0003020C5494870C54800780A2103F020FE10
:1029F0003030C1498870C14800780A2103F018FEC0
:102A00003031BD48C170BE4800780A2103F010FE85
:102A10003030B9490871BA4800780A2103F008FE3D
:102A20003031B5484171B74800780A2103F000FE03
:102A30003030B1498871B34800780A2103F0F8FDBD
:102A40003031AD48C171B04800780A2103F0F0FD83
:102A50003030AE49AE4A12783C235A438918087286
:102A6000AA48AB4909783C2251434018007AA24950
:102A70000872A54806E000BF140400488E0C002030
:102A8000740C002000780A2103F0D2FD30319F48F9
:102A90009F4A12783C235A43801841729B489C49B4
:102AA00009783C2251434018407A9349487299482A
:102AB00000780A2103F0BCFD30309449944A127822
:102AC0003C235A43891888729048914909783C22DE
:102AD00051434018807A884988728E480CE000BFC4
:102AE000BFFF0000730C00206D0C0020990C00202B
:102AF00070170000300C002000780A2103F098FDC8
:102B000030318248824A12783C235A438018C1727D
:102B10007E487F4909783C2251434018C07A764963
:102B2000C8727D4800780A2103F082FD3030774971
:102B3000774A12783C235A438918087373487449BA
:102B400009783C2251434018007B6B490873724856
:102B500000780A2103F06CFD30316C486C4A127821
:102B60003C235A43801841736848694909783C22DC
:102B700051434018407B6049487300206349644AD0
:102B800012783C235A438918887360486049097851
:102B90003C2251434018807B574988735F48006846
:102BA000642103F048FDFA21C9004843E1210901ED
:102BB00003F041FD5549564A12783C235A4389187F
:102BC000488753480078401C5149087050480078A5
:102BD0000B2802DB09204E49087045480078002880
:102BE0000CD1052002F054FC48E000BF6E0C002020
:102BF000770C00204C0C0020780C0020032002F001
:102C000047FC002046490870C820464908804448CF
:102C10000078002803D1434800880028F7D100201D
:102C2000404908803E480078012809D100203C49ED
:102C300008703D483D49088020E000BF600C00203E
:102C4000002037490870032002F022FCC8203549D3
:102C5000088033480078002803D1324800880028D3
:102C6000F7D100202F4908802D480078012805D190
:102C700000202B4908702C482C4908800020D2499C
:102C8000087001216420FEF7D9FBD048D0490880A4
:102C90000020D04908702522CF49D04C200003F0F5
:102CA00017FC0020CE490870CE480078C949097841
:102CB000884204D3C7480078CA490870CAE3C548A7
:102CC0000078C8490978401A032805DBC148007814
:102CD000801EC4490870BDE3BE480078401EC1494B
:102CE0000870B7E314000048890C0020580C00203D
:102CF000840C00207C0C0020180000209B0C00207D
:102D00009C0C00209D0C00209E0C00202404002020
:102D1000980C00209F0C0020A00C0020340C0020F8
:102D20007E0C0020520C002038180000540C0020AB
:102D3000C8480078012800D096E10420C6490870F0
:102D4000C6480078012805D1C5480078C5494843E0
:102D5000DC4908609F480078A2490978884200D27F
:102D600078E30020BB490870BC480078002800D0F8
:102D700070E3D5480088802149010143D248018091
:102D80000120D24908700020D1490880D14800783C
:102D9000002802D1042002F07BFB0020AE4908701D
:102DA0000020CD4908803220CC4908703020CB4922
:102DB0004870CB4800780A2103F03AFC3030C7490C
:102DC0008870C74800780A2103F032FC3031C348CC
:102DD000C170C44800780A2103F02AFC3030BF4992
:102DE0000871C04800780A2103F022FC3031BB484A
:102DF0004171CD4800780A2103F01AFC3030B74900
:102E00008871C94800780A2103F012FC3031B348B8
:102E1000C171C64800780A2103F00AFC3030C44969
:102E2000C44A12783C235A4389180872C048C149E1
:102E300009783C2251434018007AA8490872BB48DF
:102E400000780A2103F0F4FB3031B948B94A12780E
:102E50003C235A4380184172B548B64909783C2250
:102E600051434018407A9D494872B34800780A217E
:102E700003F0DEFB3030AE49AE4A12783C235A43B1
:102E800089188872AA48AB4909783C2251434018F6
:102E9000807A92498872A84800780A2103F0C8FB1A
:102EA0003031A348A34A12783C235A438018C17298
:102EB0009F48A04909783C2251434018C07A87496D
:102EC000C8729E4800780A2103F0B2FB303098495E
:102ED000984A12783C235A438918087394489549B4
:102EE00009783C2251434018007B7C490873934881
:102EF00000780A2103F09CFB30318D488D4A12780E
:102F00003C235A438018417389488A4909783C22F6
:102F100051434018407B7149487300208449854AD9
:102F200012783C235A43891888738148814909786B
:102F30003C2251434018807B684988738048006870
:102F4000642103F078FBFA21C9004843E12109011B
:102F500003F071FB7649774A12783C235A4389186B
:102F6000488774480078401C72490870714800789E
:102F70000B2802DB09206F490870564800780028AA
:102F800003D1052002F084FA4CE0032002F080FA1D
:102F900000206C490870C8206B4908806948007897
:102FA000002803D1684800880028F7D1002066492E
:102FB000088064480078012816D100206149087013
:102FC0006248634908802DE0790C0020B80B0000AE
:102FD0004E0C00206E0C002034AA0008BC0B002010
:102FE000780C0020740C0020002056490870032043
:102FF00002F04EFAC8205449088052480078002850
:1030000003D1514800880028F7D100204E4908809C
:103010004C480078012805D100204A4908704B48E7
:103020004B4908800020E449087000204949087095
:1030300000204949087001216420FEF7FFF9474844
:103040004749088025224749474C200003F040FAB1
:1030500000E200BF820C00207C0C00206D0C0020E0
:10306000990C00207017000040480078012800D01B
:10307000F0E138480078012800D0EBE103203C491A
:1030800008703C48007801282ED13B480088402138
:1030900001433948018001203849087038480078D8
:1030A000C5490978891E884231DB33480088354993
:1030B00001403148018000203049087000202D492E
:1030C000087024E0300C002014000048890C002017
:1030D000580C0020840C0020600C002018000020F8
:1030E0009B0C00209C0C002025480078B2490978F0
:1030F000C91E88420BDA20480088402101431E483F
:10310000018001201D49087001201A4908701C48DF
:103110000078A9490978491E884235DAA64800781E
:10312000401E174908703BE09D0C00209E0C0020BB
:1031300024040020980C00209F0C0020A00C0020EC
:10314000340C00207E0C0020520C002038180000A7
:10315000540C0020720C0020790C0020B80B0000E9
:103160004E0C002034AA0008BC0B00206D0C00207F
:103170007C0C00206F0C0020140400488E0C0020F2
:10318000740C0020BFFF00008B480078401CBF4932
:103190000978884204DA88480078401CBB490870E6
:1031A000BB480078012800D054E1BA48008880214B
:1031B00049010143B74801800120B7490870002048
:1031C000B6490880B6480078002802D1042002F0F1
:1031D0005FF902F05DFF1F20B24948700021012015
:1031E000FEF72CF93220B04908703020AE49487003
:1031F000AE4800780A2103F01BFA3030AA498870E3
:10320000AA4800780A2103F013FA3031A648C170A9
:10321000A74800780A2103F00BFA3030A249087160
:10322000A34800780A2103F003FA30319E48417127
:10323000A04800780A2103F0FBF930309A498871E0
:103240009C4800780A2103F0F3F930319648C171A7
:10325000994800780A2103F0EBF930309749984AF1
:1032600012783C235A438918087294489449097883
:103270003C2251434018007A8B4908728E480078EE
:103280000A2103F0D5F930318C488D4A12783C235D
:103290005A43801841728948894909783C22514330
:1032A0004018407A80494872864800780A2103F025
:1032B000BFF930308149824A12783C235A43891839
:1032C00088727E487E4909783C2251434018807AB2
:1032D000754988727B4800780A2103F0A9F93031DA
:1032E0007648774A12783C235A438018C172734853
:1032F000734909783C2251434018C07A6A49C87220
:10330000714800780A2103F093F930306B496C4A18
:1033100012783C235A438918087368486849097829
:103320003C2251434018007B5F490873664800788F
:103330000A2103F07DF930316048614A12783C235C
:103340005A43801841735D485D4909783C225143D6
:103350004018407B5449487300205849584A127815
:103360003C235A43891888735448554909783C22AC
:1033700051434018807B4C4988735448006864214D
:1033800003F059F9FA21C9004843E121090103F08A
:1033900052F94A494A4A12783C235A4389184887C5
:1033A00047480078401C46490870454800780B287B
:1033B00005DB0920424901E06E0C00200870384806
:1033C0000078002803D1052002F062F83CE00320D9
:1033D00002F05EF800203E490870C8203D49088090
:1033E0003B480078002803D13A4800880028F7D1EC
:1033F00000203849088036480078012806D100208E
:10340000334908703448354908801DE000203049B0
:103410000870032002F03CF8C8202E4908802C4890
:103420000078002803D12B4800880028F7D100201D
:103430002849088026480078012805D10020244921
:10344000087025482549088025222549254C20005B
:1034500003F03EF824480078401C234908702248B5
:103460000078142810DB2148007800280CD00020B8
:103470001D490870032002F00BF809480078012864
:1034800002D10A2002F060FE10BD0000740C002082
:103490007B0C002014000048890C0020580C0020F0
:1034A000840C002038000020180000209B0C002015
:1034B0009C0C00209D0C00209E0C00202404002069
:1034C000980C00209F0C0020A00C0020340C002041
:1034D0007E0C0020520C002038180000540C0020F4
:1034E00034AA0008BC0B0020930C0020790C0020AB
:1034F000F0B59DB00025A3480078002841D0642095
:1035000002F022FE802189000022C94C200002F036
:10351000B5FF022001F0BCFF00209B490870C820C5
:10352000CA49088098480078002803D1C748008815
:103530000028F7D10020C549088093480078012869
:103540001FD1BB48C07A31281BD1C148C14908806E
:1035500087229200C049C14C200003F0D1FD0B949A
:103560003C210022BE4C200002F088FF85480078F4
:10357000401E84490870B648B64908800020824938
:103580000870B8480078012801D000F0AEFE002095
:10359000B4490870802189000022A54C200002F067
:1035A0006DFF002078490870042001F071FFC820E9
:1035B000A649088074480078002803D1A3480088F1
:1035C0000028F7D10020A14908806F480078012821
:1035D00001D000F08AFE9648C07A312801D000F070
:1035E00084FE9B489B49088000206749087022237D
:1035F0008F4A9D4901A801F046F9684600793128B3
:1036000003D101209949087002E000209749087011
:103610008748C07D3138092801D300F066FE0120BB
:10362000924908702223824A914901A801F02BF99E
:10363000112100220DAC200002F020FF0B9401A903
:103640000DA803F070FD112100228A4C200002F029
:1036500015FF0B940DA9874803F065FD2223744ADA
:10366000854901A801F00FF92521002212AC2000A4
:1036700002F004FF01A912A803F055FD22236C4AB1
:103680007E4901A801F0FFF801A803F05AFDC0B27D
:1036900004280DD1684600796421484301A949787E
:1036A0000A225143401801A989784618303611E0A2
:1036B000C0B2032808D1684600790A21484301A90D
:1036C00049784618103E05E0C0B2022802D168468B
:1036D0000679303E2223564A694901A801F0D3F801
:1036E000684669460979303941702223504A654954
:1036F00001A801F0C8F801A803F023FDC0B2022818
:103700000AD16846694609790A22514301AA5278CA
:1037100089181039017007E0C0B2012804D1684649
:1037200069460979303901702223414A564901A876
:1037300001F0A9F801A803F004FDC0B2022808D1E5
:10374000684600790A21484301A949784718103F83
:1037500005E0C0B2012802D168460779303F222334
:10376000334A4A4901A801F08EF801A803F0E9FCA8
:10377000C0B201280AD169460979302906D101254C
:1037800025E000BF980C00207E0C0020C0B2062867
:103790001DD10CA8694609790A22514301AA527821
:1037A00089181039017001A880780A21484301A9BD
:1037B000C978401810386946C87001A800790A21F4
:1037C000484301A949794018103869468870222376
:1037D000174A2F4901A801F056F800242100684635
:1037E0000479303C0C4301A8407830384000204335
:1037F000040001A88078303880002043040001A82C
:10380000C0783038C0002043040001A800790001CE
:103810002043040001A8407940012043040001A88E
:1038200080798001204304002223014A194901E0E4
:103830007C06002001A801F026F80422164901A800
:1038400003F087FC002829D1012028E0520C002039
:1038500038180000540C00206004002024040020CC
:1038600040060020880C00208CAC0008420000209C
:1038700010AE0008040C002018AE000820AE0008AE
:1038800028AE000830AE00082CAD000838AD0008A6
:1038900038AE000840AE000848AE00080020EDB287
:1038A000012D00D0AEE30025C0B2012800D0C3E155
:1038B000C9480078401F102800D34BE1C748007862
:1038C000012800D046E1C6480078002800D041E138
:1038D000DC480078002800D03CE102F0D9FB1F2032
:1038E000C04948700120D74908700020BE490860CF
:1038F0000120BE49087068464078BD490870684696
:103900000078BC4908706846007896214900414318
:10391000B9480180B9480770B948067025210022CE
:10392000B84C200002F0AAFD12A9B64803F0FBFB38
:10393000FFB2002F05D00120B3490870DF20A9494C
:10394000487001216420FDF779FD0120AF49B04A9C
:1039500012783C235A438854AE4800780A2102F07A
:1039600067FE3030A949AA4A12783C235A43891885
:103970004870A84800780A2102F05AFE3031A34866
:10398000A34A12783C235A4380188170A2480078D9
:103990000A2102F04DFE30309C499D4A12783C23AA
:1039A0005A438918C8709C4800780A2102F040FEEA
:1039B00030319648964A12783C235A438018017158
:1039C000964800780A2102F033FE30308F49904A41
:1039D00012783C235A4389184871904800780A218C
:1039E00002F026FE30318948894A12783C235A4336
:1039F0008018817100208549854A12783C235A43FA
:103A00008918C871744800788049814A12783C232B
:103A10005A438918C8737D487D4909783C2251432F
:103A200040180674684640787849794A12783C23F1
:103A30005A4389184874684600787449744A127861
:103A40003C235A43891888747048714909783C228C
:103A500051434018C774252100226C486C4B1B78D9
:103A60003C246343C4181434200002F007FD12A95B
:103A70006648674A12783C235A438018143003F092
:103A800052FB0020664908800120664908703220F8
:103A900002F05AFB002064490870032001F0F8FC92
:103AA000C8206249088060480078002803D15F4838
:103AB00000880028F7D100205C4908805A48007827
:103AC000012805D15A485B490880002056490870F2
:103AD000322002F039FB002053490870052001F024
:103AE000D7FCC820514908804F480078002803D1EE
:103AF0004E4800880028F7D100204C4908804A48E9
:103B00000078012806D14A484A49088000204649E1
:103B10000870EAE3002044490870052001F0B8FC71
:103B2000C8204249088040480078002803D13F4817
:103B300000880028F7D100203C4908803A480078E6
:103B4000012800D0D1E33A483A490880002036499C
:103B50000870CAE3322002F0F7FA002032490870F8
:103B6000052001F095FCC820304908802E480078D7
:103B7000002803D12D4800880028F7D100202B49C8
:103B8000088029480078012806D129482949088059
:103B9000002025490870A8E300202349087005206B
:103BA00001F076FCC820214908801F4800780028D1
:103BB00003D11E4800880028F7D100201B49088047
:103BC00019480078012800D08FE319481949088066
:103BD00000201549087088E3750C00207F0C002038
:103BE0007A0C002038000020340C00206C0C0020DF
:103BF000950C0020940C00205E0C0020990C0020F5
:103C00006E0C0020BC0B00206D0C00202404002052
:103C1000980C00209E0C00209F0C0020A00C00207F
:103C2000600C00207C0C00207E0C0020520C002038
:103C300038180000540C002002480078012807D0F2
:103C4000D84801E0790C00200078012800D087E1F5
:103C5000D5480088802149010143D34801800120D3
:103C6000D24908700020D24908803220D14908701A
:103C70003020D0494870D04800780A2102F0D8FCA2
:103C80003030CC498870CC4800780A2102F0D0FC52
:103C90003031C848C170C94800780A2102F0C8FC18
:103CA0003030C4490871C54800780A2102F0C0FCD0
:103CB0003031C0484171C24800780A2102F0B8FC96
:103CC0003030BC498871BE4800780A2102F0B0FC4F
:103CD0003031B848C171D24800780A2102F0A8FCFE
:103CE0003030D049D04A12783C235A4389180872A0
:103CF000CC48CD4909783C2251434018007AAD495F
:103D00000872C74800780A2102F092FC3031C54899
:103D1000C54A12783C235A4380184172C148C249AF
:103D200009783C2251434018407AA2494872BF4862
:103D300000780A2102F07CFC3030BA49BA4A127885
:103D40003C235A4389188872B648B74909783C22FF
:103D500051434018807A97498872B44800780A2104
:103D600002F066FC3031AF48AF4A12783C235A4328
:103D70008018C172AB48AC4909783C2251434018C5
:103D8000C07A8C49C872AA4800780A2102F050FC17
:103D90003030A449A44A12783C235A438918087346
:103DA000A048A14909783C2251434018007B814931
:103DB00008739F4800780A2102F03AFC3031994894
:103DC000994A12783C235A43801841739548964982
:103DD00009783C2251434018407B764948730020C3
:103DE0009049914A12783C235A43891888738D4828
:103DF0008D4909783C2251434018807B6D49887376
:103E00008C480068642102F016FCFA21C90048437E
:103E1000E121090102F00FFC8249834A12783C2318
:103E20005A438918488780480078401C7E490870AA
:103E30007D4800780B2802DB09207B49087002F0DE
:103E400027F91F20D049487000210120FDF7F6FA1C
:103E5000322002F079F90020CC490870032001F0EB
:103E600017FBC820CA490880C8480078002803D139
:103E7000C74800880028F7D10020C5490880C348FA
:103E80000078012806D10020C0490870C148C24905
:103E900008801DE00020BD490870032001F0F8FAF9
:103EA000C820BB490880B9480078002803D1B84829
:103EB00000880028F7D10020B5490880B348007871
:103EC000012805D10020B1490870B248B2490880E4
:103ED0002522B249B24C200002F0FAFA322002F058
:103EE00033F90020A9490870062001F0D1FAC82052
:103EF000A7490880A5480078002803D1A448008875
:103F00000028F7D10020A2490880A04800780128A5
:103F100006D1A048A049088000209C490870E4E12F
:103F200000209A490870062001F0B2FAC82098498A
:103F3000088096480078002803D19548008800281A
:103F4000F7D100209249088090480078012800D0DD
:103F5000CBE190489049088000208C490870C4E16A
:103F6000322002F0F1F8002088490870062001F0A4
:103F70008FFAC8208649088084480078002803D139
:103F8000834800880028F7D10020814908807F48B5
:103F90000078012816D17F487F49088000207B499E
:103FA0000870A2E17A0C002014000048890C00205F
:103FB000580C0020180000209B0C00209C0C0020B6
:103FC0009D0C0020002071490870062001F060FA65
:103FD000C8206F4908806D480078002803D16C48DC
:103FE00000880028F7D100206949088067480078D8
:103FF000012800D079E167486749088000206349BB
:10400000087072E1C0B2012800D0EBE0B848007837
:10401000112802DB0020B649087000250DE000BF22
:104020009E0C002024040020980C00209F0C0020EF
:10403000A00C0020340C00206D1CEDB2102D0BDA0A
:1040400010220DA9AB48EDB23E236B43C0180830D7
:1040500003F07FF80028EFD1EDB2102D72DBA548F8
:10406000A34909783E225143465468464078A14905
:104070009F4A12783E235A43891848706846007850
:104080009C499B4A12783E235A4389188870994864
:10409000974909783E2251434018C7700CA8007810
:1040A0009449934A12783E235A4389180871684606
:1040B000C07890498E4A12783E235A438918487135
:1040C000684680788B498A4A12783E235A43891879
:1040D00088718848864909783E2251434018C47146
:1040E0000DA98448824A12783E235A43801808302A
:1040F00003F019F812A97F487D4A12783E235A43EB
:104100008018193003F00FF879480078401C78497E
:1041100008707748007811280EDB0F20744908706A
:10412000754A7649734C200002F0EAFF3E210022D6
:10413000734D280002F0A2F9F82292006D497148EF
:1041400002F01EFA322001F0FFFF00200F49087034
:10415000052001F09DF9C8200D4908800B48007822
:10416000002803D10A4800880028F7D10020084918
:10417000088006480078012814D1064806490880BE
:10418000002002490870B0E0380000207E0C0020BA
:10419000520C002038180000540C002034AA0008EB
:1041A000BC0B0020002058490870052001F070F970
:1041B000C8205649088054480078002803D1534845
:1041C00000880028F7D10020504908804E48007828
:1041D000012800D089E04E484E49088000204A4915
:1041E000087082E0002500E06D1CEDB2102D3CDA75
:1041F0000DA94048EDB23E226A438018083002F013
:10420000BEFF0028F0D13E2100223A48EDB23E2305
:104210006B43C618300002F031F90F20EDB2421B9B
:104220003E2042433348EDB23E21694341183E31BE
:104230003048EDB23E235D434419200002F060FF98
:104240003E2100222E4D280002F018F9284800785F
:10425000002804D026480078401E25490870F8221E
:1042600092002449274802F08BF9322001F06CFFBC
:10427000002025490870062001F00AF9C8202349CA
:10428000088021480078002803D1204800880028B1
:10429000F7D100201D4908801B480078012806D16D
:1042A0001B481C4908800020174908701DE00020A9
:1042B00015490870062001F0EBF8C8201349088062
:1042C00011480078002803D1104800880028F7D151
:1042D00000200E4908800C480078012805D10C48C0
:1042E0000C4908800020084908701DB0F0BD00008E
:1042F000970C002044000020A20300008200002050
:10430000E603002000F400087E0C0020520C002080
:1043100038180000540C0020F8B5E1480078002857
:1043200000D031E203480078002800D02CE20024BD
:104330008CE000BF7A0C00200320E24908701121B4
:104340000022E14E300002F099F8E048E4B23E214C
:10435000614341180831DC4802F0E5FE25210022C6
:10436000DB4D280002F08AF8D848E4B23E216143D0
:1043700041181931D64802F0D6FEDC4800780128F1
:1043800020D1322001F0E0FE0020D949087007203A
:1043900001F07EF8C820D7490880D5480078002869
:1043A00003D1D44800880028F7D10020D1490880E3
:1043B000CF480078012805D1CF48D0490880002097
:1043C000CB4908702522CE49C14D280002F080F863
:1043D0000020BC490870BD48E4B23E21614340184A
:1043E000C079002831D13E210022B848E4B23E23F2
:1043F0006343C618300002F041F80F20E4B2021BFC
:104400003E204243B148E4B23E21614341183E316F
:10441000AE48E4B23E236343C518280002F070FEA4
:104420003E210022D94F380002F028F8D848007801
:10443000002804D0D6480078401ED5490870F822DC
:104440009200A249D34802F09BF8641CD04800783F
:10445000E4B2844200D397E19C48E4B23E21614338
:104460004018C0790121CC4A12789140084207D106
:104470009648E4B23E2161434018C0790028E4D157
:104480009248E4B23E21614340180079C34909785B
:104490008842DAD18D48E4B23E2161434018407928
:1044A000BF4909788842D0D18848E4B23E216143AF
:1044B00040188079BB4909788842C6D1BA4800784B
:1044C000401F102800D337E7B8480078012800D0F3
:1044D00032E701F0DDFD1F20B54948700120704929
:1044E00008700020B34908600120B349087077487C
:1044F000E4B23E21614340184078B04908707348E7
:10450000E4B23E21614340188078AD490870AC4860
:104510000078962149004143AA4801806B48E4B2E3
:104520003E2161434018C078A74908706748E4B24B
:104530003E216143405CA549087025210022644E5C
:10454000300001F09BFF6148E4B23E216143411815
:1045500019315F4802F0E7FD112100225A4D280071
:1045600001F08CFF5948E4B23E2161434118083103
:10457000554802F0D8FD0120524908709248007851
:10458000002805D0012092490870DF208849487032
:1045900001216420FCF752FF02208E498E4A1278D6
:1045A0003C235A4388547D4800780A2102F040F8A1
:1045B00030308849884A12783C235A438918487019
:1045C000764800780A2102F033F830318148824A77
:1045D00012783C235A4380188170714800780A2170
:1045E00002F026F830307B497B4A12783C235A434C
:1045F0008918C8706A4800780A2102F019F8303129
:104600007448754A12783C235A43801801716548F2
:1046100000780A2102F00CF830306E496E4A1278A8
:104620003C235A43891848715E4800780A2101F0FA
:10463000FFFF30316748684A12783C235A4380189C
:10464000817100206349644A12783C235A438918D7
:10465000C871554800785F495F4A12783C235A4335
:104660008918C873594800785A495B4A12783C2324
:104670005A4389180874514800785649564A1278A6
:104680003C235A43891848744D4800785149524A8E
:1046900012783C235A43891888740C4802E000BF02
:1046A000790C0020E4B23E2161434018C0784949AA
:1046B000494A12783C235A438918C8740020474954
:1046C00008E000BF9A0C0020040C002044000020E9
:1046D000BC0B00200880012041490870142001F023
:1046E00033FD032000F0D4FE00480BE0840C0020D2
:1046F0007E0C0020520C002038180000540C0020C2
:1047000034AA00080078012800D064E6002035496A
:104710000870C8203449088032480078002803D146
:10472000314800880028F7D100202F4908802D4803
:104730000078012805D12D482D49088000202949FD
:104740000870322001F000FD002026490870072083
:1047500000F09EFEC82024490880224800780028E6
:1047600003D1214800880028F7D100201E49088085
:104770001C480078012800D02DE61C481C49088000
:1047800000201849087026E6F1BD00BFE6030020AE
:10479000970C002000F40008A10C00209E0C0020C3
:1047A0009F0C0020A00C0020750C00207F0C002026
:1047B00038000020340C00206C0C0020950C0020E8
:1047C000940C00205E0C0020990C00206E0C002040
:1047D0006D0C002024040020980C0020600C0020A8
:1047E0007C0C00207E0C0020520C002038180000A9
:1047F000540C0020FBB507001400002500E0641CE9
:10480000207800283CD0601E00786946097A8842EA
:1048100003D0601E00783F28F1D1019802F091FC8E
:1048200002000199200002F0BBFC002826D101986B
:1048300002F087FC205C3D2820D1019802F081FC29
:104840002618761C019802F07CFC2418641C01E0F8
:104850006D1C641C20786946097A884205D020784E
:10486000002802D020780D28F2D12A00310038002B
:1048700001F02EFE00207855002003E0641CBFE705
:104880000020C043FEBDFBB507001400002500E07A
:10489000641C2078002836D0601E00786946097AAA
:1048A000884203D0601E00783F28F1D1019802F0C1
:1048B00048FC02000199200002F072FC002820D17F
:1048C000019802F03EFC205C22281AD1019802F0E7
:1048D00038FC2618F61C019802F033FC2418E41C5E
:1048E00001E06D1C641C20786946097A8842F8D181
:1048F0002A003100380001F0EBFD0020785500203F
:1049000003E0641CC5E70020C043FEBDF0B5A9B0BC
:10491000002452480078012801D000F07BFD504867
:104920000078002801D000F075FD4E48C07930387D
:10493000012810D001D200F069FD032800D1D1E395
:1049400000D21DE3052801D100F042FD01D200F0A4
:10495000DBFC00F05BFD2623424A434903A8FFF736
:1049600049FF03A802F0EDFBC0B204280DD1684650
:10497000007B6421484303A949780A225143401827
:1049800003A989784618303611E0C0B2032808D14F
:104990006846007B0A21484303A949784618103E1F
:1049A00005E0C0B2022802D16846067B303E2623CD
:1049B0002C4A2E4903A8FFF71DFF68466946097B6C
:1049C000303941702623274A294903A8FFF712FFEF
:1049D00003A802F0B6FBC0B202280AD168466946B5
:1049E000097B0A22514303AA5278891810390170B1
:1049F00007E0C0B2012804D168466946097B303916
:104A000001702623174A1B4903A8FFF7F3FE03A8EA
:104A100002F097FBC0B2022808D16846007B0A2149
:104A2000484303A949784718103F05E0C0B2012860
:104A300002D16846077B303F26230A4ACB4903A8A8
:104A4000FFF7D8FE03A802F07CFBC0B2012813D107
:104A50006946097B30290FD101242EE07E0C00200D
:104A6000840C00207C06002050AE000858AE0008E0
:104A700060AE000844AD0008C0B206281DD16846EB
:104A80006946097B0A22514303AA527889181039D2
:104A9000417203A880780A21484303A9C9784018C5
:104AA00010386946087203A800790A21484303A90F
:104AB0004979401810386946C8702623AC4AAD4978
:104AC00003A8FFF797FE002529006846057B303DC7
:104AD0000D4303A84078303840002843050003A860
:104AE0008078303880002843050003A8C07830382B
:104AF000C0002843050003A80079000128430500F1
:104B000003A8407940012843050003A8807980016B
:104B1000284305002623964A974903A8FFF76AFE13
:104B200068466946097B303981702623904A93494B
:104B300003A8FFF75FFE1121002214A8019001983D
:104B400001F09CFC0198139003A914A802F0EBFA61
:104B50002623874A8AA103A8FFF74CFE40210022A2
:104B600019A80190019801F089FC0198139003A9FC
:104B700019A802F0D8FAE4B2012C00D0E8E0002431
:104B800080480078401F102800D3E5E17E48007877
:104B9000012800D0E0E101F07BFA1F207B4948703A
:104BA00001207B49087000207A49086001207A4979
:104BB00008706846407879490870684600787849F6
:104BC000087077480078782141437648018076481C
:104BD0000770764806700120E049E14A12783C23CC
:104BE0005A438854DF4800780A2101F021FD303013
:104BF000DA49DB4A12783C235A4389184870D9486D
:104C000000780A2101F014FD3031D448D44A1278DA
:104C10003C235A4380188170D34800780A2101F060
:104C200007FD3030CD49CE4A12783C235A438918CB
:104C3000C870CD4800780A2101F0FAFC3031C7482D
:104C4000C74A12783C235A4380180171C74800783C
:104C50000A2101F0EDFC3030C049C14A12783C23F2
:104C60005A4389184871C14800780A2101F0E0FCD4
:104C70003031BA48BA4A12783C235A4380188171BD
:104C80000020B649B64A12783C235A438918C871A5
:104C90003C480078B149B24A12783C235A438918FB
:104CA000C873AE48AE4909783C2251434018067497
:104CB00068464078A949AA4A12783C235A43891881
:104CC000487468460078A549A54A12783C235A439F
:104CD00089188874A148A24909783C225143401898
:104CE000C774252100229D489D4B1B783C246343BB
:104CF000C5181435280001F0C1FB19A99748984A36
:104D000012783C235A438018143002F00CFA252103
:104D10000022CA4C200001F0B1FB19A9C74802F0DB
:104D200002FAFFB2002F05D0012091490870DF2060
:104D30001649487001216420FCF780FB00208D4952
:104D4000088001208C490870032000F0A1FB03E1DA
:104D500068468078012800D0B4E08848007811289F
:104D600002DB002085490870002422E050AD0008D5
:104D70007C06002068AE000870AE000878AE00081F
:104D800049440000750C00207F0C002038000020F2
:104D9000790C0020340C00206C0C0020950C0020B5
:104DA000940C00205E0C0020990C00206E0C00205A
:104DB000641CE4B2102C0BDA102214A9C448E4B22B
:104DC0003E236343C018083002F0C3F90028EFD136
:104DD000E4B2102C72DBBE48684909783E22514388
:104DE000465468464078BA49644A12783E235A438A
:104DF0008918487068460078B549604A12783E23A1
:104E00005A4389188870B2485C4909783E22514358
:104E10004018C7706846407AAD49584A12783E2318
:104E20005A43891808716846007AA949534A12788A
:104E30003E235A43891848716846C078A4494F4AAE
:104E400012783E235A4389188871A1484B49097842
:104E50003E2251434018C57114A99D48474A127813
:104E60003E235A438018083002F05DF919A998488A
:104E7000424A12783E235A438018193002F053F9FF
:104E80003E480078401C3D4908703C480078112895
:104E90000EDB0F20394908708E4A8F498C4C200058
:104EA00002F02EF93E2100228C4D280001F0E6FA96
:104EB000F822920086498A4801F062FB012000F046
:104EC000E7FA49E068468078002845D1002400E0F0
:104ED000641CE4B2102C3CDA14A97D48E4B23E22F2
:104EE00062438018083002F04AF90028F0D13E21D0
:104EF00000227748E4B23E236343C518280001F03E
:104F0000BDFA0F20E4B2021B3E2042437048E4B2D7
:104F10003E21614341183E316D48E4B23E235C437B
:104F20000419200002F0ECF83E2100226B4E300004
:104F300001F0A4FA11480078002804D00F48007846
:104F4000401E0E490870F82292006149644801F041
:104F500017FB022000F09CFA58E200BF2404002056
:104F6000980C00209E0C00209F0C0020A00C00201C
:104F70006D0C0020600C00207C0C0020970C0020A1
:104F80002623DD4ADD4903A8FFF734FC4021002237
:104F900019AF380001F072FA03A919A802F0C3F89A
:104FA0004021002203AE300001F068FA234903A833
:104FB00002F0B9F825210022204C200001F05EFA11
:104FC00019A91E4802F0AFF8052000F061FA14207C
:104FD00001F0BAF8052000F05BFA142001F0B4F8F3
:104FE000052000F055FA25210022144D280001F07B
:104FF00045FA03A9114802F096F8C1480078002844
:1050000065D04021002203AC200001F037FA0222D3
:1050100003A9BC4801F0B4FA002802D10020B84925
:105020000870E4480088E4490140E2480180012119
:105030000220FCF703FA0120E04901E0BC0B00204C
:105040000870DF48DF490880FA20400001F07CF852
:10505000002400E0641CE4B20F2C38DA0020DA49A6
:105060000870012000F014FA96204000D74908800B
:10507000D5480078002803D1D44800880028F7D10B
:105080000020D2490880D04800780128E2D10020D1
:10509000CD490870642001F057F8032000F0F8F9BA
:1050A0000020C9490870C820C8490880C64800784F
:1050B000002803D1C54800880028F7D10020C34943
:1050C00008800020C0490870BD48BE4908809DE1A5
:1050D00044000020A203000082000020E60300201C
:1050E00000F40008D3480088802149010143D148D9
:1050F00001800120D04908700020D049088032206A
:10510000CF4908703020CE494870CE4800780A2137
:1051100001F08EFA3030CA498870CA4800780A21F6
:1051200001F086FA3031C648C170C74800780A21BC
:1051300001F07EFA3030C2490871C34800780A2174
:1051400001F076FA3031BE484171C04800780A213A
:1051500001F06EFA3030BA498871BC4800780A21F3
:1051600001F066FA3031B648C171B94800780A21B9
:1051700001F05EFA3030B749B74A12783C235A43FF
:1051800089180872B348B44909783C225143401841
:10519000007AAB490872AE4800780A2101F048FA5B
:1051A0003031AC48AC4A12783C235A4380184172E3
:1051B000A848A94909783C2251434018407AA0499F
:1051C0004872A64800780A2101F032FA3030A1492D
:1051D000A14A12783C235A43891888729D489E49F7
:1051E00009783C2251434018807A954988729B483F
:1051F00000780A2101F01CFA30319648964A12785C
:105200003C235A438018C1729248934909783C2242
:1052100051434018C07A8A49C872914800780A21DF
:1052200001F006FA30308B498B4A12783C235A43FE
:10523000891808738748884909783C2251434018E7
:10524000007B7F490873864800780A2101F0F0F955
:1052500030318048804A12783C235A438018417389
:105260007C487D4909783C2251434018407B744971
:10527000487300207749784A12783C235A438918AA
:1052800088737448744909783C2251434018807BE4
:105290006B49887373480068642101F0CCF9FA21E6
:1052A000C9004843E121090101F0C5F969496A4A89
:1052B00012783C235A438918488767480078401C75
:1052C00065490870644800780B2802DB09206249B0
:1052D0000870062000F0DCF800F0DAFE1F206249BA
:1052E000487000210120FCF7A9F8042000F0D0F854
:1052F000052000F0CDF889E07C060020C4AB000852
:10530000850C002000F800082623584A584903A8B5
:10531000FFF770FA03A8407830385649087003A8A0
:1053200080780A21484303A9C978401810384549B4
:10533000087003A800790A21484303A94979401855
:1053400010384149087003A880790A21484303A90D
:10535000C979401810383D49087003A8007A0A211D
:10536000484303A9497A401810383949087003A8FE
:10537000807A0A21484303A9C97A4018103837496E
:10538000087003A8007B0A21484303A9497B401801
:105390001038334908702E480078E121090148434C
:1053A0002E4909783C22514340182D49097840186C
:1053B000401C2BE014040048EFFF0000840C002088
:1053C00038180000540C00207E0C0020520C0020E5
:1053D0002623264A284903A8FFF70CFA6846007BD3
:1053E000302806D1082000F053F8244824490880CA
:1053F0000CE06846007B312808D1082000F048F80E
:105400002048214908800120D849087000201F4900
:1054100008700DE01D480078012809D1D3480078B4
:10542000012805D11748184908800020174908703D
:1054300029B0F0BD14000048890C0020580C002051
:10544000180000209B0C00209C0C00209D0C0020CC
:105450009E0C002024040020980C00209F0C0020AB
:10546000A00C0020340C0020380000207C06002016
:105470005CAD0008A10C002080AE0008D41700002D
:105480005A0C002038180000540C00207E0C00201C
:1054900070B5B6B0B5490978002900D015E2C0B2A0
:1054A000012812D000D2FAE1032826D019D305280A
:1054B00000D107E100D2F1E0072800D1D7E100D206
:1054C000C9E1082800D1DEE1E9E18021890000225C
:1054D000B24C200000F0D2FFB149B04801F023FEE9
:1054E000DDE1802189000022AC4C200000F0C6FFE5
:1054F000AC49AA4801F017FED1E1802189000022C1
:10550000A64D280000F0BAFFA749A44801F00BFE01
:105510000A2100226C46200000F0B0FFA34800786A
:105520000A2101F085F83030694608702E2069465E
:1055300048709E4800780A2101F07AF830316846B8
:1055400081706946954801F0EEFD9949934801F054
:10555000EAFD0A2100226E46300000F08FFF9548D8
:10556000007864281CDB93480078642101F060F81F
:105570003030694608708F480078642101F058F88F
:1055800008000A2101F054F8303069464870894813
:1055900000780A2101F04CF83031684681701CE037
:1055A000844800780A2810DB824800780A2101F03C
:1055B0003FF83030694608707E4800780A2101F0D3
:1055C00037F830316846417007E07A4800780A21A0
:1055D00001F02EF830316846017069466F4801F0DD
:1055E000A2FDD0496D4801F09EFD0A2100226D46C2
:1055F000280000F043FFCC4800783030694608703E
:105600006946664801F08FFDC849644801F08BFD8A
:105610000A2100226C46200000F030FFC4480088B8
:10562000FA21890001F004F8303069460870C0485A
:105630000088FA21890000F0FBFF0800642100F0D7
:10564000F7FF303069464870B9480088FA21890070
:1056500000F0EEFF0800642100F0EAFF08000A21D4
:1056600000F0E6FF303069468870B14800880A21B2
:1056700000F0DEFF30316846C1706946474801F0EE
:1056800052FDAC49454801F04EFDAB49434801F09D
:105690004AFDAAA1414801F046FD00E180218900B0
:1056A00000223E4C200000F0E9FEE1493B4801F0B9
:1056B0003AFDA149394801F036FDA0A1374801F073
:1056C00032FDECE0802189000022344D280000F0FA
:1056D000D5FED849314801F026FD0A2100226C464A
:1056E000200000F0CBFE314800780A2100F0A0FF36
:1056F0003030694608702E20694648702B48007883
:105700000A2100F095FF30316846817069462348D0
:1057100001F009FD2649214801F005FD0A2100227A
:105720006E46300000F0AAFE2248007864281FDB95
:1057300020480078642100F07BFF30306946087013
:105740001C480078642100F073FF08000A2100F073
:105750006FFF303069464870164800780A2100F023
:1057600067FF3031684681702EE000BF840C002056
:10577000104800780A281FDB0E4800780A2100F044
:1057800057FF3030694608700A4800780A2100F057
:105790004FFF30316846417016E000BF7C080020A2
:1057A000D8AB0008C8AA00089CAC0008750C002003
:1057B00088AE0008740C0020C94800780A2100F067
:1057C00037FF3031684601706946C64801F0ABFCCE
:1057D000C549C44801F0A7FC0A2100226C462000FC
:1057E00000F04CFEC14800783030694608706946C8
:1057F000BC4801F098FCBE49BA4801F094FC0A216B
:1058000000226D46280000F039FE4748007830300D
:10581000694608706946B34801F085FCB549B1484E
:1058200001F081FCB449AF4801F07DFCB349AD48BB
:1058300001F079FC4049AB4801F075FCB049A9483A
:1058400001F071FCAF49A74801F06DFC3BA1A548F0
:1058500001F069FC23E0802189000022A14C200096
:1058600000F00CFEA8499F4801F05DFC17E0802184
:10587000890000229B4C200000F000FEA3499948BB
:1058800001F051FC0BE0802189000022954C2000A2
:1058900000F0F4FD9E49934801F045FCFFE7002429
:1058A0009048A4B2005D002800D143E38D48A4B223
:1058B000015D89B2974801F03BF9641C802195484D
:1058C00001F06AF90028EBD1F8E79349097801293A
:1058D00000D02FE3C0B2012810D000D22AE3032861
:1058E0002ED000D2DFE0052800D1A3E200D283E26F
:1058F000072800D1E8E200D2BBE21BE3C821002266
:1059000003AC200000F0BAFD844903A801F00BFCB1
:105910007C4903A801F007FC814903A800F016FBAD
:1059200008E300BF68AD00087C0C002074AD0008DF
:10593000600C002090AE0008BC0B00200D0A000097
:10594000C821002203AD280000F098FD734903A888
:1059500001F0E9FB6B4903A801F0E5FB714903A8DD
:1059600001F0E1FBE44903A801F0DDFBE34903A8F2
:1059700001F0D9FB0A2100226C46200000F07EFDD8
:10598000DF4800780A2100F053FE30306946087085
:105990002E2069464870DA4800780A2100F048FE57
:1059A000303168468170694603A801F0BCFBD549D7
:1059B00003A801F0B8FB0A2100226E46300000F077
:1059C0005DFD4748007864281CDB45480078642169
:1059D00000F02EFE3030694608704148007864219E
:1059E00000F026FE08000A2100F022FE3030694651
:1059F00048703B4800780A2100F01AFE30316846B2
:105A0000817021E0364800780A2815DB3448007898
:105A10000A2100F00DFE30306946087030480078E9
:105A20000A2100F005FE3031684641700CE000BFED
:105A3000E4AA0008ACAC0008294800780A2100F06C
:105A4000F7FD303168460170694603A801F06BFB31
:105A5000E74903A801F067FB0A2100226C462000F9
:105A600000F00CFD21480078303069460870694626
:105A700003A801F058FBDF4903A801F054FB0A21F9
:105A800000226D46280000F0F9FCE748007830302D
:105A900069460870694603A801F045FBE34903A87D
:105AA00000F054FA46E2C821002203AC200000F0C6
:105AB000E5FC1A4903A801F036FB124903A801F0DE
:105AC00032FB184903A801F02EFBD94801F039FB3D
:105AD000002829D1884903A801F025FB28E000BF50
