:020000040800F2
:10000000B01B0020ED5C00086D4E00086F4E00082C
:1000100000000000000000000000000000000000E0
:10002000000000000000000000000000734E000807
:1000300000000000000000009F2E0008473000086C
:100040000B430008EB44000857470008C748000866
:10005000EB4C0008EF560008E75700082F5900083E
:10006000EF590008AB5B0008BB5B0008EB5B0008C6
:10007000715D0008735D0008755D0008754E00082D
:100080006F500008775D000800000000795D0008EF
:100090007B5D00087D5D00087F5D0008815D0008D4
:1000A000835D0008855D0008875D0008B94F000882
:1000B0001550000800000000895D000800000000E5
:1000C000F8B50020574908700020574908700020F3
:1000D000564908700020564908700020554908709C
:1000E00001205549087000205449087000205449E7
:1000F00008700020534908700020534908800020F0
:100100005249087000205249087000205149087077
:1001100000205149087000205049087000205049C3
:10012000087000204F49087000204F4908800020C7
:100130004E49087000204E49086000204D49088053
:1001400000204D49087000204C49087000204C499F
:10015000087000204B49087000204B4908700020AF
:100160004A490870962189000022494D280001F073
:1001700055FD11210022474E300001F04FFD0020B7
:100180004549087000204549087000206F490880E3
:100190006F487049086000206F49087000206F495F
:1001A000088001206E49087001206E490870002007
:1001B0006D49087000206D49087000206C49087076
:1001C0000A206C49087001207D49087001207D4992
:1001D000087008207C49087000207C4908700020C5
:1001E0007B49087005207B49087077480078E12139
:1001F00009014843784908600020784908701E20AA
:1002000077490870642077490880BE210022764C27
:10021000200001F003FD14210022744F380001F08A
:10022000FDFCF1BD7F170020801700208117002002
:1002300082170020831700208417002085170020D4
:1002400095170020861700206E17002087170020C2
:1002500088170020891700208A1700208B1700209C
:100260008C1700208D170020701700208E1700209B
:1002700010170020761700209B1700208F170020F2
:10028000901700209117002092170020931700204C
:10029000A40E002098160020941700209617002026
:1002A00038B50025A249522001F0E4FCC0B2002874
:1002B00048D1A04801F009FDC0B2002842D19D48B4
:1002C00001F044FDC0B200283CD10020B0490870C4
:1002D000984BB04AAE48017804204143C9B260202F
:1002E00001F070FDC0B200282CD1AB49A8480078BD
:1002F00004225043C0B201F099FDC0B2002821D1C0
:10030000A648008810210143A44801803C25142000
:1003100001F0D6FF002410E09F48E4B2005D3038C1
:100320000A2809D39C48E4B2005D0A2102F063F870
:1003300030319948E4B20155641CE4B2102CEBDB77
:10034000012000E0002032BD0000000072170020F4
:10035000FC1500203017002097170020741700208C
:1003600098170020A00E002099170020A417002045
:10037000A51700209C17002010B5FFF791FF01285A
:1003800001D1012018E086480068012813D1C82255
:100390008449854802F089F800280ED1C82100223E
:1003A000814C200001F03AFC00207D4908607F4923
:1003B0000860AB490860002010BD0220FCE7000087
:1003C0009D1700209E1700209F170020A0170020D7
:1003D000A1170020A21700204C170020A31700200F
:1003E000A6170020781700201C1400208416002077
:1003F000704770B582B0012001F0FEFB994800689B
:10040000C82800DB83E0FFF7B7FF0400E4B2002C4C
:100410007DD09620400093490860C8210022614D9C
:10042000280001F0FBFBC82100225F4E300001F0E4
:10043000F5FB00205A4908605C490860884908605B
:1004400056480088802109020143544801803C201D
:1004500001F0D2FB514800884004400C4F4908800D
:10046000E4B2012C18D1804800888021C9010143E1
:100470007D480180642001F0BFFB7B4800887B49F8
:100480000140794801807A480090082380220021A9
:10049000002002F0D4F824E000F006F9012818D179
:1004A000714800888021C90101436F4801806420A0
:1004B00001F0A2FB6C4800886C4901406A48018049
:1004C0006B480090082380220021002002F0B7F83A
:1004D00007E068480090082380220021002002F0F5
:1004E000AEF80024C82100222E4E300001F096FB09
:1004F000C82100222C4D280001F090FB0020284943
:1005000008602A49086056490860002004005548E0
:10051000006800280BD15848009008238022002151
:10052000002002F08CF80020C0434E49086073BDE3
:100530007A1700205417002010B5002417480088AF
:10054000802149000143154801800020040002E099
:10055000FFF74FFF641CE4B2642CF9DB002402E0D7
:10056000FFF747FF641CE4B2642CF9DB0B480088FA
:100570004249014009480180002402E0FFF739FFA9
:10058000641CE4B2642CF9DBFFF732FF10BD0000FD
:10059000A7170020880E0020AC1600201400004889
:1005A0004817002054130020C411002044170020D5
:1005B00010B59CB000243249324802F01DF932498E
:1005C000086032A12F4802F017F9314908602E481F
:1005D0000068002803D12E48006800283ED014226D
:1005E0002C492D4802F00CF901000A222B4802F098
:1005F00007F90A222A499B4802F002F927492948AB
:1006000002F010F99749984802F00CF9002004E034
:100610002249095C03AA1154401C0A28F8DB002077
:100620000AE003A9914A04234343D2588918491E7A
:1006300009786A461154401C0A28F2DB894802F006
:1006400003F9002104E06846405C894A5054491C83
:100650000B29F8D38649874802F0E4F81CB010BD96
:1006600040170020980E002014040048FFBF00002F
:10067000000400200000002000080020FFFE000011
:10068000BC5B0008FC100020581700207D00000013
:100690005C170020101100203C160020C816002016
:1006A000461600204C5C000810B5A0B0002472492A
:1006B000724802F0A1F87249086072496F4802F06E
:1006C0009BF87149086071496C4802F095F87049CF
:1006D00008606B480068002800D1C1E06A480068E3
:1006E000002800D1BCE06A480068002800D1B7E0CB
:1006F0000A226849684802F083F80100674802F05E
:1007000091F8002004E06449095C06AA1154401CD9
:100710000A28F8DB00200AE006A9544A04234343D0
:10072000D2588918491E09786A461154401C152868
:10073000F2DB002004E06946095C594A1154401C70
:100740001528F8D35649574802F06CF81522564937
:10075000564802F055F8002004E05449095C06AA06
:100760001154401C1528F8DB00200AE006A9504A65
:1007700004234343D2588918491E09786A46115404
:10078000401C1528F2DB002004E06946095CA04A01
:100790001154401C1528F8D39D499E4802F042F898
:1007A0000B229B499C4802F02BF80A229B499C484B
:1007B00002F026F898499B4802F034F836499A48E6
:1007C00002F030F8274802F03FF80400944802F0A5
:1007D0003BF8201AFF212E3188420BDA904802F0B4
:1007E00033F804001F4802F02FF8201AFF212E31A1
:1007F00088420FDBC8210022204C200001F00EFAB5
:10080000854A8A491D4802F025F81C4802F03EF846
:10081000002025E02049864802F04EF800280FD13C
:10082000C8210022154C200001F0F8F97A4A8149CC
:10083000124802F00FF8114802F028F801200FE0EA
:10084000C82100220D4C200001F0E8F9724A7749D6
:100850000A4801F0FFFF094802F018F80020FFE7FE
:1008600020B010BDBC160020FC5C0008100E00205B
:10087000D41600205C5C0008385D0008C41100201C
:1008800058170020405D00085C170020485D0008F4
:1008900060170020E6110020F8160020FC5B00081D
:1008A00004170020105C0008CA1100205416002014
:1008B000FC0C0020F8B5050000245F4801800CE026
:1008C000C82100225D4C200001F0A8F900205C49FD
:1008D00008605C4908605C4908605C480068C8289A
:1008E0006EDAFFF749FD0400E4B2002C68D09620D0
:1008F000400056490860564800888021090201439B
:10090000534801803C2001F077F9514800884004A9
:10091000400C4F490880E4B2012C18D14D480088A2
:100920008021C90101434B480180642001F064F932
:10093000484800884849014046480180474800909F
:10094000082380220021002001F079FE24E0FFF737
:10095000ABFE012818D13F4800888021C90101431E
:100960003C480180642001F047F93A4800883A4940
:100970000140384801803948009008238022002136
:10098000002001F05CFE07E035480090082380223B
:100990000021002001F053FE0024C8210022314E26
:1009A000300001F03BF9C82100222F4F380001F040
:1009B00035F900202D4908602D4908602D4908604F
:1009C0002248006800280BD12B4800900823802281
:1009D0000021002001F033FE0020C0431B490860C5
:1009E00015480088002803D1FFF702FD00200EE023
:1009F00013480068012800D06FE729000F4801F074
:100A0000FBFE002800D15BE7FFF7F2FC0120F2BDFE
:100A10006C1600206C5C0008E016002077160020A1
:100A2000EC1600207C5C0008085D0008F059000806
:100A3000C8160020245A000874170020FC1000205B
:100A40003C1700203817002034170020980E002093
:100A50001400004814040048FFBF000000040020F8
:100A60000000002054130020C4110020481700206B
:100A70004417002040170020000800207CB5FFF735
:100A80001FFB00F08BFE01F045F800F0B7FE00F010
:100A9000E3FF01F08BF8302001F024FF01F07CFC33
:100AA000984800888021090201439648018014205B
:100AB00001F0A2F8934800884004400C9149088056
:100AC00001F0F3FD01F06DFD8F48008880214901A0
:100AD00001438D480180FFE78C480078002801D150
:100AE00000F05AFE8A48009008238022002100204E
:100AF00001F0A5FD83480088CE490140814801806E
:100B0000322001F079F87F480088102101437D48A8
:100B10000180FFF711FD002400E0641CE4B20A2C00
:100B200016DAC8210022C44D280001F077F8002011
:100B3000C2490860C2490860C2490860754801F0AE
:100B4000A5FE9621490074A0FFF7B4FE0128E4D168
:100B5000E4B20A2CC0DA142001F04EF8002400E0C0
:100B6000641CE4B20A2C15DAC8210022B24D280018
:100B700001F054F80020B1490860B1490860B1495A
:100B80000860CF4801F082FEC82163A0FFF792FE03
:100B90000128E5D1E4B20A2C9EDA142001F02CF8E9
:100BA000002400E0641CE4B20A2C15DAC8210022FB
:100BB000A14D280001F032F80020A0490860A049AA
:100BC0000860A0490860DB4801F060FEC821DA48EF
:100BD000FFF770FE0128E5D1E4B20A2C00DB7BE7C9
:100BE000142001F009F8002400E0641CE4B20A2C8F
:100BF00016DAC8210022904D280001F00FF80020DD
:100C00008E4908608E4908608E490860CB4801F023
:100C10003DFEFA21490040A0FFF74CFE0128E4D137
:100C2000E4B20A2C00DB57E7142000F0E5FF0024B3
:100C300000E0641CE4B20A2C15DAC82100227E4DC3
:100C4000280000F0EBFF00207C4908607C49086028
:100C50007C490860BA4801F019FEC8212EA0FFF7B0
:100C600029FE0128E5D1E4B20A2C00DB34E7142088
:100C700000F0C2FF002400E0641CE4B20A2C15DA84
:100C8000C82100226C4D280000F0C8FF00206B49ED
:100C900008606B4908606B490860BF4801F0F6FDC9
:100CA000C8211DA0FFF706FE0128E5D1E4B20A2CF9
:100CB00000DB11E7142000F09FFF002400E0641C1B
:100CC000E4B20A2C15DAC82100225B4D280000F09E
:100CD000A5FF002059490860594908605949086032
:100CE000AE4801F0D3FDC8210BA0FFF7E3FD0128BA
:100CF000E5D1E4B20A2C00DBEEE60A2000F07CFF2E
:100D000000240CE01400004814040048A10E002048
:100D100000080020505D00084F4B0000641CE4B246
:100D20000A2C15DAC8210022434D280000F076FF76
:100D300000204249086042490860424908609848DA
:100D400001F0A4FDC82197A0FFF7B4FD0128E5D16B
:100D5000E4B20A2C00DBBFE6142000F04DFFC821EE
:100D60000022354D280000F059FF0020334908606B
:100D70003349086033490860C82000F03DFF8A48C5
:100D800000882C49014088480180C82000F034FFC9
:100D9000854800881021014383480180834801F081
:100DA00075FD0024FA20C000814908800CE0C821AC
:100DB0000022214D280000F031FF00201F4908606B
:100DC0001F4908601F4908607A480068C82800DB8E
:100DD00099E0FFF7D1FA7849087077480078002841
:100DE00000D190E09620400072490860C82100229E
:100DF000724D280000F012FFC8210022704E300012
:100E000000F00CFF00206F4908606F4908606F49CF
:100E1000086065480088802109020143624801801A
:100E20003C2000F0E9FE604800884004400C5E4928
:100E30000AE000BFEFFF0000FC1000203C1700207C
:100E4000381700203417002008805B4800780128FC
:100E500018D15F4800888021C90101435C480180A6
:100E6000642000F0C9FE5A480088CD490140584826
:100E70000180CC480090082380220021002001F04E
:100E8000DEFB27E0FFF710FC01281BD1504800884B
:100E90008021C90101434E480180642000F0ACFE6E
:100EA0004B480088BE49014049480180BD48009038
:100EB000082380220021002001F0C1FB0AE000BFCE
:100EC000145D0008B848009008238022002100200B
:100ED00001F0B5FB002038490870C8210022374EC8
:100EE000300000F09BFEC8210022354D280000F0A4
:100EF00095FE002033490860334908603349086093
:100F000000202D4908702B48006800280BD1A74805
:100F10000090082380220021002001F090FB002097
:100F2000C043244908602248008800280AD10A24C6
:100F30006BE000BF205D00088C5C00089C5C000832
:100F4000AC5C0008C7480068012800D03CE7C649EF
:100F5000C64801F051FCC6490860C649C34801F0C3
:100F60004BFCC5490860C549C04801F045FCC4496F
:100F70000860BF480068002805D0BF480068002806
:100F800001D1092441E0BC480068002837D0E4B210
:100F9000032C1FD10A2438E0BC5C0008CC5C00089C
:100FA000DC5C00084F4B000014000048B85A0008F1
:100FB00074170020980E0020AA1700205413002058
:100FC000C4110020481700204417002040170020BB
:100FD00014040048C8210022A44D280000F01EFE81
:100FE0000020A0490860A7490860A7490860A748F1
:100FF00001F04CFCFA20C000A5490880641CA04800
:101000000068002800D1D2E60B24FFF7F1F9C821CF
:101010000022964D280000F001FE00209149086052
:101020009849086098490860E4B20A2C40D1002031
:101030009849088006E0FFF7DCF996480088401CD4
:1010400094490880934800886428F4DB0020914983
:10105000088006E0FFF7CDF98E480088401C8D49D6
:1010600008808C4800886428F4DB002089490880C7
:1010700006E0FFF7BEF987480088401C85490880D4
:10108000844800886428F4DB00208249088006E058
:10109000FFF7AFF97F480088401C7E4908807D48F3
:1010A00000886428F4DBFFF7A3F9FFF745FA13E59E
:1010B000E4B20B2C3ED100207649088006E0FFF711
:1010C00098F974480088401C72490880714800886B
:1010D0006428F4DB00206F49088006E0FFF789F9F7
:1010E0006C480088401C6B4908806A480088642866
:1010F000F4DB00206749088006E0FFF77AF96548CD
:101100000088401C63490880624800886428F4DB3A
:1011100000206049088006E0FFF76BF95D48008811
:10112000401C5C4908805B4800886428F4DBFFF7BA
:101130005FF9D1E400205749088006E0FFF759F92C
:1011400054480088401C534908805248008864284D
:10115000F4DB00204F49088006E0FFF74AF94D48CC
:101160000088401C4B4908804A4800886428F4DB0A
:1011700000204849088006E0FFF73BF94548008811
:10118000401C44490880434800886428F4DBFFF78A
:101190002FF901220021002001F023FA08E000BF0E
:1011A000FFBF000000040020000000200008002015
:1011B0000120D3490870D3480078002800D157E1B6
:1011C0000020D0490870CF480078012800D08BE07B
:1011D000CD49CE4801F010FB27490860CC48008873
:1011E000802109020143CA4801803C2000F004FD2F
:1011F000C74800884004400CC5490880C54800889D
:101200008021C9010143C3480180642000F0F4FC3F
:10121000C0480088C0490140BE480180C821002262
:10122000BE4D280000F0FAFCBD4803C800900191B3
:10123000B64BBC4ABC49B94801F00CFBB74801F0B9
:1012400025FBB4480088B9490140B2480180B8483C
:101250000090082380220021002001F0F0F90024F2
:101260001EE000BF3C170020585D0008FC10002065
:1012700058170020605D00085C170020685D0008BA
:10128000601700203817002034170020585A000833
:10129000741700207C1700200A2000F0ADFC641CAD
:1012A000E4B2642C07DAFFF767F8964908709548AE
:1012B00000780028F0D09748008880214901014338
:1012C000944801808F480078002800D070E7D74804
:1012D0000090082380220021002001F0B0F90122B3
:1012E0000021002001F07DF986480078022800D016
:1012F000BEE08748008880210902014384480180BC
:101300003C2000F079FC824800884004400C804971
:101310000880C822DD49DE4C200001F01FFBFFF7EA
:10132000C3F9002833D1DB48009008238022002134
:10133000002001F084F9C8210022D44D280000F0DB
:101340006DFC0020D4490860D4490860D449086085
:10135000002403E00A2000F04FFC641CE4B20A2CD5
:1013600007DAFFF709F8674908706648007800282F
:10137000F0D0AE480090082380220021002001F028
:101380005EF901220021002001F02BF910E76148ED
:1013900000888021C90101435E480180642000F07B
:1013A0002BFC5C4800885C4901405A480180594840
:1013B00000885E490140574801805D48009008233D
:1013C00080220021002001F03AF9C8210022AF4D0F
:1013D000280000F023FC0020AF490860AF490860F6
:1013E000AF490860002403E00A2000F005FC641CFB
:1013F000E4B2642C10DAE4B20A2C05D1C821002230
:10140000A34D280000F00AFCFEF7B6FF3D49087026
:101410003C4800780028E7D08448009008238022C8
:101420000021002001F00BF901220021002001F031
:10143000D8F83848008880214901014335480180A7
:1014400030480078002800D0B2E6C8210022904C35
:10145000200000F0E3FBC82100228C4D280000F0A2
:10146000DDFB00208C4908608C4908608C490860CD
:10147000FEF716FF012800D084E02548008880216F
:1014800009020143224801803C2000F0B5FB2048BE
:1014900000884004400C1E490880C82100221F4DCE
:1014A000280000F0BBFB1E4803C800900191174BB9
:1014B0001C4A1D49194801F0CDF9184801F0E6F918
:1014C000144800888021C90101431248018064202A
:1014D00000F092FB0F4800880F4901400D48018041
:1014E0000C480088114901400A48018010480090CA
:1014F000082380220021002001F0A1F800241DE033
:10150000AB170020AA170020245C0008AC160020AE
:101510001400004814040048FFBF00008C12002093
:1015200018170020385C00088C5A0008FFEF0000F4
:10153000000400200A2000F05FFB641CE4B2642C6D
:1015400007DAFEF719FF9D4908709C4800780028CB
:10155000F0D09B48008880214901014398480180D0
:1015600096480078002800D022E6304800900823F2
:1015700080220021002001F062F8012200210020D9
:1015800001F02FF844480068012800D0CEE08D48D3
:1015900000888021090201438A4801803C2000F034
:1015A0002BFB884800884004400C86490880C822EC
:1015B0003649374C200001F0D1F9FFF775F80028C3
:1015C00036D134480090082380220021002001F009
:1015D00036F8C82100222D4D280000F01FFB002006
:1015E0002D4908602D4908602D490860002403E05A
:1015F0000A2000F001FB641CE4B20A2C07DAFEF7B3
:10160000BBFE6E4908706D4800780028F0D007488E
:101610000090082380220021002001F010F8012210
:101620000021002000F0DDFFC2E500BF000800201F
:10163000634800888021C90101436148018064201A
:1016400000F0DAFA5E4800885F4901405C4801809A
:101650005B4800885D490140594801805C48009022
:10166000082380220021002000F0E9FFC821002289
:10167000064D280000F0D2FA00200749086007490B
:10168000086007490860002410E000BFC411002072
:1016900054130020000000204817002044170020A9
:1016A000401700200A2000F0A7FA641CE4B2642C62
:1016B00010DAE4B20A2C05D1C8210022454D2800D9
:1016C00000F0ACFAFEF758FE3C4908703B48007841
:1016D0000028E7D040480090082380220021002005
:1016E00000F0ADFF01220021002000F07AFF344815
:1016F0000088802149010143314801802F4800784A
:10170000002800D054E5C8210022324C200000F00F
:1017100085FAC8210022314D280000F07FFA002010
:101720002F4908602F4908602F4908602F4800683A
:1017300000281CD1C82100222D4C200000F06EFA98
:101740002C4A2D492A4801F085F8294801F09EF8D5
:10175000BB480078401CBA490870B9480078032893
:1017600002DB0020B6490870B64820490860B64838
:101770000068012800D01BE5FEF71AFFC8210022EF
:10178000B24C200000F04AFA0020AF490860B0498E
:101790000860B04908600BE5002076BD80B50121E6
:1017A000D64801F0A1F90121D54801F0ADF9012198
:1017B000D44801F0B9F901BD00000000AA170020CB
:1017C0001404004814000048FFBF0000FFEF0000B1
:1017D000000400205413002000080020C411002041
:1017E0004817002044170020401700205017002001
:1017F0008C120020385C0008E05A000800B583B065
:10180000012209219020C00501F017FA01220A21C6
:101810009020C00501F011FAC020C0000090022005
:10182000694608710320694648710020694688713D
:1018300001206946C87169469020C00501F09AF9F7
:10184000012202219020C00501F0F7F901220321B5
:101850009020C00501F0F1F90C20009002206946AB
:10186000087100206946887101206946C87103200B
:101870006946487169469020C00501F07BF9022055
:1018800000900320694648710120694608710020D4
:101890006946887101206946C87169469020C00573
:1018A00001F068F980200002009003206946487129
:1018B0000120694608710020694688710120694647
:1018C000C87169469020C00501F054F980200002DB
:1018D0008D4908601020009003206946487101205E
:1018E0006946087100206946887101206946C871FF
:1018F00069469020C00501F03DF910219020C005F7
:1019000001F099F9182000900320694648710120E0
:101910006946087100206946887101206946C871CE
:101920006946A14801F026F910207849088008206E
:101930007749086080204000009003206946487184
:1019400001206946087100206946887101206946B6
:10195000C87169469020C00501F00CF9802149004A
:101960009020C00501F067F920200090032069460F
:10197000487101206946087100206946887101207C
:101980006946C8716946884801F0F4F88020000271
:1019900000900320694648710120694608710020C3
:1019A0006946887101206946C87169469020C00562
:1019B00001F0E0F820217C4801F03DF94020009042
:1019C0000320694648710020694608710120694674
:1019D000C87169469020C00501F0CCF88020400114
:1019E0000090032069464871012069460871012072
:1019F0006946887100206946C87169466A4801F0E5
:101A0000B9F880214901684801F015F98020C0012A
:101A10000090032069464871012069460871002042
:101A20006946887101206946C87169465E4801F0BF
:101A3000A1F88021C9015C4801F0FDF807BD000054
:101A4000A8170020B80B00003C170020FC10002055
:101A5000381700203417002000B58BB0E120400279
:101A600004900020059000200690002007900020A0
:101A700009900C20089004A9634801F013F9002094
:101A800000900020019080208000029000200390B0
:101A900069465D4801F063F901215B4801F072F984
:101AA00001225A49584801F08FF99620800104908C
:101AB000002005900020069000200790002009904B
:101AC0000C20089004A9524801F0ECF80020009086
:101AD0000020019080208000029000200390694641
:101AE0004B4801F03CF90121494801F04BF9012232
:101AF0004649474801F068F90BB000BD15004600A3
:101B00000142400002080200180000482804004872
:101B10001804004880B51B206946087001206946FA
:101B20004870012069468870684601F0B9F91C20A8
:101B3000694608700020694648700120694688702F
:101B4000684601F0ADF90720694608700120694632
:101B50004870012069468870684601F0A1F910209C
:101B600069460870002069464870012069468870FF
:101B7000684601F095F90F20694608700120694612
:101B80004870012069468870684601F089F909208B
:101B900069460870012069464870012069468870CE
:101BA000684601F07DF901BD00040048E0B501215F
:101BB000012000F0B9FFEF20019016486946088027
:101BC00000206946088100206946488069468020D7
:101BD000C00501F09FF9EF218020C00501F0CDF98B
:101BE000012201218020C00501F0EAF901218020B5
:101BF000C00501F0C4F907BD00B5074908800648D3
:101C000000880028FBD100BD003801400501050017
:101C100000440040CF070000741700201206130A8A
:101C20001A43130C1A4300BF094205D0830705D09D
:101C30000270401C491EF9D170470000130030B4F7
:101C400014001500103902D310393CC0FCD24907EA
:101C500000D30CC000D504C0890002D30280801CD0
:101C6000002900D5027030BC704700000022DBE77D
:101C70000022E3E730B587B005000C0008210820FA
:101C800000F05BFA07210D2000F0F1F90321142088
:101C900000F042FA6846057201A8009002AB0122EA
:101CA00002A90C2000F05AFAC0B2002809D101990B
:101CB000102906D16946097A217002A94978617014
:101CC00000E0FE20C0B207B030BD70B588B006009D
:101CD00000240821082000F030FA00210D2000F037
:101CE000C6F980210E2000F028FA93206946087278
:101CF000202002A9487001A8009002AB022202A98C
:101D00000C2000F02BFA0500EDB2002D16D10020BA
:101D10000AE002A9C0B2095CC0B23154220002A993
:101D2000C0B20C5C5440401CC0B20428F1DB02A9D4
:101D3000C0B2085CE4B2844200D0FE2580210E20AF
:101D400000F0EAF92800C0B208B070BD00B587B055
:101D500093216A461172702102AA5170002102AAD1
:101D6000917100210DE0C9B2425C02ABC9B25B18AF
:101D70009A7002AA9279C9B2435C534002AA937145
:101D8000491CC9B20429EEDB02AAD21D072102A810
:101D900000F077F80821082000F0CFF901A80090A2
:101DA00002AB092202A90C2000F0D8F9C0B2002829
:101DB00004D10198182801D1002000E0FE20C0B213
:101DC00007B000BD10B588B06C46207202A8417003
:101DD000002006E0C0B2115C02ACC0B22418A170B1
:101DE000401CC0B20628F5DB002006E0C0B2195C3A
:101DF00002AAC0B212181172401CC0B20628F5DB4C
:101E000001A8009002AB0C2202A90E2000F0A6F956
:101E10000400E4B2002C04D1082000F0DAF8000736
:101E200000D4FE242000C0B208B010BD10B588B0A8
:101E30000C0030216A46117202A9487002AA921C55
:101E4000022102A800F01DF801A8009002AB0422B4
:101E500002A90C2000F082F9C0B200280DD101992E
:101E600090290AD10021C9B2102907DA02AAC9B201
:101E7000525CC9B26254491CF5E7FE20C0B208B0FA
:101E800010BDF8B507000E0014000421052000F075
:101E900054F90021012000F0EAF880210A2000F026
:101EA0003BF9002505E0EDB2795D092000F0DFF88F
:101EB0006D1CEDB2F6B2B542F5D30321012000F05E
:101EC000D6F8FF25052000F084F86D1EEDB2002D38
:101ED00001D04007F6D5222000F07BF820702120A9
:101EE00000F077F86070F1BD80B580219020C005CA
:101EF00000F09EFE012000F0E3F980219020C00553
:101F000000F099FE012000F0DBF980219020C0054F
:101F100000F08EFE0A2000F0D3F9022000F059F8FC
:101F200080280BD10A2000F0CBF90A2000F0C8F974
:101F30000A2000F0C5F90A2000F0C2F90F210120A3
:101F400000F095F83D21112000F091F81E212D2080
:101F500000F08DF800212C2000F089F88D212A2036
:101F600000F085F83E212B2000F081F8402115205B
:101F700000F07DF8002002BD80B5C0B2412826D116
:101F80000821082000F0D9F83D21112000F06FF859
:101F90008621172000F06BF87F21262000F067F8DB
:101FA0001E212D2000F063F800212C2000F05FF8A6
:101FB0008D212A2000F05BF83E212B2000F057F8FD
:101FC000012000F07DF900F06AF9002000E0FF2018
:101FD00002BD70B505000024802109014D4800F0C4
:101FE0002AFE68008026064308250AE002214948A7
:101FF00000F021FE8021C900464800F019FE76005D
:102000006D1EEDB2002D0BD08021C900414800F0BB
:1020100012FE3006EAD502213E4800F009FEE9E74B
:10202000082514E08021C9003A4800F004FE64004D
:102030008021C900374800F0FBFD0121354800F040
:10204000EAFD012802D12000012404436D1EEDB2F7
:10205000002DE7D1802109012E4800F0E9FD802103
:10206000C9002C4800F0E4FD2000C0B270BD70B57E
:1020700005000C008021C900264800F0DCFD80210D
:102080000901244800F0D7FD68007E260640082597
:102090000FE002211F4800F0CEFD8021C9001D483D
:1020A00000F0C6FD76008021C9001A4800F0C3FD8B
:1020B0006D1EEDB2002D06D03006EAD5022115487E
:1020C00000F0B6FDE9E708250FE00221114800F015
:1020D000B2FD8021C9000F4800F0AAFD64008021F4
:1020E000C9000C4800F0A7FD6D1EEDB2002D06D012
:1020F0002006EAD50221074800F09AFDE9E7802191
:102100000901044800F094FD8021C900014800F055
:102110008FFD70BD0004004870B505000C0000265E
:102120002800C0B2FFF755FF060034432100C9B2B2
:102130002800C0B2FFF79BFF70BD70B505000E0010
:1021400000242800C0B2FFF744FF0400B44321007C
:10215000C9B22800C0B2FFF78AFF70BDFDB582B0DA
:102160000D00FE2700260020694608706846007AA8
:102170000C2806D00E2809D11226102069460870B6
:1021800004E07726302069460870FFE7802131435C
:10219000C9B20220FFF76BFF80210420FFF7CDFFBB
:1021A00000210120FFF763FF80210A20FFF7B4FF21
:1021B000002404E0295D0920FFF759FF641C6846EC
:1021C000007B8442F6D36846017A0120FFF74FFF77
:1021D0006846007A0C2803D180210D20FFF79CFF70
:1021E000FA24E4000420FFF7F4FE0500641E002C2E
:1021F00005D0E80703D4684600780542F2D0802174
:102200000D20FFF79AFF002C3DD00620FFF7E1FEDE
:102210001B21084236D10027EDB2F6B22E40F0075E
:1022200000D5FF276846007A0C282CD10A20FFF73A
:10223000D0FE05000C20FFF7CCFE4107490F0A989D
:10224000C9B2002907D0EDB26A1E08235A43C9B2A9
:102250005118016003E0EDB2082169430160EDB25D
:10226000002D00D10125EDB2132D00DB1225002435
:10227000EDB2AC4207D20920FFF7ABFE0499085536
:10228000641CF5E7FE2780210C20FFF745FF0021A5
:102290000120FFF7ECFE3800C0B205B0F0BD80B5FC
:1022A0001420FFF796FE800703D103211420FFF7C7
:1022B00033FF01BD80B503211420FFF73EFF01BDB0
:1022C00038B50400002503E00A2000F020FB6D1C57
:1022D000A542F9D331BD00B583B080200090002025
:1022E0006946487101206946087100206946887175
:1022F00001206946C87169469020C00500F03AFC8B
:10230000012000900020694648710020694608714C
:1023100000206946C87169461E4800F02BFC022067
:10232000009000206946487101206946087100202C
:102330006946887101206946C8716946154800F0F0
:1023400019FC8020C00000900020694648710120DF
:102350006946087100206946887101206946C87184
:1023600069460C4800F006FC802000010090002027
:1023700069464871012069460871002069468871E4
:1023800001206946C8716946024800F0F3FB07BDA9
:10239000000000000004004880B5FFF79CFF0A2001
:1023A000FFF78EFFFFF7A0FDFFF784FFFFF777FF32
:1023B0004120FFF7E1FD0A20FFF782FF0A20FFF727
:1023C0007FFF0A20FFF77CFF01BDF446002804D4FC
:1023D000494200F013F8404260474042002905D4CA
:1023E0005FD000F00BF8404249426047494200F09C
:1023F00005F84942604703460B43E6D40022030A2E
:102400008B420BD203098B4219D243088B422ED246
:10241000411A00D20146524110467047FF2209027C
:102420003FD012068B4205D3121209028B4201D310
:102430001212090203098B4219D300E0090AC309E9
:102440008B4201D3CB01C01A524183098B4201D385
:102450008B01C01A524143098B4201D34B01C01A70
:10246000524103098B4201D30B01C01A5241C308E8
:102470008B4201D3CB00C01A524183088B4201D357
:102480008B00C01A524143088B4201D34B00C01A43
:102490005241884200D3401A5241CFD201461046E1
:1024A000704708B500F0B2FD08BD10B402E0401C52
:1024B000491C521E002A09D00B7804789C42F6D0A1
:1024C00002D20020C04302E0012000E0002010BC46
:1024D000704730B4012100220368001D002B0BD08F
:1024E0000468001D0C4202D04D466D1E6419226026
:1024F000241D1B1FF0D0FAE730BC704738B504002C
:10250000C9B2002904D040214B4800F091FB03E000
:102510004021494800F08FFB2021474800F08BFB09
:1025200000250BE080214900434800F084FB802116
:102530008900414800F07CFB64006D1CEDB2082D61
:102540000CDA802189003C4800F075FB2006E9D5B3
:1025500080214900384800F06BFBE8E7202136482D
:1025600000F066FB4021344800F062FB31BD10B53D
:102570000400080000215038C0B2FFF7BFFF00215F
:102580002200D2B2120910201043C0B2FFF7B6FFEA
:1025900000212207120F01201043C0B2FFF7AEFF47
:1025A00010BD38B5002408E001210020FFF7A6FF88
:1025B0006D1CEDB2802DF7DB641CE4B2082C0FDA41
:1025C000002120005038C0B2FFF798FF0021002002
:1025D000FFF794FF00211020FFF790FF0025E8E7A8
:1025E00031BD70B506000C002100C9B23000C0B288
:1025F000FFF7BDFF002506E001217D48EDB2405DFB
:10260000FFF77CFF6D1CEDB2102DF5DB641C210083
:10261000C9B23000C0B2FFF7AAFF002507E00121D0
:102620007348EDB24019007CFFF768FF6D1CEDB2F6
:10263000102DF4DB70BD0000000400487047FDB5AC
:102640000D0000266846007A0821FFF7D4FE002915
:1026500006D16846007A0821FFF7CDFE040006E0A7
:102660006846007A0821FFF7C6FE0400641C2C00AF
:10267000089F0BE00121B85DFFF740FF761C6D1C41
:1026800068460079EDB28542F4D3641C6846007A4E
:10269000E4B2844208D22100C9B268460078FFF74C
:1026A00066FF68460578EBE7F7BD00B583B0F82014
:1026B0008000009003206946487101206946087136
:1026C00000206946887101206946C87169464948F9
:1026D00000F050FA8021474800F0AAFA642000F088
:1026E00016F98021434800F0A6FAC82000F00FF93F
:1026F0008021404800F09CFA0021AE20FFF7FEFE4A
:1027000000210020FFF7FAFE00211020FFF7F6FE5F
:1027100000214020FFF7F2FE00218120FFF7EEFEAE
:102720000021CF20FFF7EAFE0021A120FFF7E6FEFF
:102730000021C820FFF7E2FE0021A620FFF7DEFE01
:102740000021A820FFF7DAFE00213F20FFF7D6FE88
:102750000021D320FFF7D2FE00210020FFF7CEFE9C
:102760000021D520FFF7CAFE00218020FFF7C6FE1A
:102770000021D920FFF7C2FE0021F120FFF7BEFEA5
:102780000021DA20FFF7BAFE00211220FFF7B6FE83
:102790000021DB20FFF7B2FE00214020FFF7AEFE54
:1027A00000212020FFF7AAFE00210220FFF7A6FE4D
:1027B00000218D20FFF7A2FE00211420FFF79EFECE
:1027C0000021A420FFF79AFE0021A620FFF796FE25
:1027D0000021AF20FFF792FE0021AF20FFF78EFE11
:1027E000FFF7DFFE00210020FFF7C1FE07BD00005C
:1027F000380E00200004004880B500F008FC02BD3F
:1028000010B504000B00110003E002705B1C401CBB
:10281000491E002904D01A78002AF6D1FFF726FABB
:10282000200010BD0EB400B582B003A900916B4624
:1028300002000121034878440A3000F005FC0299A7
:1028400006B008479133000080B50A22002101F04C
:10285000EEFD02BD0CB41CB5040004A80190009468
:1028600001AB0A006946084878441C3000F0ECFBD4
:102870000021009A1170002801D40098001B02B0BA
:10288000019910BC03B008475300000010B50400C4
:102890000BE0217889B2074800F084FA80210548CE
:1028A00000F0B4FA0028F9D0641C20780028F0D198
:1028B00010BD00000038014001E0401C491C0A78AE
:1028C0000378934203D1002BF7D10020704702D246
:1028D0000020C0437047012070470268531C03600A
:1028E0001170704700B51749096804229143154AD1
:1028F0001160C0B20821FFF77EFD1349087012482D
:102900000078FA21890041431048018000BD00B5DC
:1029100080B20E49098848430D49086000200D49DE
:102920000860012007490860064800680A4901401C
:102930000129F9D0002003490860002005490860FA
:1029400000BD000010E000E07E1700206C170020A2
:1029500014E000E018E000E001000100124207D09E
:102960008B0706D00B78491C0370401C521EF7D809
:102970007047830706D00B78491C0370401C521E19
:10298000F9D1704770B4103A03D378C9103A78C0BF
:10299000FBD2530701D318C918C001D508C908C014
:1029A000D20704D30B880380891C801C002A01D520
:1029B0000B78037070BC7047F0B504000020002550
:1029C000002200210023604E36680C273740380073
:1029D000002804D0042805D0082806D022E05D484D
:1029E000206021E05B4820601EE057480068F02529
:1029F000AD03054054480268802040020240AD0CFF
:102A0000AD1C002A03D152484543256009E05248D5
:102A100000680107090F491C4E48FFF7EFFC6843A7
:102A2000206001E04B48206047480168F0200840E2
:102A300000094A490B5C2068D84060604248016840
:102A4000E020C0000840000A44490B5C6068D840A0
:102A5000A0603E480068C00502D44148E0600AE03A
:102A600039480068400403D4A0684008E06002E0F0
:102A7000A0688008E06035480068400602D4394804
:102A8000206102E080200002206130480068C0061A
:102A900002D43048606101E0206860612B48006822
:102AA0008007800F002802D1A068A0611AE02748A3
:102AB00000688007800F012802D12068A06111E022
:102AC000224800688007800F022803D1802000027E
:102AD000A06107E01D4800688007800F032801D12E
:102AE0001C48A061F0BD000000B5C9B2002905D0A6
:102AF0001D49096808431C49086004E01A4909682F
:102B000081431948016000BD00B5C9B2002905D054
:102B10001649096808431549086004E01349096823
:102B200081431248016000BD00B5C9B2002905D03B
:102B30000F49096808430E49086004E00C49096818
:102B400081430B48016000BD041002403010024078
:102B500000093D0000127A002C100240780E00207F
:102B6000809FD5001280000014100240181002400F
:102B70001C10024070B500220023002400252A000A
:102B800046E0012393400C681C409C423FD10B79E6
:102B9000012B02D00B79022B19D183680324150075
:102BA00002267543AC40A343836083684C791500CB
:102BB00002267543AC401C43846083880124944002
:102BC000A343838083888C7994401C43848003686A
:102BD0000324150002267543AC40A3430360036839
:102BE0000C79150002267543AC401C430460C36891
:102BF0000324150002267543AC40A343C360C36899
:102C0000CC79150002267543AC401C43C460521CAD
:102C1000102AB6D370BD00B502000020128A89B216
:102C20001140002901D0012000E00020C0B200BD09
:102C300089B28161704701857047F0B414000022A9
:102C40000023E4B20D006D076D0F04267543AC4000
:102C5000220089B20C00E41004256C43051989B2E6
:102C60000C00E410042674430419266A0F27BC469E
:102C70000C006407640F04277C436746A740BE43EB
:102C80002E6289B20C00E41004256C430419246AF6
:102C90002243130089B2C910042251434018036231
:102CA000F0BC7047F0B587B005000F000024002687
:102CB000002128680122904328606868010008000C
:102CC0003C4901400800B96801436960296808006F
:102CD000394901400B007868FA68024339691143A9
:102CE00019432960A968080034490140080079693E
:102CF0000143A9606846FFF75FFE2948854201D17C
:102D0000069E00E0029E286800040CD50220704355
:102D10003968FFF773FB040002204643300039682E
:102D2000FFF76CFB08E030003968FFF767FB040031
:102D300030003968FFF762FB38684008814200D3F1
:102D4000641C2868000407D5200040084107490F8B
:102D50001B4820400C000443AC8107B0F0BD30B4E8
:102D6000002243681A001300164A1A4015000A6828
:102D70004B6813438C681C43CA6822432A43426051
:102D800030BC704700B5C9B2002904D001680122E7
:102D90000A43026003E0016801229143016000BD23
:102DA00000380140C905C90D01857047808CC005F8
:102DB000C00D7047FFCFFFFFF3E9FFFFFFFCFFFFF0
:102DC000F0FF0000FFF0FFFF70B500230024002596
:102DD00000260600080080B2000A80B20300C8B2D4
:102DE00004000120A0400500022B01D1361D02E0A5
:102DF000032B00D10836D2B2002A03D03068054335
:102E0000356002E03068A843306070BD00B5020054
:102E10000020D2691140002901D0012000E00020EB
:102E2000C0B200BD01627047F0B502000024002569
:102E3000002600200B009BB21B0A9BB21E00CBB2E7
:102E40001D0001272B003D009D40012E03D12800CD
:102E50001568054008E0022E03D12800556805409A
:102E600002E02800956805400C00240C0121200098
:102E70000C0084402000D4690440002D03D0002CB5
:102E800001D0012000E00020C0B2F0BD00220023EC
:102E9000090C0A00012191400B0003627047FEE714
:102EA00010B500218278002A26D0174902789210A6
:102EB00004235A438958FF2203789B079B0F082459
:102EC00063439A4091430C0041788901C9B202786A
:102ED0009207920F08235A43914021430A4A0378EC
:102EE0009B1004246343D15001210078C006C00E1A
:102EF00081400648016006E001210078C006C00E4E
:102F000081400348016010BD00E400E000E100E002
:102F100080E100E000B5002203881A001F4B9842B0
:102F200006D08023DB05984202D01D4B984205D184
:102F300013001F4A1A4013004A881A43194B98423B
:102F400005D013001B4A1A4013000A891A43028055
:102F50004A68C2620A880285104A904208D0124A22
:102F6000904205D0114A904202D0134A904201D1BA
:102F7000897A01860121818200BDC162704700B556
:102F8000C9B2002904D0018801220A43028003E06B
:102F900001880A4A0A40028000BD0000002C01405E
:102FA0000004004000100040004001400044014087
:102FB0008FFF0000FFFC000000480140FEFF000002
:102FC00000B5D2B2002A03D082891143818102E088
:102FD00082898A43828100BD30B50200002000232F
:102FE0000024158A0D402B00928911400C009BB2E1
:102FF000002B04D0A4B2002C01D0012000E000205E
:10300000C0B230BD89B2CA4302827047704770B403
:103010000A78002A08D114E05B1C1E78A6420AD068
:1030200001E0002C0CD0401C04789442F9D1002817
:1030300006D003000D006D1C2C78002CECD100E0B4
:10304000002070BC7047FEE7F1B5A4B00E0014007C
:103050001D004A487844FF30253003C822AA03C225
:10306000049600200D9001E0019824180020694684
:10307000488022AB0022D243210000A8801C01F02E
:1030800003FA0190012805DA2078411E8941C943DD
:10309000C90F0191684640882528019E00D1761EFF
:1030A000012E0EDB270039780498249A904704906B
:1030B000002800D1F4E20D98401C0D907F1C761E74
:1030C000F1D168464088252807D100200790089054
:1030D00009900A900B900C9008E068464088002800
:1030E000C2D10D98DEE2010001200843641C217862
:1030F0002029F8D023290ED02B2904D02D2907D040
:1031000030290BD00DE001000220084380B2EDE72A
:1031100001000420F9E701000820F6E70100102073
:10312000F3E72A290FD1296829600A68091D296057
:103130000F92002A05D551420F9101000420084347
:1031400080B2641C12E000210F910AE00F9A7B4BC1
:103150009A4205D093009A185200511830390F91B5
:10316000641C21780A00303A0A2AEFD321782E29EC
:1031700006D00021C9430E9121E000BF8C29000038
:10318000641C21782A2907D1296829600A68091D49
:1031900029600E92641C12E000210E910AE00E9A42
:1031A000664B9A4205D093009A1852005118303954
:1031B0000E91641C21780A00303A0A2AEFD302A942
:1031C000088726783100044878440C3001F06AF909
:1031D000002803D0641C02E038290000002602A861
:1031E0003A30067002A83A300078682804D1217875
:1031F000682901D1622005E06C2807D120786C286D
:1032000004D1712002A93A310870641C12A80690FA
:103210002678641C300025382AD01C3800D1D6E02E
:10322000001F022800D8D2E0133800D1F6E0093898
:1032300000D1CCE0801E00D15EE1401E00D132E121
:10324000401E022800D8C2E0001F00D12BE1401F21
:1032500000D18DE0401E00D1E0E0401E2FD0C01E06
:103260000BD0801E00D1D9E0C01E00D1D6E066E1AF
:1032700001200790252012A99FE002A83A3000788B
:103280006C282868286016D00668001D28600596FE
:103290000E9F002F03D5300001F00EF909E03A002F
:1032A0000021300001F010F9002801D0801B00E05F
:1032B000380008904FE10268001D286038E1286856
:1032C00028600268001D28600020C04300211040D3
:1032D00002AA03C212A80590069B3C2602A803C8B6
:1032E000002904D1002802D10E9A002A14D0761E9B
:1032F00001960207120F3032D2B23A2A00DB27328F
:103300009A5500090A071043090901D1002803D082
:10331000059A9F19BA42EAD33C20801B089099195C
:1033200005910E9988420DDA081A0A9002A8008FBA
:103330000349014002A801870DE100BFFFFFFF7FA5
:10334000EFFF0000002900D405E102A93831097817
:1033500014220A40102A00D0FDE00F99079A891A1A
:103360000A9A891A0E1A012E00DAF4E00A96F2E09F
:1033700002A83A300078622819D0682806D06A2856
:103380000CD06C281BD0712808D018E02868286061
:103390000168001D28600D980880DCE0286828601E
:1033A0000268001D28600D98C11703C2D3E0286889
:1033B00028600168001D28600D980870CBE028681F
:1033C00028600168001D28600D980860C3E02A6825
:1033D000D21D072082432A6003CA2A6002AA03C2C0
:1033E000002903D5012007902D200CE002A8008FB2
:1033F000810703D5012007902B2004E0C00704D5E6
:1034000001200790202012A9087012A807994018DF
:103410000590310002A800F0AFFB9CE002A83A3012
:1034200002786C2A0BD0712A01D06A2A07D12B6846
:10343000DB1D072083432B6003CB2B6005E029684D
:1034400029600868091D2960002102AB03C3682AAE
:1034500003D102A803C880B20BE0622A03D102A8FC
:1034600003C8C0B205E0742A01D07A2A04D102A8A8
:1034700003C8002102AA03C202A83830007800075E
:1034800031D502A803C8002901D100282BD0202063
:103490003043782827D1302012A9087002200790E5
:1034A00012A846701FE0290002A83A30007800F008
:1034B000FBF802AA03C202A8002904DA0798411CFB
:1034C00007912D210DE0008F810704D50798411C3D
:1034D00007912B2105E0C00705D50798411C0791EE
:1034E000202112AA115412A8079940180590310002
:1034F00002A800F0A7FA2EE002A83A3000786C2863
:1035000009D001200790286828600168001D286004
:1035100012A801701FE0286828600168001D28605B
:1035200068468180002001A94880C0430E9001AA0E
:1035300002A9249800F0ECF800280CD5B0E0012096
:103540000790252012A90870002E04D00798411C6E
:10355000079112A90E540F980799401A0A99401A18
:103560000899401A0B99401A0999401A0C99401A67
:10357000019002A838300078400711D42020694615
:103580000870002609E001236A4602A9249800F089
:10359000A4FE002800D083E0761C01988642F2DB6E
:1035A000079F12AE0BE031780498249A904704905C
:1035B000002875D00D98401C0D90761C7F1E002FA2
:1035C000F1D13020694608700A9F002608E00123E7
:1035D0006A4602A9249800F080FE002860D1761C7B
:1035E000BE42F4DB089F059E0BE031780498249AD4
:1035F00090470490002853D00D98401C0D90761CE5
:103600007F1E002FF1D13020694608700B9F0026E5
:1036100008E001236A4602A9249800F05EFE002813
:103620003ED1761CBE42F4DB099F059808994618E6
:103630000BE031780498249A9047049000282FD00A
:103640000D98401C0D90761C7F1E002FF1D130206C
:10365000694608700C9F002608E001236A4602A90B
:10366000249800F03AFE00281AD1761CBE42F4DB02
:1036700002A838300078400700D4F7E420206946DB
:103680000870002600E0761C0198864200DBEDE41D
:1036900001236A4602A9249800F01FFE0028F2D0F8
:1036A0000020C04325B0F0BD0A00622822D068285F
:1036B00019D06A2808D06C2823D0712804D0742827
:1036C0001FD07A2808D01CE01368DB1D0720834335
:1036D000136003CB13607047116811600868091DFF
:1036E000116000217047116811600868091D1160A0
:1036F00000B20BE0116811600868091D116040B24A
:1037000004E0116811600868091D1160C117704755
:10371000F4B598B007000C00206B002800D50E48C7
:10372000029000F0DDFE616B0818049009487844AF
:10373000223003C806AA03C23820205C400702D406
:10374000049841280AD208A803904020049000263B
:1037500013E000BFC4230000FFFFFF7F00F0C6FEA0
:1037600003900028F3D10020C04369E11898801C21
:10377000189002980099401A02900298012800DAE5
:10378000D1E006AA1898018801A8401C00F00AFFA1
:103790000090002800D5DAE018980088002804D1AD
:1037A0000098401E009000D5D1E002980099884210
:1037B00000DAB8E060690499009A8218914200D357
:1037C000A0E066634142206A081AA169401A616A52
:1037D000401AE169401AA16A401A05903820205C1D
:1037E000400711D4202069460871002509E0012313
:1037F00001AA2100380000F070FD002800D0A6E0EA
:103800006D1C05988542F2DB6669039D0BE0297803
:10381000A068B847A060002800D198E0E06A401C8A
:10382000E0626D1C761E002EF1D1302069460871D1
:10383000266A002509E0012301AA2100380000F0D2
:103840004CFD002800D082E06D1CB542F3DBA66978
:10385000E5680AE02978A068B847A060002876D01B
:10386000E06A401CE0626D1C761E002EF2D1302012
:1038700069460871666A002508E0012301AA210053
:10388000380000F02AFD002861D16D1CB542F4DB40
:10389000E669E068A16945180AE02978A068B84798
:1038A000A060002853D0E06A401CE0626D1C761EC8
:1038B000002EF2D1302069460871A66A002508E082
:1038C000012301AA2100380000F007FD00283ED1A5
:1038D0006D1CB542F4DB3820205C400710D5202059
:1038E00069460871002508E0012301AA210038007B
:1038F00000F0F3FC00282AD16D1C05988542F3DB0B
:1039000000266661009A01A9491C03986369C018E2
:10391000FFF724F8606900994018606118980088E2
:10392000002800D022E7606B6169401A216A401AC2
:10393000A169401A616A401AE169401AA16A401AF5
:1039400002903820205C400711D400250CE00026AE
:10395000F6436EE02021A068B847A0600028F6D0AA
:10396000E06A401CE0626D1C02988542F2DB6369EC
:10397000039A2100380000F0B0FC0028E7D1206A4B
:103980000090002509E03021A068B847A060002819
:10399000DDD0E06A401CE0626D1C00988542F2DBDD
:1039A000A369E2682100380000F097FC0028CED11E
:1039B000606A0090002509E03021A068B847A06047
:1039C0000028C4D0E06A401CE0626D1C009885426B
:1039D000F2DBE369E068A16942182100380000F0D9
:1039E0007CFC0028B3D1A06A0090002509E03021BA
:1039F000A068B847A0600028A9D0E06A401CE06237
:103A00006D1C00988542F2DB3820205C40070ED503
:103A1000002509E02021A068B847A060002896D0C2
:103A2000E06A401CE0626D1C02988542F2DB666130
:103A30006663039808A9884201D000F0BFFD3000FA
:103A400019B0F0BDF3B583B0006900906846027C00
:103A50006F2A01D1082406E020211143782901D0E2
:103A60000A2400E010243C25039803C806000F0038
:103A7000642A01D0692A07D1002905DA0020002133
:103A8000801BB94106000F00002F12D1002E10D16B
:103A90000398006B00280CD1082C3CD103983830D7
:103AA0000078000737D53B25302000993B3108705E
:103AB00031E06D1E0195300039002200E31700F05F
:103AC000C1FD3032D2B23A2A03DB6846007C51385D
:103AD000121800984255300039002200E31700F018
:103AE000B1FD06000F0001D1002E05D00398C0687B
:103AF000009949198842DCD3082C0CD1039838303E
:103B00000078000707D50098405D302803D06D1E6F
:103B10003020009948553C20401B0399886100994A
:103B20004919039AD1600399096B884209DA081A86
:103B3000039908620398008F0E490140039801879A
:103B400015E0002913D503993831097814220A4069
:103B5000102A0CD10399496B039A5269891A039A66
:103B6000126A891A0D1A012D01DB0398056205B04E
:103B7000F0BD0000EFFF0000F3B591B006AD03C843
:103B800002AA03C212A800782021014300916129F2
:103B90000BD01198006B002801D5062003E004D15A
:103BA000672902D1012011990863119841684800E2
:103BB000400DAA4A904225D1080310D111980068FF
:103BC00000280CD103201199886112A8007861386F
:103BD0001A2842D3234878448A3000900BE003200F
:103BE0001199886112A8007861381A2831D31E48CB
:103BF000784474300090032200991198C068FEF751
:103C0000ADFEF1E1012817DA119800F050FD01280E
:103C100012DB002700260098612832D11198C06875
:103C200030210170401C411C119AD16012A9097801
:103C300061291FD178211EE011994968884A0A40FC
:103C400088491143119A51608749461A0027FF435A
:103C5000E1E7064878441430CCE705487844103052
:103C6000BBE700BFC81E0000BC1E0000B41E000061
:103C7000B81E00005821017011984069801C1199EC
:103C80004861002F03D1002468468780A2E1009894
:103C9000612800D09FE01198046B002C01D52124ED
:103CA00000E0641C24B2601C0090119803C804AAB0
:103CB00003C202A803C80022002300F01AFD04A8D2
:103CC00003C802D280221206514002AA03C2301F4A
:103CD0006946888000270F7606AE761C00E0F61D48
:103CE0000098012830DB02A803C80022002300F05E
:103CF00019FD29D21C2102A800F02EFD02A803C83C
:103D000000F0B8FD05000098C01F009001280ADBF4
:103D1000280000F0D9FD02000B0002A803C800F043
:103D20004AFE02AA03C2F61D072004E0761E2907F8
:103D3000090F31702D11012D01DB401EF6D5401EFB
:103D4000CDD4761E3770FAE706A8401C311A06ADAE
:103D50006D1CA14200DA0C0024B2200032D488424B
:103D600005DA06A909184978082900DB0F2706A9F2
:103D7000091801E0641E491E401E0A78BA42F9D0B3
:103D80000F2F04D106A909184A78521C4A7000283E
:103D900006D506AD641C019800B2001D69468880F6
:103DA00024B2601E0ED429180A783032D2B23A2AD0
:103DB00003DB12AB1B783A3BD2180A70401E491E37
:103DC0000028F1D51198006B002800D402E1601E94
:103DD00011990863FEE002A803C80022002300F046
:103DE00088FC06D202A803C880221206514002AA0B
:103DF00003C236B27D4870437D49FEF7FCFA69463E
:103E000088800720019909B2421A00207949012AC5
:103E100020DB049202AA30CA00260F000498C007D3
:103E200007D532003B002000290000F03BFE0400D3
:103E30000D000498401004903000390032003B001F
:103E400000F030FE06000F0004980028E6D102A81A
:103E500030C028E054420026674F18E0FF070000FA
:103E6000FFFF0F800000E03FFE030000E00707D5E2
:103E700004A803C832003B0000F014FE06000F0047
:103E8000641004A803C804AA0CCA00F00BFE04AA1C
:103E900003C2002CEAD102A803C832003B0000F0A4
:103EA000C3FE02AA03C20098662803D1019800B29B
:103EB0000A3000E006201199096B081804901428B4
:103EC00001DB1320049030206946087606AC641CA0
:103ED000049801283ADB02A803C800F0DDFC0500C5
:103EE0000834042628000A21FEF788FA0F0028006B
:103EF0000A21FEF783FA0500641E303727700A2175
:103F0000FEF77CFA0F0028000A21FEF777FA050079
:103F1000641E30372770761EE4D1083404980838C0
:103F200004900128D4DB02A803C800F0B5FC00F01F
:103F3000D5FC02000B0002A803C800F03CFD0022E3
:103F40002E4B00F0AFFD02AA03C2C4E706A8401C36
:103F5000201A06AD6D1C6A4605E0401E019909B2A3
:103F6000491E91806D1C29783029F6D00099662968
:103F700003D1019909B2491C04E0652901D101214D
:103F800000E00021119A126B541824B2A04200DA0A
:103F9000040024B221001DD4814204DA685C352873
:103FA00001DB392000E030206A1800E0641E521E58
:103FB000491E13788342F9D0392802D1685C401C2D
:103FC0006854002906D56D1E641C019800B2401C7F
:103FD00069468880019800B2009023B22A0012A896
:103FE0000178119800F00CF813B0F0BD977500003F
:103FF000A0860100000024400000F03F84D79741D4
:10400000F3B589B015001C0000F089FE0190406AEC
:104010000078694608720998076B012C01DA0124BF
:10402000ADA50AA8017820200843109E662801D17A
:10403000761C18E0672800D09FE036B20321C94300
:104040008E4200DA9DE0BE4200DB9AE0761C0998C1
:1040500038300078000702D4BC4200DA270036B2BC
:10406000BF1B00D500270998C06800900998806997
:1040700000990918019136B2012E2CDA401C30212A
:10408000019A1170012F04DA09993831097809076A
:1040900004D56946097A009A1154401C099988612F
:1040A0007042874200DA7E4236B270420999486215
:1040B000BF19A74200DA3C0024B20998C46122006B
:1040C00029000098099B9B69C018FEF747FC381B24
:1040D00009998862E1E0B44220DA220029000198BF
:1040E000FEF73CFC099989690919099A9161301B0D
:1040F000099A5062012F04DA0998383000780007D5
:1041000009D56846007A099AD26850540998C0695E
:10411000401C0999C86109988762BEE032002900F5
:104120000198FEF71BFC099880698019A41B012FD8
:1041300004DA099938310978090705D56946097AF9
:10414000099AD2681154401C0999886124B2A74287
:1041500000DA3C0024B22200A9190998C068099B22
:104160009B69C018FEF7FAFB099880690019099944
:104170008861381B099948628FE0612914D1702049
:1041800015E0BC4205DA099938310978090700D4ED
:1041900027007F1E00D500270AA80078672801D1D4
:1041A000652004E0452002E0412902D150200AA9FF
:1041B000087009988169481C099AD26800922A7887
:1041C000009B5A54691C012F07DA099A3832127879
:1041D000120702D4099988611BE06A46127A009B93
:1041E0001A54401C099A9061012F12DB641E24B2FC
:1041F000A74200DA3C0024B22200009B1818FEF708
:10420000ADFB09988069001909998861381B0999E3
:1042100048620998C0680999896945180AA8007810
:1042200028706D1C36B2300003D42B2028706D1C12
:1042300003E02D2129706D1C4642002405AF08E0E3
:104240000A2203A800F086FD04983870039E641CBF
:104250007F1C31B20129F3DA022C08DA0AA80078AF
:1042600020210143652902D1302028706D1C002CCB
:1042700009D1302028706D1C07E0641E05A8005D80
:10428000303028706D1C012CF7DA0998C068099944
:1042900089694018281A0999C86109983830007846
:1042A00014210140102914D109984069099989699C
:1042B00040180999496A40180999C969401809992B
:1042C000896A40180999496B884202DA081A0999E3
:1042D00008620BB0F0BD0000300079B50E0014008C
:1042E0001D00002005E0F06A401CF0620020641C04
:1042F0006D1E002D08D02178B068009A9047B060FC
:104300000028F0D10020C04376BDFEE7FAB585B0A5
:1043100007001600002B01D0002018603C0000E0D0
:10432000641C207800F026FD0028F9D120782D2883
:1043300001D02B2803D169460870641C02E02B20B1
:1043400069460870002E41D4012E3FD0252E3DDA5B
:10435000012E0ADB102E16D12078302813D1607878
:104360002021014378290ED10AE02078302801D09D
:104370000A2608E0607820210143782902D110261E
:10438000A41C00E00826049400E0641C2078302877
:10439000FBD00025039400BF27A06946487008E0C1
:1043A000029569464978401AC0B2019075432D18AC
:1043B000641C207800F0E7FC010032001EA000F031
:1043C00083F80028ECD10498A04205D10598002874
:1043D00000D00760002028E00398201A20A1895D02
:1043E000401A17D4012808DA0198281A05D3310099
:1043F000FEF704F8029988420CD000F0CDFC22218F
:1044000001600698002802D0012006990860002566
:10441000ED4305E0684600782D2801D1684205008B
:104420000598002800D00460280007B0F0BD80B5D2
:104430000023FFF76BFF02BD30313233343536379E
:1044400038396162636465666768696A6B6C6D6E52
:104450006F707172737475767778797A00000000E6
:1044600000002115110E0D0C0B0B0A0A0909090990
:1044700009080808080808080707070707070707C3
:104480000707070707000000F8B504000F00150034
:104490001E0000F091FC33002A003900200000F0DB
:1044A0009FFCF2BDC9B200E0401C02788A4202D0F3
:1044B000002AF9D100207047010000E0491C0A7869
:1044C000002AFBD1081A7047C9B201E0401C521EF5
:1044D000002A03D003788B42F8D170470020704740
:1044E00080B500F069FC012002BDFEE770B5050053
:1044F0002C000F3407208443C046C046A54233D267
:10450000082C04D2082402E0083000F057F82448B0
:10451000026811000CD1011D0A68002A20D013681E
:10452000A34212D2111DF7E71D68A5420DD2191D35
:104530000B68002BF8D11268011D00E0191D0B68F3
:1045400093420DD01D68A542F8D300290CD00D6808
:104550002A681300083BA3420AD26A680A600FE087
:1045600000F05CFC0028CFD1C046C046002070BDE2
:104570002B190B606E685E60121B0B681A602C6052
:104580000968002904D04A68002A01D0091D00E00A
:1045900000210160C046C0460835280070BD0000FB
:1045A0002817002070B504000D00160000F004FC70
:1045B00032002900200000F009FC70BD002800D165
:1045C000704738B5083804002068082836D34007FB
:1045D00034D1C046C0461A484168002901D08C42F7
:1045E00003D26160446019E019004B68002B01D0D0
:1045F000A342F9D30B68CD18AC421DD3A54204D118
:1046000022689A180A600C0008E04A68002A03D061
:104610002368E3189A420FD362604C6061680029F6
:104620000AD02268A3188B4206D1002303600868D1
:104630001018206048686060C046C04631BD000068
:1046400028170020124224D0994228D970B500259D
:104650001B4202D00C00002109E000240126491869
:104660006441944200D3A41A7641F8D33100012664
:1046700001E0764109D2001864416D41A41A9D41C0
:10468000F7D2A4185D41B619F5D3300022002B00F3
:1046900070BD1B42D8D108B500F0D6FB08BD01D1D2
:1046A0009042D3D202000B0000210020704730B4AA
:1046B00001004B68802212061A4001201B031B0BCD
:1046C0004B600BD10B68002B08D10DE00B68640028
:1046D000DD0F25434D605B000B60401E4C68E3021C
:1046E000F4D523031B0B4B604B681A434A6030BC64
:1046F000704730B4012464054D00EC420BD85D00D6
:10470000EC4208D80C001C4364000443144304D258
:10471000994200D1904230BC7047FCD08B42FAD114
:104720008242F8E730B4012464054D00EC420BD816
:104730005D00EC4208D80C001C43640004431443A1
:1047400004D28B4200D1824230BC7047FCD09942E7
:10475000FAD19042F8E7FEE770B504000D006068FA
:104760004000400D3F4EB04207D16068000302D1C7
:104770002068002816D0022070BD002804D1200037
:10478000FFF795FF01286BDA012D0DDB311A8D4201
:104790000AD36068002802D50020334901E00020D8
:1047A000310503C4012070BD4142A942616806DAA7
:1047B0002E4A0A40281800051043606047E0802216
:1047C0001206114062681203120B80235B0313432D
:1047D0006360401E2D1800202A003532352A02D38E
:1047E0006160206070BD00221E23DB439D4204DA1D
:1047F00020352268636823606060684211D0521ED1
:104800009241D243D20F20231B1A25689D402A4390
:104810002568C54066689E402E4326606368C34095
:1048200063606068084360601148824206D280205D
:10483000000682420ED12078C0070BD52068401CAC
:1048400020602068002805D16068401C606000205E
:10485000C04370BD60688842F9D120680028F6D155
:10486000002070BDFF0700000000F0FFFFFF0F8079
:1048700001000080F4464A1805D200F00FF801D577
:1048800080174008604700F009F80121C9078842F5
:1048900000D90800404260474A1812D2400DC902B0
:1048A00008430121C9070843520D40210901521A4A
:1048B000521C06D452421F3201D4D0407047C01758
:1048C000704700207047FEE7010009D5F4464042DA
:1048D00000F006F80122D20711436047010000BF33
:1048E00042221201D21E004207D002D4521E0018EA
:1048F000FCD5C10A40051205891870478B4200D1CA
:10490000824205D98446100062468C4619006346EF
:10491000DF184C18640D7F0D3AD0661C760537D031
:10492000E61B352E34DCDB022B43DB0A0C0DC902FF
:104930002943C912202E0DDB1700203E06D01F0090
:10494000F741F3405F400026012A7741C0187141CA
:104950000DD217E01700F741F2405740F3415A409B
:10496000B340F3405A400026801859410AD3A21C94
:1049700052050FD0C207012F724117004008CB0724
:1049800018434908641C24054208AF417041614145
:10499000F0BC7047641C21050020F9E76B4010E073
:1049A0006B40ABE7F742F3D1E943F1E72442EFD1A3
:1049B00000200021ECE7F0B40125ED070F005F4077
:1049C000EED40C00871A9C4105D2C01BA141D2191C
:1049D000634169406B40AE0ADF184C18F442E1D2E3
:1049E000640D7F0DE2D0E61B362ED1DCDB022B43BB
:1049F000DB0AA4460C0DC9022943C90A012E28DC92
:104A000004D1D6075208DF073A435B08EF0A764223
:104A10009041994114D039423BD1B61940414941A6
:104A2000761C394204D1761C001849413942FAD02B
:104A3000B9436746B74208D9A41B24052143A7E719
:104A40000042EAD13642E8D1A2E7E40AE1070020B9
:104A50009EE7202E0BDD203E1F00F340F7415F4014
:104A6000012A002257417E42984191410BE01700F4
:104A7000F741F2405740F3415A40B340F3405A40A7
:104A80007E42904199410A0303D2641EB619404107
:104A900049410027641E24054208AE417841614126
:104AA000F0BC7047F0B50E005E400125ED072E40CA
:104AB000B446AE0ADF184C18F44208D2F7420ED2C0
:104AC000640D01D07F0D12D100206146F0BD05D1EB
:104AD000F74201D87F0D05D10020C143F0BDFBD1C5
:104AE000640DF9D00020C143490549088FE0E4195D
:104AF000C902DB0229432B43DB0A460DC0023143C6
:104B00008E4630B487B295B27D432E0CADB2140CF4
:104B10007C43A419260C240425439CB27C43A4198D
:104B2000190C7943270CC919A4B20F043C43090C92
:104B3000000C97B247432E0CBE193543ADB2170C8B
:104B40004743360CBF19A6B2BF193E043543240CA7
:104B50003E0C36199FB24743BF19BCB23E0C8919AF
:104B60001F0C47437F183E043443390C704680B213
:104B700097B247432E0CBE193543ADB2170C4743CD
:104B8000360CBF19A6B2BF193E043543240C3E0CA7
:104B900036199FB24743BF19BCB23E0C89191F0C8E
:104BA00047437F183E043443390C77463F0C90B29C
:104BB00078432E0C80190604ADB22E43050CA0B22A
:104BC0002D18120C7A435019020C80B2240CA41830
:104BD0009AB27A43121914042043120C89181B0C40
:104BE0007B43C91830BCEF0A394203D1B6194041A2
:104BF0004941641E6F12BF0DE41B0BDBFF19BC4261
:104C000011DA240500274208AE4178416141664629
:104C10003143F0BD641C05D1401C6141CF0201D37A
:104C20004908F4E750E75DE7F0B40E005E40012567
:104C3000ED072E40B446AE0ADF184C18F4423BD2C2
:104C4000F74241D2640D43D07F0D38D0E41BC90236
:104C5000DB0229432B43CF0ADB0A0600B61A9F4129
:104C600004D2641EB6197F41B6185F416812800DE8
:104C700024180018844222DAE80C0021B6197F417A
:104C8000B61A9F4102D2B6185F413F1C40414941CC
:104C9000F4D3241C21DD2405B6197F41B61A9F41A7
:104CA00005D33743C60737430026012F70416141C2
:104CB00066463143F0BC7047FCD1F74205D2002074
:104CC000C14349054908F3E704D00020C143F1E797
:104CD0007F0DFAD000206146ECE72442FAD1401C57
:104CE00061410F03F6D30020E2E7FEE780B51248EA
:104CF00000F0ABF811A1016041608160C160016109
:104D0000416181610EA242628162C16201634163BD
:104D10000CA282630DA2C2630164416401BD10B59F
:104D2000054800F092F804002068002801D1FFF740
:104D3000DDFF200010BD0000000C0020000000007E
:104D40002E00000066616C7365000000747275656A
:104D5000000000007CB504000E00150030002900A2
:104D6000FDF749FB00904543701B0190684603C85E
:104D700003C476BD10B50400012000F015F8200032
:104D800000F064F810BD10B50400012000F00CF82C
:104D9000200000F065F810BD80B5024800F055F81D
:104DA00002BD00009C0E002010B50400064800F073
:104DB0004CF8A100405810BD80B5034800F045F8FC
:104DC000806902BD00000000900C0020002804D182
:104DD0000EA003C803C20020704701700120704775
:104DE000002904D10BA003C803C300207047002A88
:104DF00002D10120C0437047002801D00A78028008
:104E00000978481E8041C043C00F70470000000071
:104E100000000000000000000000000007490868D2
:104E2000002801D000207047054807229043086001
:104E300004499143091A0160704700BF68170020B8
:104E4000B71B0020B01D00207047704701000939D2
:104E5000052901D3202801D1012070470020704787
:104E6000010041391A2900D220307047704700B53F
:104E7000FEE7704780B501218020C005FEF7ACF841
:104E8000002800D18BE001218020C005FEF7BAF890
:104E9000834800788349087000F030F98248007830
:104EA000401C81490870804800780B2826DB0020D0
:104EB0007D4908707D4800687D490968884207D1AE
:104EC0007B480068002803D001207A49086003E08D
:104ED000774800687549086077480068774909682D
:104EE000884207D175480068002803D00120744922
:104EF000086003E0714800686F49086071480088E5
:104F0000002804D06F480088401E6E4908806E4813
:104F10000088002804D06C480088401E6A49088038
:104F20006A480068012804DB68480068401E674939
:104F3000086067480068012804DB65480068401E77
:104F40006349086063480068012805DB6148006820
:104F5000401E604908600FE0FA2080005D4908604B
:104F60005D480078002807D15C4803C80022401C37
:104F700051415A4A03C2083A5548006800281AD1DC
:104F8000FDF75CFB5648009008238022002100209A
:104F9000FDF755FB0020C0434D4908600BE002219E
:104FA0008020C005FEF718F8002804D002218020D8
:104FB000C005FEF727F801BD10B5002449494A484D
:104FC000FDF732FF002817D046494748FDF75EFF3E
:104FD0004548FDF7EBFE3749096800290CD13449F3
:104FE0000968BE2908D24149314A126888543048BC
:104FF0000068401C2E49086008213B48FDF706FF69
:10500000012806D108213848FDF70CFF3648FDF786
:10501000CDFE10BD80B533493548FDF705FF0028AA
:1050200017D030493248FDF731FF3148FDF7BEFE59
:105030002349096800290CD120490968BE2908D2F2
:105040002C491E4A126888541C480068401C1B49A1
:10505000086008212648FDF7D9FE012806D108215D
:105060002348FDF7DFFE2248FDF7A0FE01BD80B515
:1050700001212148FDF7B0FF002804D001211E487E
:10508000FDF7C0FF09E002211B48FDF7A5FF00283E
:1050900003D002211848FDF7B5FF01BD0000000054
:1050A000921700209A170020AC1700203417002018
:1050B000381700203C17002040170020441700201C
:1050C0004817002078170020741700205017002080
:1050D000980E002064170020A91700202017002038
:1050E000000800200501050000380140FC100020E8
:1050F00000440040C411002000040040024801495F
:105100000860704700300040AAAA000080B54E48F1
:105110000068012101434C4801604C4800684C493B
:1051200001404A480160484800684A4901404648F1
:1051300001604548006848490140434801604348D0
:1051400000684649014041480160454800680F2118
:105150008843434908604348006843490140414847
:1051600001604248006801218843404908600020EE
:105170003F49086000F001F801BDC0B50020019072
:1051800000200090304800688021490201432E48E9
:1051900001602D4800688021890208400090019834
:1051A000401C01900098002804D10198A021C90159
:1051B0008842EED124480068800302D50120009087
:1051C00001E000200090009801283BD111202949DE
:1051D00008601E4800681D4908601C4800681B499B
:1051E00008601A4800688021C9010143174801601E
:1051F00016480068194901401448016013480068C6
:10520000882149030143114801600F48006880214B
:10521000490401430C4801600B4800688001FBD53C
:105220000A48006803218843084908600748006865
:105230000221014305480160044800680C21014037
:105240000829F9D103BD00000010024004100240FB
:105250000CB8FFF8FFFFF6FEFFFFFBFFFFFFC0FFEC
:105260002C10024030100240ACFEFFFF3410024010
:105270000810024000200240F8B504000E0015009E
:10528000207880075CD0200000F09EF8002857D1DD
:10529000002E02D003CE083E2D18009801283CD1E4
:1052A0002088C00416D522003D32A169200000F0FC
:1052B000ABF80700626A002A00D12269E168200089
:1052C00000F0A2F8E91B0D1AA26AE168200000F0C4
:1052D0009BF82D1A002D28D12088C0218901084271
:1052E0000ED06068E0602061A06260616068E0628A
:1052F00020003D30A06120002430E0610020606289
:10530000002E04D0083603CE2200303203C220889B
:105310000F49014021800020F2BD022805D000285D
:105320000AD10020C04385420AD0009A29000320F8
:10533000205600F06FF805000020C0438542CBD115
:10534000FFF72AFD232101600020C043F2BD00BF0A
:10535000FFCE000070B500F083F8040020888004C0
:105360002DD565680026F64308E04A1B290000F0A9
:1053700079F8B0420DD000280BD02D18032020560C
:10538000E1688D42F1D30022002100F06BF8B042B9
:105390000DD16068E0606061E06220888021890052
:1053A00001432180200000F05CF8300070BD65688A
:1053B000E5606561E5622088114901402180200097
:1053C00000F04FF8002070BDF8B5002815D1C04698
:1053D000C04600240B4D08260027FF4328680028FC
:1053E00004D0FFF7B7FF002800D53C002D1D761E26
:1053F000F4D1C046C0462000F2BDFFF7ABFFF2BDBE
:10540000FFDF0000580E0020914201D2501A704771
:105410000020704730B583B004000D00012A02D18E
:1054200000F069F807E0022A07D1009400200190FB
:1054300069460C20ABBE2D1801E0002A0CD1009467
:10544000019569460A20ABBE002805D10022210043
:10545000280000F02EF801E00020C04303B030BD6A
:105460007047704780B5002802D400F065F802BD8F
:10547000002002BD30B4002100242E4A13001D6814
:10548000854204D1E300D218116051600FE0641C22
:105490009D688542F6D0641C1D698542F2D0641C6B
:1054A0009D698542EED0641C2033102CE7D330BCBC
:1054B000704770B400241F4B1D002E688E4208D127
:1054C0000100E4001B19012A01D15A6889185960AA
:1054D0000FE0641CAE688E42F2D0641C2E698E42CE
:1054E000EED0641CAE698E42EAD0641C2035102CCC
:1054F000E3D370BC704710B400220E490B001C6847
:10550000844203D1D0000818406810E0521C9C6807
:105510008442F7D0521C1C698442F3D0521C9C690F
:105520008442EFD0521C2033102AE8D3002010BC54
:1055300070470000DC14002080B5002901D1002054
:1055400002BD012801D0022802D100F004F802BDFA
:1055500000F011F802BD30B583B00C001500012039
:1055600000F032F800900194029569460520ABBE28
:10557000281A03B030BD10B584B0030014000093A6
:105580000191029469460520ABBE01221900201A40
:10559000FFF78FFF04B010BD80B500F033F80200B4
:1055A0000023DB431068984204D011000220ABBEF8
:1055B000002010605068984204D0111D0220ABBE3C
:1055C0000020506001BD000010B584B0040000F060
:1055D00019F8A100421810680021C94388420DD172
:1055E00007A00090002C01D1002000E004200190D1
:1055F0000320029069460120ABBE106004B010BDCC
:105600003A74740000487047900E0020816807E0EB
:105610000268116851185368CB18C36008320260E1
:10562000C2689142F4D04A1C826008787047F0B595
:1056300087B001000831029102685208D20089182F
:10564000039100250495059501684908C90044188F
:10565000083440686946C307DB0F4B704008C00040
:1056600020180190002735E002A8FFF7CFFF46B2CF
:105670000AE00298016840180490029949684018AD
:105680000590029808300290049805998842F0D05D
:10569000411C0491007869460870BD4210D1019800
:1056A000844201D100F01EF8256868464078002841
:1056B00001D048462D1860682F180834BD42EED03E
:1056C0006846007828706D1C002E08D5761CE4D141
:1056D000BD42C9D101988442C6D107B0F0BD761E43
:1056E000D2D5F5E780B5012000F002F801BDFEE754
:1056F00080B5FFF751FF024A11001820ABBEFBE74F
:105700002600020038B50400E0686169884254D37D
:1057100021882B4A0A40022A09D0080402D5802099
:10572000800001E08420C001084320803FE0C025C4
:10573000ED012940A94207D1A168884204D3200085
:10574000FFF742FE002832D12088E90808421ED126
:10575000616820003D30814219D180208000FEF731
:10576000C5FE6060002806D120003D306060E0602A
:10577000401CA0600BE0218840220A432280E060A8
:10578000802189004118A160A0626068E0626068C1
:105790002061A0686061207840070BD502220021BB
:1057A000200000F00FF80021C943884202D10020F8
:1057B000C04332BD208805432580002032BD00BF94
:1057C0000290000070B50D001600FFF749FE0400BE
:1057D00033002A000021FFF74FFD05002000FFF7EE
:1057E00040FE280070BDFEE710B5002102781206C9
:1057F00026D50023214A1468844202D19B00D1504F
:105800001BE0012354688442F8D002239468844248
:10581000F4D00323D4688442F0D004231469844272
:10582000ECD0052354698442E8D00623946984426D
:10583000E4D00723D4698442E0D0FEF7BFFE10BD58
:105840000180C943C17001003D31416001003D311B
:10585000C16001003D31016101003D318162010003
:105860003D31416101003D31C16201003D31816145
:1058700001002431C16110BD00000000580E00205D
:1058800070B504002078800703D00320205600283C
:1058900009D5C046C0462000FFF7A6FFC046C04657
:1058A0000026F64329E02000FFF78EFD0600C046E3
:1058B000C0462078400602D56068FEF77FFE0025CE
:1058C000656003202056022805D900F018F800284A
:1058D00001D00026F643A06B002809D000F01CF888
:1058E000002801D00026F643A06BFEF767FEA563F3
:1058F0002000FFF779FFC046C046300070BD10B5EC
:1059000082B00200009269460220ABBE0400100083
:10591000FFF7B0FD200016BD00B583B00090FEF784
:10592000CBFD019069460E20ABBE03B000BDFEE783
:1059300010B5184C2068002801D0FFF7A1FF60685F
:10594000002801D0FFF79CFFA068002801D0FFF7D6
:1059500097FFE068002801D0FFF792FF2069002838
:1059600001D0FFF78DFF6069002801D0FFF788FFA5
:10597000A069002801D0FFF783FFE069002801D06B
:10598000FFF77EFF002200210020C043FFF76AFDE1
:1059900010BD00BF580E002038B504000800FFF706
:1059A0005FFD0500E8686969884204D32800FFF7B5
:1059B000A9FE002810D4E868411CE960047028881A
:1059C000010504D440050DD5E4B20A2C0AD1280003
:1059D000FFF7FAFC002805D02800FFF742FD002061
:1059E000C04332BD2800FFF73CFDE0B232BDFEE708
:1059F0007B2244223A22313131313131313131315E
:105A00003131313139393030222C2255223A222598
:105A100073222C2254223A2230222C2253223A2260
:105A2000227D00007B2244223A2231313131313152
:105A3000313131313131313139393030222C225547
:105A4000223A222573222C2254223A2231222C225D
:105A500053223A22227D000041542B51494F504598
:105A60004E3D22544350222C22626779666868308A
:105A7000322E6368696E61636C6F75646170702E3D
:105A8000636E222C353535350D0A00007B22442209
:105A90003A2225733030222C2255223A22257322B5
:105AA0002C2254223A2232222C2253223A22256CD2
:105AB0006C64227D0000000041542B51494F504539
:105AC0004E3D22544350222C226170692E73756E14
:105AD0007379692E636F6D222C353535350D0A00CB
